###############################################################################
#                                                                             #
# IAR ANSI C/C++ Compiler V6.40.2.53884/W32 for ARM     10/Mar/2023  15:41:02 #
# Copyright 1999-2012 IAR Systems AB.                                         #
#                                                                             #
#    Cpu mode     =  thumb                                                    #
#    Endian       =  little                                                   #
#    Source file  =  F:\Project\NT_1069\ajpp_titan_v5_2\selftest.c            #
#    Command line =  F:\Project\NT_1069\ajpp_titan_v5_2\selftest.c -lCN       #
#                    F:\Project\NT_1069\ajpp_titan_v5_2\Debug\List\ -o        #
#                    F:\Project\NT_1069\ajpp_titan_v5_2\Debug\Obj\ --no_cse   #
#                    --no_unroll --no_inline --no_code_motion --no_tbaa       #
#                    --no_clustering --no_scheduling --debug --endian=little  #
#                    --cpu=Cortex-M0 -e --fpu=None --dlib_config "C:\Program  #
#                    Files (x86)\IAR Systems\Embedded Workbench               #
#                    6.4_2\arm\INC\c\DLib_Config_Normal.h" -Ol                #
#    List file    =  F:\Project\NT_1069\ajpp_titan_v5_2\Debug\List\selftest.l #
#                    st                                                       #
#    Object file  =  F:\Project\NT_1069\ajpp_titan_v5_2\Debug\Obj\selftest.o  #
#                                                                             #
#                                                                             #
###############################################################################

F:\Project\NT_1069\ajpp_titan_v5_2\selftest.c
      1          #include "MCU32.h"
      2          #include "wake.h"
      3          #include "selftest.h"

   \                                 In section .data, align 4
   \   __absolute int icos[512]
   \                     icos:
   \   00000000   0x00001FFF         DC32 8191, 8190, 8190, 8189, 8188, 8187, 8185, 8183, 8181, 8178, 8175
   \              0x00001FFE   
   \              0x00001FFE   
   \              0x00001FFD   
   \              0x00001FFC   
   \              0x00001FFB   
   \              0x00001FF9   
   \              0x00001FF7   
   \              0x00001FF5   
   \              0x00001FF2   
   \              0x00001FEF   
   \   0000002C   0x00001FEC         DC32 8172, 8168, 8164, 8160, 8156, 8151, 8146, 8141, 8135, 8129, 8123
   \              0x00001FE8   
   \              0x00001FE4   
   \              0x00001FE0   
   \              0x00001FDC   
   \              0x00001FD7   
   \              0x00001FD2   
   \              0x00001FCD   
   \              0x00001FC7   
   \              0x00001FC1   
   \              0x00001FBB   
   \   00000058   0x00001FB4         DC32 8116, 8109, 8102, 8094, 8086, 8078, 8070, 8061, 8052, 8043, 8033
   \              0x00001FAD   
   \              0x00001FA6   
   \              0x00001F9E   
   \              0x00001F96   
   \              0x00001F8E   
   \              0x00001F86   
   \              0x00001F7D   
   \              0x00001F74   
   \              0x00001F6B   
   \              0x00001F61   
   \   00000084   0x00001F57         DC32 8023, 8013, 8002, 7991, 7980, 7969, 7957, 7945, 7933, 7920, 7907
   \              0x00001F4D   
   \              0x00001F42   
   \              0x00001F37   
   \              0x00001F2C   
   \              0x00001F21   
   \              0x00001F15   
   \              0x00001F09   
   \              0x00001EFD   
   \              0x00001EF0   
   \              0x00001EE3   
   \   000000B0   0x00001ED6         DC32 7894, 7880, 7866, 7852, 7838, 7823, 7808, 7793, 7777, 7761, 7745
   \              0x00001EC8   
   \              0x00001EBA   
   \              0x00001EAC   
   \              0x00001E9E   
   \              0x00001E8F   
   \              0x00001E80   
   \              0x00001E71   
   \              0x00001E61   
   \              0x00001E51   
   \              0x00001E41   
   \   000000DC   0x00001E30         DC32 7728, 7712, 7695, 7677, 7660, 7642, 7623, 7605, 7586, 7567, 7548
   \              0x00001E20   
   \              0x00001E0F   
   \              0x00001DFD   
   \              0x00001DEC   
   \              0x00001DDA   
   \              0x00001DC7   
   \              0x00001DB5   
   \              0x00001DA2   
   \              0x00001D8F   
   \              0x00001D7C   
   \   00000108   0x00001D68         DC32 7528, 7508, 7488, 7467, 7446, 7425, 7404, 7382, 7361, 7338, 7316
   \              0x00001D54   
   \              0x00001D40   
   \              0x00001D2B   
   \              0x00001D16   
   \              0x00001D01   
   \              0x00001CEC   
   \              0x00001CD6   
   \              0x00001CC1   
   \              0x00001CAA   
   \              0x00001C94   
   \   00000134   0x00001C7D         DC32 7293, 7270, 7247, 7223, 7199, 7175, 7151, 7126, 7101, 7076, 7051
   \              0x00001C66   
   \              0x00001C4F   
   \              0x00001C37   
   \              0x00001C1F   
   \              0x00001C07   
   \              0x00001BEF   
   \              0x00001BD6   
   \              0x00001BBD   
   \              0x00001BA4   
   \              0x00001B8B   
   \   00000160   0x00001B71         DC32 7025, 6999, 6973, 6946, 6920, 6893, 6865, 6838, 6810, 6782, 6754
   \              0x00001B57   
   \              0x00001B3D   
   \              0x00001B22   
   \              0x00001B08   
   \              0x00001AED   
   \              0x00001AD1   
   \              0x00001AB6   
   \              0x00001A9A   
   \              0x00001A7E   
   \              0x00001A62   
   \   0000018C   0x00001A45         DC32 6725, 6696, 6667, 6638, 6608, 6579, 6549, 6518, 6488, 6457, 6426
   \              0x00001A28   
   \              0x00001A0B   
   \              0x000019EE   
   \              0x000019D0   
   \              0x000019B3   
   \              0x00001995   
   \              0x00001976   
   \              0x00001958   
   \              0x00001939   
   \              0x0000191A   
   \   000001B8   0x000018FB         DC32 6395, 6363, 6331, 6299, 6267, 6235, 6202, 6169, 6136, 6102, 6069
   \              0x000018DB   
   \              0x000018BB   
   \              0x0000189B   
   \              0x0000187B   
   \              0x0000185B   
   \              0x0000183A   
   \              0x00001819   
   \              0x000017F8   
   \              0x000017D6   
   \              0x000017B5   
   \   000001E4   0x00001793         DC32 6035, 6001, 5966, 5932, 5897, 5862, 5827, 5791, 5756, 5720, 5684
   \              0x00001771   
   \              0x0000174E   
   \              0x0000172C   
   \              0x00001709   
   \              0x000016E6   
   \              0x000016C3   
   \              0x0000169F   
   \              0x0000167C   
   \              0x00001658   
   \              0x00001634   
   \   00000210   0x00001610         DC32 5648, 5611, 5574, 5537, 5500, 5463, 5425, 5388, 5350, 5311, 5273
   \              0x000015EB   
   \              0x000015C6   
   \              0x000015A1   
   \              0x0000157C   
   \              0x00001557   
   \              0x00001531   
   \              0x0000150C   
   \              0x000014E6   
   \              0x000014BF   
   \              0x00001499   
   \   0000023C   0x00001473         DC32 5235, 5196, 5157, 5118, 5078, 5039, 4999, 4959, 4919, 4879, 4838
   \              0x0000144C   
   \              0x00001425   
   \              0x000013FE   
   \              0x000013D6   
   \              0x000013AF   
   \              0x00001387   
   \              0x0000135F   
   \              0x00001337   
   \              0x0000130F   
   \              0x000012E6   
   \   00000268   0x000012BE         DC32 4798, 4757, 4716, 4675, 4633, 4592, 4550, 4508, 4466, 4424, 4382
   \              0x00001295   
   \              0x0000126C   
   \              0x00001243   
   \              0x00001219   
   \              0x000011F0   
   \              0x000011C6   
   \              0x0000119C   
   \              0x00001172   
   \              0x00001148   
   \              0x0000111E   
   \   00000294   0x000010F3         DC32 4339, 4296, 4254, 4211, 4167, 4124, 4080, 4037, 3993, 3949, 3905
   \              0x000010C8   
   \              0x0000109E   
   \              0x00001073   
   \              0x00001047   
   \              0x0000101C   
   \              0x00000FF0   
   \              0x00000FC5   
   \              0x00000F99   
   \              0x00000F6D   
   \              0x00000F41   
   \   000002C0   0x00000F15         DC32 3861, 3816, 3772, 3727, 3682, 3637, 3592, 3547, 3502, 3456, 3410
   \              0x00000EE8   
   \              0x00000EBC   
   \              0x00000E8F   
   \              0x00000E62   
   \              0x00000E35   
   \              0x00000E08   
   \              0x00000DDB   
   \              0x00000DAE   
   \              0x00000D80   
   \              0x00000D52   
   \   000002EC   0x00000D25         DC32 3365, 3319, 3273, 3227, 3180, 3134, 3088, 3041, 2994, 2947, 2900
   \              0x00000CF7   
   \              0x00000CC9   
   \              0x00000C9B   
   \              0x00000C6C   
   \              0x00000C3E   
   \              0x00000C10   
   \              0x00000BE1   
   \              0x00000BB2   
   \              0x00000B83   
   \              0x00000B54   
   \   00000318   0x00000B25         DC32 2853, 2806, 2759, 2712, 2664, 2617, 2569, 2521, 2473, 2425, 2377
   \              0x00000AF6   
   \              0x00000AC7   
   \              0x00000A98   
   \              0x00000A68   
   \              0x00000A39   
   \              0x00000A09   
   \              0x000009D9   
   \              0x000009A9   
   \              0x00000979   
   \              0x00000949   
   \   00000344   0x00000919         DC32 2329, 2281, 2233, 2184, 2136, 2087, 2038, 1990, 1941, 1892, 1843
   \              0x000008E9   
   \              0x000008B9   
   \              0x00000888   
   \              0x00000858   
   \              0x00000827   
   \              0x000007F6   
   \              0x000007C6   
   \              0x00000795   
   \              0x00000764   
   \              0x00000733   
   \   00000370   0x00000702         DC32 1794, 1745, 1696, 1647, 1597, 1548, 1499, 1449, 1400, 1350, 1301
   \              0x000006D1   
   \              0x000006A0   
   \              0x0000066F   
   \              0x0000063D   
   \              0x0000060C   
   \              0x000005DB   
   \              0x000005A9   
   \              0x00000578   
   \              0x00000546   
   \              0x00000515   
   \   0000039C   0x000004E3         DC32 1251, 1201, 1152, 1102, 1052, 1002, 952, 902, 852, 802, 752, 702
   \              0x000004B1   
   \              0x00000480   
   \              0x0000044E   
   \              0x0000041C   
   \              0x000003EA   
   \              0x000003B8   
   \              0x00000386   
   \              0x00000354   
   \              0x00000322   
   \              0x000002F0   
   \              0x000002BE   
   \   000003CC   0x0000028C         DC32 652, 602, 552, 502, 452, 401, 351, 301, 251, 201, 150, 100, 50, 0
   \              0x0000025A   
   \              0x00000228   
   \              0x000001F6   
   \              0x000001C4   
   \              0x00000191   
   \              0x0000015F   
   \              0x0000012D   
   \              0x000000FB   
   \              0x000000C9   
   \              0x00000096   
   \              0x00000064   
   \              0x00000032   
   \              0x00000000   
   \   00000404   0xFFFFFFCE         DC32 -50, -100, -150, -201, -251, -301, -351, -401, -452, -502, -552
   \              0xFFFFFF9C   
   \              0xFFFFFF6A   
   \              0xFFFFFF37   
   \              0xFFFFFF05   
   \              0xFFFFFED3   
   \              0xFFFFFEA1   
   \              0xFFFFFE6F   
   \              0xFFFFFE3C   
   \              0xFFFFFE0A   
   \              0xFFFFFDD8   
   \   00000430   0xFFFFFDA6         DC32 -602, -652, -702, -752, -802, -852, -902, -952, -1002, -1052
   \              0xFFFFFD74   
   \              0xFFFFFD42   
   \              0xFFFFFD10   
   \              0xFFFFFCDE   
   \              0xFFFFFCAC   
   \              0xFFFFFC7A   
   \              0xFFFFFC48   
   \              0xFFFFFC16   
   \              0xFFFFFBE4   
   \   00000458   0xFFFFFBB2         DC32 -1102, -1152, -1201, -1251, -1301, -1350, -1400, -1449, -1499
   \              0xFFFFFB80   
   \              0xFFFFFB4F   
   \              0xFFFFFB1D   
   \              0xFFFFFAEB   
   \              0xFFFFFABA   
   \              0xFFFFFA88   
   \              0xFFFFFA57   
   \              0xFFFFFA25   
   \   0000047C   0xFFFFF9F4         DC32 -1548, -1597, -1647, -1696, -1745, -1794, -1843, -1892, -1941
   \              0xFFFFF9C3   
   \              0xFFFFF991   
   \              0xFFFFF960   
   \              0xFFFFF92F   
   \              0xFFFFF8FE   
   \              0xFFFFF8CD   
   \              0xFFFFF89C   
   \              0xFFFFF86B   
   \   000004A0   0xFFFFF83A         DC32 -1990, -2038, -2087, -2136, -2184, -2233, -2281, -2329, -2377
   \              0xFFFFF80A   
   \              0xFFFFF7D9   
   \              0xFFFFF7A8   
   \              0xFFFFF778   
   \              0xFFFFF747   
   \              0xFFFFF717   
   \              0xFFFFF6E7   
   \              0xFFFFF6B7   
   \   000004C4   0xFFFFF687         DC32 -2425, -2473, -2521, -2569, -2617, -2664, -2712, -2759, -2806
   \              0xFFFFF657   
   \              0xFFFFF627   
   \              0xFFFFF5F7   
   \              0xFFFFF5C7   
   \              0xFFFFF598   
   \              0xFFFFF568   
   \              0xFFFFF539   
   \              0xFFFFF50A   
   \   000004E8   0xFFFFF4DB         DC32 -2853, -2900, -2947, -2994, -3041, -3088, -3134, -3180, -3227
   \              0xFFFFF4AC   
   \              0xFFFFF47D   
   \              0xFFFFF44E   
   \              0xFFFFF41F   
   \              0xFFFFF3F0   
   \              0xFFFFF3C2   
   \              0xFFFFF394   
   \              0xFFFFF365   
   \   0000050C   0xFFFFF337         DC32 -3273, -3319, -3365, -3410, -3456, -3502, -3547, -3592, -3637
   \              0xFFFFF309   
   \              0xFFFFF2DB   
   \              0xFFFFF2AE   
   \              0xFFFFF280   
   \              0xFFFFF252   
   \              0xFFFFF225   
   \              0xFFFFF1F8   
   \              0xFFFFF1CB   
   \   00000530   0xFFFFF19E         DC32 -3682, -3727, -3772, -3816, -3861, -3905, -3949, -3993, -4037
   \              0xFFFFF171   
   \              0xFFFFF144   
   \              0xFFFFF118   
   \              0xFFFFF0EB   
   \              0xFFFFF0BF   
   \              0xFFFFF093   
   \              0xFFFFF067   
   \              0xFFFFF03B   
   \   00000554   0xFFFFF010         DC32 -4080, -4124, -4167, -4211, -4254, -4296, -4339, -4382, -4424
   \              0xFFFFEFE4   
   \              0xFFFFEFB9   
   \              0xFFFFEF8D   
   \              0xFFFFEF62   
   \              0xFFFFEF38   
   \              0xFFFFEF0D   
   \              0xFFFFEEE2   
   \              0xFFFFEEB8   
   \   00000578   0xFFFFEE8E         DC32 -4466, -4508, -4550, -4592, -4633, -4675, -4716, -4757, -4798
   \              0xFFFFEE64   
   \              0xFFFFEE3A   
   \              0xFFFFEE10   
   \              0xFFFFEDE7   
   \              0xFFFFEDBD   
   \              0xFFFFED94   
   \              0xFFFFED6B   
   \              0xFFFFED42   
   \   0000059C   0xFFFFED1A         DC32 -4838, -4879, -4919, -4959, -4999, -5039, -5078, -5118, -5157
   \              0xFFFFECF1   
   \              0xFFFFECC9   
   \              0xFFFFECA1   
   \              0xFFFFEC79   
   \              0xFFFFEC51   
   \              0xFFFFEC2A   
   \              0xFFFFEC02   
   \              0xFFFFEBDB   
   \   000005C0   0xFFFFEBB4         DC32 -5196, -5235, -5273, -5311, -5350, -5388, -5425, -5463, -5500
   \              0xFFFFEB8D   
   \              0xFFFFEB67   
   \              0xFFFFEB41   
   \              0xFFFFEB1A   
   \              0xFFFFEAF4   
   \              0xFFFFEACF   
   \              0xFFFFEAA9   
   \              0xFFFFEA84   
   \   000005E4   0xFFFFEA5F         DC32 -5537, -5574, -5611, -5648, -5684, -5720, -5756, -5791, -5827
   \              0xFFFFEA3A   
   \              0xFFFFEA15   
   \              0xFFFFE9F0   
   \              0xFFFFE9CC   
   \              0xFFFFE9A8   
   \              0xFFFFE984   
   \              0xFFFFE961   
   \              0xFFFFE93D   
   \   00000608   0xFFFFE91A         DC32 -5862, -5897, -5932, -5966, -6001, -6035, -6069, -6102, -6136
   \              0xFFFFE8F7   
   \              0xFFFFE8D4   
   \              0xFFFFE8B2   
   \              0xFFFFE88F   
   \              0xFFFFE86D   
   \              0xFFFFE84B   
   \              0xFFFFE82A   
   \              0xFFFFE808   
   \   0000062C   0xFFFFE7E7         DC32 -6169, -6202, -6235, -6267, -6299, -6331, -6363, -6395, -6426
   \              0xFFFFE7C6   
   \              0xFFFFE7A5   
   \              0xFFFFE785   
   \              0xFFFFE765   
   \              0xFFFFE745   
   \              0xFFFFE725   
   \              0xFFFFE705   
   \              0xFFFFE6E6   
   \   00000650   0xFFFFE6C7         DC32 -6457, -6488, -6518, -6549, -6579, -6608, -6638, -6667, -6696
   \              0xFFFFE6A8   
   \              0xFFFFE68A   
   \              0xFFFFE66B   
   \              0xFFFFE64D   
   \              0xFFFFE630   
   \              0xFFFFE612   
   \              0xFFFFE5F5   
   \              0xFFFFE5D8   
   \   00000674   0xFFFFE5BB         DC32 -6725, -6754, -6782, -6810, -6838, -6865, -6893, -6920, -6946
   \              0xFFFFE59E   
   \              0xFFFFE582   
   \              0xFFFFE566   
   \              0xFFFFE54A   
   \              0xFFFFE52F   
   \              0xFFFFE513   
   \              0xFFFFE4F8   
   \              0xFFFFE4DE   
   \   00000698   0xFFFFE4C3         DC32 -6973, -6999, -7025, -7051, -7076, -7101, -7126, -7151, -7175
   \              0xFFFFE4A9   
   \              0xFFFFE48F   
   \              0xFFFFE475   
   \              0xFFFFE45C   
   \              0xFFFFE443   
   \              0xFFFFE42A   
   \              0xFFFFE411   
   \              0xFFFFE3F9   
   \   000006BC   0xFFFFE3E1         DC32 -7199, -7223, -7247, -7270, -7293, -7316, -7338, -7361, -7382
   \              0xFFFFE3C9   
   \              0xFFFFE3B1   
   \              0xFFFFE39A   
   \              0xFFFFE383   
   \              0xFFFFE36C   
   \              0xFFFFE356   
   \              0xFFFFE33F   
   \              0xFFFFE32A   
   \   000006E0   0xFFFFE314         DC32 -7404, -7425, -7446, -7467, -7488, -7508, -7528, -7548, -7567
   \              0xFFFFE2FF   
   \              0xFFFFE2EA   
   \              0xFFFFE2D5   
   \              0xFFFFE2C0   
   \              0xFFFFE2AC   
   \              0xFFFFE298   
   \              0xFFFFE284   
   \              0xFFFFE271   
   \   00000704   0xFFFFE25E         DC32 -7586, -7605, -7623, -7642, -7660, -7677, -7695, -7712, -7728
   \              0xFFFFE24B   
   \              0xFFFFE239   
   \              0xFFFFE226   
   \              0xFFFFE214   
   \              0xFFFFE203   
   \              0xFFFFE1F1   
   \              0xFFFFE1E0   
   \              0xFFFFE1D0   
   \   00000728   0xFFFFE1BF         DC32 -7745, -7761, -7777, -7793, -7808, -7823, -7838, -7852, -7866
   \              0xFFFFE1AF   
   \              0xFFFFE19F   
   \              0xFFFFE18F   
   \              0xFFFFE180   
   \              0xFFFFE171   
   \              0xFFFFE162   
   \              0xFFFFE154   
   \              0xFFFFE146   
   \   0000074C   0xFFFFE138         DC32 -7880, -7894, -7907, -7920, -7933, -7945, -7957, -7969, -7980
   \              0xFFFFE12A   
   \              0xFFFFE11D   
   \              0xFFFFE110   
   \              0xFFFFE103   
   \              0xFFFFE0F7   
   \              0xFFFFE0EB   
   \              0xFFFFE0DF   
   \              0xFFFFE0D4   
   \   00000770   0xFFFFE0C9         DC32 -7991, -8002, -8013, -8023, -8033, -8043, -8052, -8061, -8070
   \              0xFFFFE0BE   
   \              0xFFFFE0B3   
   \              0xFFFFE0A9   
   \              0xFFFFE09F   
   \              0xFFFFE095   
   \              0xFFFFE08C   
   \              0xFFFFE083   
   \              0xFFFFE07A   
   \   00000794   0xFFFFE072         DC32 -8078, -8086, -8094, -8102, -8109, -8116, -8123, -8129, -8135
   \              0xFFFFE06A   
   \              0xFFFFE062   
   \              0xFFFFE05A   
   \              0xFFFFE053   
   \              0xFFFFE04C   
   \              0xFFFFE045   
   \              0xFFFFE03F   
   \              0xFFFFE039   
   \   000007B8   0xFFFFE033         DC32 -8141, -8146, -8151, -8156, -8160, -8164, -8168, -8172, -8175
   \              0xFFFFE02E   
   \              0xFFFFE029   
   \              0xFFFFE024   
   \              0xFFFFE020   
   \              0xFFFFE01C   
   \              0xFFFFE018   
   \              0xFFFFE014   
   \              0xFFFFE011   
   \   000007DC   0xFFFFE00E         DC32 -8178, -8181, -8183, -8185, -8187, -8188, -8189, -8190, -8190
   \              0xFFFFE00B   
   \              0xFFFFE009   
   \              0xFFFFE007   
   \              0xFFFFE005   
   \              0xFFFFE004   
   \              0xFFFFE003   
   \              0xFFFFE002   
   \              0xFFFFE002   

   \                                 In section .data, align 4
   \   __absolute int isin[512]
   \                     isin:
   \   00000000   0x00000000         DC32 0, 50, 100, 150, 201, 251, 301, 351, 401, 452, 502, 552, 602, 652
   \              0x00000032   
   \              0x00000064   
   \              0x00000096   
   \              0x000000C9   
   \              0x000000FB   
   \              0x0000012D   
   \              0x0000015F   
   \              0x00000191   
   \              0x000001C4   
   \              0x000001F6   
   \              0x00000228   
   \              0x0000025A   
   \              0x0000028C   
   \   00000038   0x000002BE         DC32 702, 752, 802, 852, 902, 952, 1002, 1052, 1102, 1152, 1201, 1251
   \              0x000002F0   
   \              0x00000322   
   \              0x00000354   
   \              0x00000386   
   \              0x000003B8   
   \              0x000003EA   
   \              0x0000041C   
   \              0x0000044E   
   \              0x00000480   
   \              0x000004B1   
   \              0x000004E3   
   \   00000068   0x00000515         DC32 1301, 1350, 1400, 1449, 1499, 1548, 1597, 1647, 1696, 1745, 1794
   \              0x00000546   
   \              0x00000578   
   \              0x000005A9   
   \              0x000005DB   
   \              0x0000060C   
   \              0x0000063D   
   \              0x0000066F   
   \              0x000006A0   
   \              0x000006D1   
   \              0x00000702   
   \   00000094   0x00000733         DC32 1843, 1892, 1941, 1990, 2038, 2087, 2136, 2184, 2233, 2281, 2329
   \              0x00000764   
   \              0x00000795   
   \              0x000007C6   
   \              0x000007F6   
   \              0x00000827   
   \              0x00000858   
   \              0x00000888   
   \              0x000008B9   
   \              0x000008E9   
   \              0x00000919   
   \   000000C0   0x00000949         DC32 2377, 2425, 2473, 2521, 2569, 2617, 2664, 2712, 2759, 2806, 2853
   \              0x00000979   
   \              0x000009A9   
   \              0x000009D9   
   \              0x00000A09   
   \              0x00000A39   
   \              0x00000A68   
   \              0x00000A98   
   \              0x00000AC7   
   \              0x00000AF6   
   \              0x00000B25   
   \   000000EC   0x00000B54         DC32 2900, 2947, 2994, 3041, 3088, 3134, 3180, 3227, 3273, 3319, 3365
   \              0x00000B83   
   \              0x00000BB2   
   \              0x00000BE1   
   \              0x00000C10   
   \              0x00000C3E   
   \              0x00000C6C   
   \              0x00000C9B   
   \              0x00000CC9   
   \              0x00000CF7   
   \              0x00000D25   
   \   00000118   0x00000D52         DC32 3410, 3456, 3502, 3547, 3592, 3637, 3682, 3727, 3772, 3816, 3861
   \              0x00000D80   
   \              0x00000DAE   
   \              0x00000DDB   
   \              0x00000E08   
   \              0x00000E35   
   \              0x00000E62   
   \              0x00000E8F   
   \              0x00000EBC   
   \              0x00000EE8   
   \              0x00000F15   
   \   00000144   0x00000F41         DC32 3905, 3949, 3993, 4037, 4080, 4124, 4167, 4211, 4254, 4296, 4339
   \              0x00000F6D   
   \              0x00000F99   
   \              0x00000FC5   
   \              0x00000FF0   
   \              0x0000101C   
   \              0x00001047   
   \              0x00001073   
   \              0x0000109E   
   \              0x000010C8   
   \              0x000010F3   
   \   00000170   0x0000111E         DC32 4382, 4424, 4466, 4508, 4550, 4592, 4633, 4675, 4716, 4757, 4798
   \              0x00001148   
   \              0x00001172   
   \              0x0000119C   
   \              0x000011C6   
   \              0x000011F0   
   \              0x00001219   
   \              0x00001243   
   \              0x0000126C   
   \              0x00001295   
   \              0x000012BE   
   \   0000019C   0x000012E6         DC32 4838, 4879, 4919, 4959, 4999, 5039, 5078, 5118, 5157, 5196, 5235
   \              0x0000130F   
   \              0x00001337   
   \              0x0000135F   
   \              0x00001387   
   \              0x000013AF   
   \              0x000013D6   
   \              0x000013FE   
   \              0x00001425   
   \              0x0000144C   
   \              0x00001473   
   \   000001C8   0x00001499         DC32 5273, 5311, 5350, 5388, 5425, 5463, 5500, 5537, 5574, 5611, 5648
   \              0x000014BF   
   \              0x000014E6   
   \              0x0000150C   
   \              0x00001531   
   \              0x00001557   
   \              0x0000157C   
   \              0x000015A1   
   \              0x000015C6   
   \              0x000015EB   
   \              0x00001610   
   \   000001F4   0x00001634         DC32 5684, 5720, 5756, 5791, 5827, 5862, 5897, 5932, 5966, 6001, 6035
   \              0x00001658   
   \              0x0000167C   
   \              0x0000169F   
   \              0x000016C3   
   \              0x000016E6   
   \              0x00001709   
   \              0x0000172C   
   \              0x0000174E   
   \              0x00001771   
   \              0x00001793   
   \   00000220   0x000017B5         DC32 6069, 6102, 6136, 6169, 6202, 6235, 6267, 6299, 6331, 6363, 6395
   \              0x000017D6   
   \              0x000017F8   
   \              0x00001819   
   \              0x0000183A   
   \              0x0000185B   
   \              0x0000187B   
   \              0x0000189B   
   \              0x000018BB   
   \              0x000018DB   
   \              0x000018FB   
   \   0000024C   0x0000191A         DC32 6426, 6457, 6488, 6518, 6549, 6579, 6608, 6638, 6667, 6696, 6725
   \              0x00001939   
   \              0x00001958   
   \              0x00001976   
   \              0x00001995   
   \              0x000019B3   
   \              0x000019D0   
   \              0x000019EE   
   \              0x00001A0B   
   \              0x00001A28   
   \              0x00001A45   
   \   00000278   0x00001A62         DC32 6754, 6782, 6810, 6838, 6865, 6893, 6920, 6946, 6973, 6999, 7025
   \              0x00001A7E   
   \              0x00001A9A   
   \              0x00001AB6   
   \              0x00001AD1   
   \              0x00001AED   
   \              0x00001B08   
   \              0x00001B22   
   \              0x00001B3D   
   \              0x00001B57   
   \              0x00001B71   
   \   000002A4   0x00001B8B         DC32 7051, 7076, 7101, 7126, 7151, 7175, 7199, 7223, 7247, 7270, 7293
   \              0x00001BA4   
   \              0x00001BBD   
   \              0x00001BD6   
   \              0x00001BEF   
   \              0x00001C07   
   \              0x00001C1F   
   \              0x00001C37   
   \              0x00001C4F   
   \              0x00001C66   
   \              0x00001C7D   
   \   000002D0   0x00001C94         DC32 7316, 7338, 7361, 7382, 7404, 7425, 7446, 7467, 7488, 7508, 7528
   \              0x00001CAA   
   \              0x00001CC1   
   \              0x00001CD6   
   \              0x00001CEC   
   \              0x00001D01   
   \              0x00001D16   
   \              0x00001D2B   
   \              0x00001D40   
   \              0x00001D54   
   \              0x00001D68   
   \   000002FC   0x00001D7C         DC32 7548, 7567, 7586, 7605, 7623, 7642, 7660, 7677, 7695, 7712, 7728
   \              0x00001D8F   
   \              0x00001DA2   
   \              0x00001DB5   
   \              0x00001DC7   
   \              0x00001DDA   
   \              0x00001DEC   
   \              0x00001DFD   
   \              0x00001E0F   
   \              0x00001E20   
   \              0x00001E30   
   \   00000328   0x00001E41         DC32 7745, 7761, 7777, 7793, 7808, 7823, 7838, 7852, 7866, 7880, 7894
   \              0x00001E51   
   \              0x00001E61   
   \              0x00001E71   
   \              0x00001E80   
   \              0x00001E8F   
   \              0x00001E9E   
   \              0x00001EAC   
   \              0x00001EBA   
   \              0x00001EC8   
   \              0x00001ED6   
   \   00000354   0x00001EE3         DC32 7907, 7920, 7933, 7945, 7957, 7969, 7980, 7991, 8002, 8013, 8023
   \              0x00001EF0   
   \              0x00001EFD   
   \              0x00001F09   
   \              0x00001F15   
   \              0x00001F21   
   \              0x00001F2C   
   \              0x00001F37   
   \              0x00001F42   
   \              0x00001F4D   
   \              0x00001F57   
   \   00000380   0x00001F61         DC32 8033, 8043, 8052, 8061, 8070, 8078, 8086, 8094, 8102, 8109, 8116
   \              0x00001F6B   
   \              0x00001F74   
   \              0x00001F7D   
   \              0x00001F86   
   \              0x00001F8E   
   \              0x00001F96   
   \              0x00001F9E   
   \              0x00001FA6   
   \              0x00001FAD   
   \              0x00001FB4   
   \   000003AC   0x00001FBB         DC32 8123, 8129, 8135, 8141, 8146, 8151, 8156, 8160, 8164, 8168, 8172
   \              0x00001FC1   
   \              0x00001FC7   
   \              0x00001FCD   
   \              0x00001FD2   
   \              0x00001FD7   
   \              0x00001FDC   
   \              0x00001FE0   
   \              0x00001FE4   
   \              0x00001FE8   
   \              0x00001FEC   
   \   000003D8   0x00001FEF         DC32 8175, 8178, 8181, 8183, 8185, 8187, 8188, 8189, 8190, 8190, 8191
   \              0x00001FF2   
   \              0x00001FF5   
   \              0x00001FF7   
   \              0x00001FF9   
   \              0x00001FFB   
   \              0x00001FFC   
   \              0x00001FFD   
   \              0x00001FFE   
   \              0x00001FFE   
   \              0x00001FFF   
   \   00000404   0x00001FFE         DC32 8190, 8190, 8189, 8188, 8187, 8185, 8183, 8181, 8178, 8175, 8172
   \              0x00001FFE   
   \              0x00001FFD   
   \              0x00001FFC   
   \              0x00001FFB   
   \              0x00001FF9   
   \              0x00001FF7   
   \              0x00001FF5   
   \              0x00001FF2   
   \              0x00001FEF   
   \              0x00001FEC   
   \   00000430   0x00001FE8         DC32 8168, 8164, 8160, 8156, 8151, 8146, 8141, 8135, 8129, 8123, 8116
   \              0x00001FE4   
   \              0x00001FE0   
   \              0x00001FDC   
   \              0x00001FD7   
   \              0x00001FD2   
   \              0x00001FCD   
   \              0x00001FC7   
   \              0x00001FC1   
   \              0x00001FBB   
   \              0x00001FB4   
   \   0000045C   0x00001FAD         DC32 8109, 8102, 8094, 8086, 8078, 8070, 8061, 8052, 8043, 8033, 8023
   \              0x00001FA6   
   \              0x00001F9E   
   \              0x00001F96   
   \              0x00001F8E   
   \              0x00001F86   
   \              0x00001F7D   
   \              0x00001F74   
   \              0x00001F6B   
   \              0x00001F61   
   \              0x00001F57   
   \   00000488   0x00001F4D         DC32 8013, 8002, 7991, 7980, 7969, 7957, 7945, 7933, 7920, 7907, 7894
   \              0x00001F42   
   \              0x00001F37   
   \              0x00001F2C   
   \              0x00001F21   
   \              0x00001F15   
   \              0x00001F09   
   \              0x00001EFD   
   \              0x00001EF0   
   \              0x00001EE3   
   \              0x00001ED6   
   \   000004B4   0x00001EC8         DC32 7880, 7866, 7852, 7838, 7823, 7808, 7793, 7777, 7761, 7745, 7728
   \              0x00001EBA   
   \              0x00001EAC   
   \              0x00001E9E   
   \              0x00001E8F   
   \              0x00001E80   
   \              0x00001E71   
   \              0x00001E61   
   \              0x00001E51   
   \              0x00001E41   
   \              0x00001E30   
   \   000004E0   0x00001E20         DC32 7712, 7695, 7677, 7660, 7642, 7623, 7605, 7586, 7567, 7548, 7528
   \              0x00001E0F   
   \              0x00001DFD   
   \              0x00001DEC   
   \              0x00001DDA   
   \              0x00001DC7   
   \              0x00001DB5   
   \              0x00001DA2   
   \              0x00001D8F   
   \              0x00001D7C   
   \              0x00001D68   
   \   0000050C   0x00001D54         DC32 7508, 7488, 7467, 7446, 7425, 7404, 7382, 7361, 7338, 7316, 7293
   \              0x00001D40   
   \              0x00001D2B   
   \              0x00001D16   
   \              0x00001D01   
   \              0x00001CEC   
   \              0x00001CD6   
   \              0x00001CC1   
   \              0x00001CAA   
   \              0x00001C94   
   \              0x00001C7D   
   \   00000538   0x00001C66         DC32 7270, 7247, 7223, 7199, 7175, 7151, 7126, 7101, 7076, 7051, 7025
   \              0x00001C4F   
   \              0x00001C37   
   \              0x00001C1F   
   \              0x00001C07   
   \              0x00001BEF   
   \              0x00001BD6   
   \              0x00001BBD   
   \              0x00001BA4   
   \              0x00001B8B   
   \              0x00001B71   
   \   00000564   0x00001B57         DC32 6999, 6973, 6946, 6920, 6893, 6865, 6838, 6810, 6782, 6754, 6725
   \              0x00001B3D   
   \              0x00001B22   
   \              0x00001B08   
   \              0x00001AED   
   \              0x00001AD1   
   \              0x00001AB6   
   \              0x00001A9A   
   \              0x00001A7E   
   \              0x00001A62   
   \              0x00001A45   
   \   00000590   0x00001A28         DC32 6696, 6667, 6638, 6608, 6579, 6549, 6518, 6488, 6457, 6426, 6395
   \              0x00001A0B   
   \              0x000019EE   
   \              0x000019D0   
   \              0x000019B3   
   \              0x00001995   
   \              0x00001976   
   \              0x00001958   
   \              0x00001939   
   \              0x0000191A   
   \              0x000018FB   
   \   000005BC   0x000018DB         DC32 6363, 6331, 6299, 6267, 6235, 6202, 6169, 6136, 6102, 6069, 6035
   \              0x000018BB   
   \              0x0000189B   
   \              0x0000187B   
   \              0x0000185B   
   \              0x0000183A   
   \              0x00001819   
   \              0x000017F8   
   \              0x000017D6   
   \              0x000017B5   
   \              0x00001793   
   \   000005E8   0x00001771         DC32 6001, 5966, 5932, 5897, 5862, 5827, 5791, 5756, 5720, 5684, 5648
   \              0x0000174E   
   \              0x0000172C   
   \              0x00001709   
   \              0x000016E6   
   \              0x000016C3   
   \              0x0000169F   
   \              0x0000167C   
   \              0x00001658   
   \              0x00001634   
   \              0x00001610   
   \   00000614   0x000015EB         DC32 5611, 5574, 5537, 5500, 5463, 5425, 5388, 5350, 5311, 5273, 5235
   \              0x000015C6   
   \              0x000015A1   
   \              0x0000157C   
   \              0x00001557   
   \              0x00001531   
   \              0x0000150C   
   \              0x000014E6   
   \              0x000014BF   
   \              0x00001499   
   \              0x00001473   
   \   00000640   0x0000144C         DC32 5196, 5157, 5118, 5078, 5039, 4999, 4959, 4919, 4879, 4838, 4798
   \              0x00001425   
   \              0x000013FE   
   \              0x000013D6   
   \              0x000013AF   
   \              0x00001387   
   \              0x0000135F   
   \              0x00001337   
   \              0x0000130F   
   \              0x000012E6   
   \              0x000012BE   
   \   0000066C   0x00001295         DC32 4757, 4716, 4675, 4633, 4592, 4550, 4508, 4466, 4424, 4382, 4339
   \              0x0000126C   
   \              0x00001243   
   \              0x00001219   
   \              0x000011F0   
   \              0x000011C6   
   \              0x0000119C   
   \              0x00001172   
   \              0x00001148   
   \              0x0000111E   
   \              0x000010F3   
   \   00000698   0x000010C8         DC32 4296, 4254, 4211, 4167, 4124, 4080, 4037, 3993, 3949, 3905, 3861
   \              0x0000109E   
   \              0x00001073   
   \              0x00001047   
   \              0x0000101C   
   \              0x00000FF0   
   \              0x00000FC5   
   \              0x00000F99   
   \              0x00000F6D   
   \              0x00000F41   
   \              0x00000F15   
   \   000006C4   0x00000EE8         DC32 3816, 3772, 3727, 3682, 3637, 3592, 3547, 3502, 3456, 3410, 3365
   \              0x00000EBC   
   \              0x00000E8F   
   \              0x00000E62   
   \              0x00000E35   
   \              0x00000E08   
   \              0x00000DDB   
   \              0x00000DAE   
   \              0x00000D80   
   \              0x00000D52   
   \              0x00000D25   
   \   000006F0   0x00000CF7         DC32 3319, 3273, 3227, 3180, 3134, 3088, 3041, 2994, 2947, 2900, 2853
   \              0x00000CC9   
   \              0x00000C9B   
   \              0x00000C6C   
   \              0x00000C3E   
   \              0x00000C10   
   \              0x00000BE1   
   \              0x00000BB2   
   \              0x00000B83   
   \              0x00000B54   
   \              0x00000B25   
   \   0000071C   0x00000AF6         DC32 2806, 2759, 2712, 2664, 2617, 2569, 2521, 2473, 2425, 2377, 2329
   \              0x00000AC7   
   \              0x00000A98   
   \              0x00000A68   
   \              0x00000A39   
   \              0x00000A09   
   \              0x000009D9   
   \              0x000009A9   
   \              0x00000979   
   \              0x00000949   
   \              0x00000919   
   \   00000748   0x000008E9         DC32 2281, 2233, 2184, 2136, 2087, 2038, 1990, 1941, 1892, 1843, 1794
   \              0x000008B9   
   \              0x00000888   
   \              0x00000858   
   \              0x00000827   
   \              0x000007F6   
   \              0x000007C6   
   \              0x00000795   
   \              0x00000764   
   \              0x00000733   
   \              0x00000702   
   \   00000774   0x000006D1         DC32 1745, 1696, 1647, 1597, 1548, 1499, 1449, 1400, 1350, 1301, 1251
   \              0x000006A0   
   \              0x0000066F   
   \              0x0000063D   
   \              0x0000060C   
   \              0x000005DB   
   \              0x000005A9   
   \              0x00000578   
   \              0x00000546   
   \              0x00000515   
   \              0x000004E3   
   \   000007A0   0x000004B1         DC32 1201, 1152, 1102, 1052, 1002, 952, 902, 852, 802, 752, 702, 652
   \              0x00000480   
   \              0x0000044E   
   \              0x0000041C   
   \              0x000003EA   
   \              0x000003B8   
   \              0x00000386   
   \              0x00000354   
   \              0x00000322   
   \              0x000002F0   
   \              0x000002BE   
   \              0x0000028C   
   \   000007D0   0x0000025A         DC32 602, 552, 502, 452, 401, 351, 301, 251, 201, 150, 100, 50
   \              0x00000228   
   \              0x000001F6   
   \              0x000001C4   
   \              0x00000191   
   \              0x0000015F   
   \              0x0000012D   
   \              0x000000FB   
   \              0x000000C9   
   \              0x00000096   
   \              0x00000064   
   \              0x00000032   
      4          #include "ak.h"
      5          
      6          
      7          /************************************************************************************
      8          *                                FUNCTION PROTOTYPES
      9          *************************************************************************************/
     10          // F = (8*B_cnt + A_cnt)*1.242 MHz
     11          // a_b_cnt = 0x9D34;  A=13, B=157 - F = 1576.098 MHz
     12          int CalibrTonOn(uint32_t a_b_cnt, uint32_t pow);  // b20..b8 = B_cnt, b6..b2 = A_cnt, pow = 0..3 = -14, -11, -8, -5 dB
     13          void CalibrTonOff(void);
     14          //------------------------------------------------------------------------------
     15          //------------------------------------------------------

   \                                 In section .text, align 2, keep-with-next
     16          void ReadRegistratorData(uint32_t chan, uint32_t sel, int32_t* dat_I, int32_t* dat_Q) {   
   \                     ReadRegistratorData:
   \   00000000   0xB5F0             PUSH     {R4-R7,LR}
     17          uint32_t temp, registrator_addr;
     18          volatile int* AK = (volatile int *)AK_BASE_ADR;
   \   00000002   0x....             LDR      R4,??DataTable2  ;; 0x8008e000
     19          int16_t temp_short;
     20            
     21              AK[AK_CONFIG_2] = 0; //(ConfigAK.AK_Ovfw_selector<<8) + ConfigAK.AK_Out_selector;
   \   00000004   0x2500             MOVS     R5,#+0
   \   00000006   0x67A5             STR      R5,[R4, #+120]
     22              AK[REG_SEL] = sel;        // 0..9
   \   00000008   0x2584             MOVS     R5,#+132
   \   0000000A   0x5161             STR      R1,[R4, R5]
     23              AK[REG_CONTRL] = 0;     // Clear REG_Auto_start & REG_Enable
   \   0000000C   0x2188             MOVS     R1,#+136
   \   0000000E   0x2500             MOVS     R5,#+0
   \   00000010   0x5065             STR      R5,[R4, R1]
     24              AK[REG_CONTRL] = 0x400003fe;     // Set REG_Auto_start & after_start = 1023
   \   00000012   0x2188             MOVS     R1,#+136
   \   00000014   0x....             LDR      R5,??DataTable2_1  ;; 0x400003fe
   \   00000016   0x5065             STR      R5,[R4, R1]
     25              AK[REG_CONTRL] |= 0x80000000;  // Set REG_Enable
   \   00000018   0x2188             MOVS     R1,#+136
   \   0000001A   0x5861             LDR      R1,[R4, R1]
   \   0000001C   0x2580             MOVS     R5,#+128
   \   0000001E   0x062D             LSLS     R5,R5,#+24       ;; #-2147483648
   \   00000020   0x430D             ORRS     R5,R5,R1
   \   00000022   0x2188             MOVS     R1,#+136
   \   00000024   0x5065             STR      R5,[R4, R1]
     26              registrator_addr = chan;
     27              while((AK[REG_CONTRL] & 0x20000000) == 0);   // wait REG_Ready 
   \                     ??ReadRegistratorData_0:
   \   00000026   0x2188             MOVS     R1,#+136
   \   00000028   0x5861             LDR      R1,[R4, R1]
   \   0000002A   0x0089             LSLS     R1,R1,#+2
   \   0000002C   0xD5FB             BPL      ??ReadRegistratorData_0
     28              for (int i = 0; i < 1024; i++) {  //A[I,Q]
   \   0000002E   0x2100             MOVS     R1,#+0
   \   00000030   0xE010             B        ??ReadRegistratorData_1
     29                AK[REG_INDEX] = registrator_addr;
   \                     ??ReadRegistratorData_2:
   \   00000032   0x2580             MOVS     R5,#+128
   \   00000034   0x5160             STR      R0,[R4, R5]
     30                registrator_addr += 0x8;          //registrator_addr++;
   \   00000036   0x3008             ADDS     R0,R0,#+8
     31                temp = AK[REG_INDEX];
   \   00000038   0x2580             MOVS     R5,#+128
   \   0000003A   0x5966             LDR      R6,[R4, R5]
     32                temp_short = temp >> 16;
   \   0000003C   0x0035             MOVS     R5,R6
   \   0000003E   0x0C2D             LSRS     R5,R5,#+16
     33                dat_Q[i] = temp_short;
   \   00000040   0x2704             MOVS     R7,#+4
   \   00000042   0x434F             MULS     R7,R1,R7
   \   00000044   0xB22D             SXTH     R5,R5
   \   00000046   0x51DD             STR      R5,[R3, R7]
     34                temp_short = temp;
   \   00000048   0x0035             MOVS     R5,R6
     35                dat_I[i] = temp_short;
   \   0000004A   0x2604             MOVS     R6,#+4
   \   0000004C   0x434E             MULS     R6,R1,R6
   \   0000004E   0xB22D             SXTH     R5,R5
   \   00000050   0x5195             STR      R5,[R2, R6]
     36              }
   \   00000052   0x1C49             ADDS     R1,R1,#+1
   \                     ??ReadRegistratorData_1:
   \   00000054   0x2580             MOVS     R5,#+128
   \   00000056   0x00ED             LSLS     R5,R5,#+3        ;; #+1024
   \   00000058   0x42A9             CMP      R1,R5
   \   0000005A   0xDBEA             BLT      ??ReadRegistratorData_2
     37              AK[REG_CONTRL] = 0;     // Clear REG_Auto_start & REG_Enable
   \   0000005C   0x3488             ADDS     R4,R4,#+136
   \   0000005E   0x2000             MOVS     R0,#+0
   \   00000060   0x6020             STR      R0,[R4, #+0]
     38          }  
   \   00000062   0xBDF0             POP      {R4-R7,PC}       ;; return
     39          //---------------------------------------------------------------------------

   \                                 In section .text, align 2, keep-with-next
     40          uint32_t FFT_power(int n, int32_t* II, int32_t* QQ)
     41          {
   \                     FFT_power:
   \   00000000   0xB5F7             PUSH     {R0-R2,R4-R7,LR}
   \   00000002   0xB087             SUB      SP,SP,#+28
     42          //float x[1024], y[1024];
     43          int32_t* x = II;
   \   00000004   0x9808             LDR      R0,[SP, #+32]
   \   00000006   0x9001             STR      R0,[SP, #+4]
     44          int32_t* y = QQ;
   \   00000008   0x9809             LDR      R0,[SP, #+36]
   \   0000000A   0x9000             STR      R0,[SP, #+0]
     45          int32_t tmp; 
     46          int32_t n2=n>>1, kd, i1, i;
   \   0000000C   0x9807             LDR      R0,[SP, #+28]
   \   0000000E   0x1040             ASRS     R0,R0,#+1
   \   00000010   0x9005             STR      R0,[SP, #+20]
     47          int32_t Tx,Ty;
     48          int32_t Wx, Wy;
     49          
     50          /*  for(int i=0; i<n; i++) {
     51              x[i] = II[i];
     52              y[i] = QQ[i];
     53            }
     54          */
     55            for(int j=i=0; i<n-1; i++) {
   \   00000012   0x2000             MOVS     R0,#+0
   \   00000014   0x0004             MOVS     R4,R0
   \   00000016   0xE006             B        ??FFT_power_0
     56                if(i<j) {
     57                   tmp = x[i]; x[i] = x[j]; x[j] = tmp;   //swap
     58                   tmp = y[i]; y[i] = y[j]; y[j] = tmp;   //swap
     59                }      
     60                for(kd=n2;j>=kd;kd=(kd+1)>>1) j-=kd;
   \                     ??FFT_power_1:
   \   00000018   0x1B40             SUBS     R0,R0,R5
   \   0000001A   0x1C6D             ADDS     R5,R5,#+1
   \   0000001C   0x106D             ASRS     R5,R5,#+1
   \                     ??FFT_power_2:
   \   0000001E   0x42A8             CMP      R0,R5
   \   00000020   0xDAFA             BGE      ??FFT_power_1
     61                j+=kd;
   \   00000022   0x1940             ADDS     R0,R0,R5
   \   00000024   0x1C64             ADDS     R4,R4,#+1
   \                     ??FFT_power_0:
   \   00000026   0x9907             LDR      R1,[SP, #+28]
   \   00000028   0x1E49             SUBS     R1,R1,#+1
   \   0000002A   0x428C             CMP      R4,R1
   \   0000002C   0xDA23             BGE      ??FFT_power_3
   \   0000002E   0x4284             CMP      R4,R0
   \   00000030   0xDA1F             BGE      ??FFT_power_4
   \   00000032   0x2104             MOVS     R1,#+4
   \   00000034   0x4361             MULS     R1,R4,R1
   \   00000036   0x9A01             LDR      R2,[SP, #+4]
   \   00000038   0x5851             LDR      R1,[R2, R1]
   \   0000003A   0x2204             MOVS     R2,#+4
   \   0000003C   0x4362             MULS     R2,R4,R2
   \   0000003E   0x9B01             LDR      R3,[SP, #+4]
   \   00000040   0x2504             MOVS     R5,#+4
   \   00000042   0x4345             MULS     R5,R0,R5
   \   00000044   0x9E01             LDR      R6,[SP, #+4]
   \   00000046   0x5975             LDR      R5,[R6, R5]
   \   00000048   0x509D             STR      R5,[R3, R2]
   \   0000004A   0x2204             MOVS     R2,#+4
   \   0000004C   0x4342             MULS     R2,R0,R2
   \   0000004E   0x9B01             LDR      R3,[SP, #+4]
   \   00000050   0x5099             STR      R1,[R3, R2]
   \   00000052   0x2104             MOVS     R1,#+4
   \   00000054   0x4361             MULS     R1,R4,R1
   \   00000056   0x9A00             LDR      R2,[SP, #+0]
   \   00000058   0x5851             LDR      R1,[R2, R1]
   \   0000005A   0x2204             MOVS     R2,#+4
   \   0000005C   0x4362             MULS     R2,R4,R2
   \   0000005E   0x9B00             LDR      R3,[SP, #+0]
   \   00000060   0x2504             MOVS     R5,#+4
   \   00000062   0x4345             MULS     R5,R0,R5
   \   00000064   0x9E00             LDR      R6,[SP, #+0]
   \   00000066   0x5975             LDR      R5,[R6, R5]
   \   00000068   0x509D             STR      R5,[R3, R2]
   \   0000006A   0x2204             MOVS     R2,#+4
   \   0000006C   0x4342             MULS     R2,R0,R2
   \   0000006E   0x9B00             LDR      R3,[SP, #+0]
   \   00000070   0x5099             STR      R1,[R3, R2]
   \                     ??FFT_power_4:
   \   00000072   0x9D05             LDR      R5,[SP, #+20]
   \   00000074   0xE7D3             B        ??FFT_power_2
     62            }
     63          
     64            for(kd=1; kd<=n2; kd<<=1)
   \                     ??FFT_power_3:
   \   00000076   0x2501             MOVS     R5,#+1
   \   00000078   0xE000             B        ??FFT_power_5
   \                     ??FFT_power_6:
   \   0000007A   0x006D             LSLS     R5,R5,#+1
   \                     ??FFT_power_5:
   \   0000007C   0x9805             LDR      R0,[SP, #+20]
   \   0000007E   0x42A8             CMP      R0,R5
   \   00000080   0xDB79             BLT      ??FFT_power_7
     65              for(int j=0; j<kd; j++) {
   \   00000082   0x2000             MOVS     R0,#+0
   \   00000084   0x9003             STR      R0,[SP, #+12]
   \   00000086   0xE059             B        ??FFT_power_8
     66          //            Wx=cosl(M_PI/kd*j);
     67          //            Wy=sinl(M_PI/kd*j);
     68                Wx = icos[512/kd*j];
     69                Wy = isin[512/kd*j];
     70                for(i=j; i<n; i+=kd<<1) {
     71                  i1=i+kd;
   \                     ??FFT_power_9:
   \   00000088   0x1960             ADDS     R0,R4,R5
   \   0000008A   0x9002             STR      R0,[SP, #+8]
     72                  Tx=x[i1]*Wx - y[i1]*Wy;
   \   0000008C   0x9802             LDR      R0,[SP, #+8]
   \   0000008E   0x2104             MOVS     R1,#+4
   \   00000090   0x4348             MULS     R0,R1,R0
   \   00000092   0x9901             LDR      R1,[SP, #+4]
   \   00000094   0x5808             LDR      R0,[R1, R0]
   \   00000096   0x9904             LDR      R1,[SP, #+16]
   \   00000098   0x4348             MULS     R0,R1,R0
   \   0000009A   0x9902             LDR      R1,[SP, #+8]
   \   0000009C   0x2204             MOVS     R2,#+4
   \   0000009E   0x4351             MULS     R1,R2,R1
   \   000000A0   0x9A00             LDR      R2,[SP, #+0]
   \   000000A2   0x5851             LDR      R1,[R2, R1]
   \   000000A4   0x9A06             LDR      R2,[SP, #+24]
   \   000000A6   0x4351             MULS     R1,R2,R1
   \   000000A8   0x1A46             SUBS     R6,R0,R1
     73                  Ty=x[i1]*Wy + y[i1]*Wx;
   \   000000AA   0x9802             LDR      R0,[SP, #+8]
   \   000000AC   0x2104             MOVS     R1,#+4
   \   000000AE   0x4348             MULS     R0,R1,R0
   \   000000B0   0x9901             LDR      R1,[SP, #+4]
   \   000000B2   0x5808             LDR      R0,[R1, R0]
   \   000000B4   0x9906             LDR      R1,[SP, #+24]
   \   000000B6   0x4348             MULS     R0,R1,R0
   \   000000B8   0x9902             LDR      R1,[SP, #+8]
   \   000000BA   0x2204             MOVS     R2,#+4
   \   000000BC   0x4351             MULS     R1,R2,R1
   \   000000BE   0x9A00             LDR      R2,[SP, #+0]
   \   000000C0   0x5851             LDR      R1,[R2, R1]
   \   000000C2   0x9A04             LDR      R2,[SP, #+16]
   \   000000C4   0x4351             MULS     R1,R2,R1
   \   000000C6   0x1847             ADDS     R7,R0,R1
     74                  Tx = Tx/8192; // >>13;
   \   000000C8   0x0030             MOVS     R0,R6
   \   000000CA   0x2180             MOVS     R1,#+128
   \   000000CC   0x0189             LSLS     R1,R1,#+6        ;; #+8192
   \   000000CE   0x.... 0x....      BL       __aeabi_idiv
   \   000000D2   0x0006             MOVS     R6,R0
     75                  Ty = Ty/8192; // >>13;
   \   000000D4   0x0038             MOVS     R0,R7
   \   000000D6   0x2180             MOVS     R1,#+128
   \   000000D8   0x0189             LSLS     R1,R1,#+6        ;; #+8192
   \   000000DA   0x.... 0x....      BL       __aeabi_idiv
   \   000000DE   0x0007             MOVS     R7,R0
     76                  x[i1]=x[i]-Tx;
   \   000000E0   0x2004             MOVS     R0,#+4
   \   000000E2   0x4360             MULS     R0,R4,R0
   \   000000E4   0x9901             LDR      R1,[SP, #+4]
   \   000000E6   0x5808             LDR      R0,[R1, R0]
   \   000000E8   0x1B80             SUBS     R0,R0,R6
   \   000000EA   0x9902             LDR      R1,[SP, #+8]
   \   000000EC   0x2204             MOVS     R2,#+4
   \   000000EE   0x4351             MULS     R1,R2,R1
   \   000000F0   0x9A01             LDR      R2,[SP, #+4]
   \   000000F2   0x5050             STR      R0,[R2, R1]
     77                  y[i1]=y[i]-Ty;
   \   000000F4   0x2004             MOVS     R0,#+4
   \   000000F6   0x4360             MULS     R0,R4,R0
   \   000000F8   0x9900             LDR      R1,[SP, #+0]
   \   000000FA   0x5808             LDR      R0,[R1, R0]
   \   000000FC   0x1BC0             SUBS     R0,R0,R7
   \   000000FE   0x9902             LDR      R1,[SP, #+8]
   \   00000100   0x2204             MOVS     R2,#+4
   \   00000102   0x4351             MULS     R1,R2,R1
   \   00000104   0x9A00             LDR      R2,[SP, #+0]
   \   00000106   0x5050             STR      R0,[R2, R1]
     78                  x[i]+=Tx;
   \   00000108   0x2004             MOVS     R0,#+4
   \   0000010A   0x4360             MULS     R0,R4,R0
   \   0000010C   0x9901             LDR      R1,[SP, #+4]
   \   0000010E   0x5808             LDR      R0,[R1, R0]
   \   00000110   0x1980             ADDS     R0,R0,R6
   \   00000112   0x2104             MOVS     R1,#+4
   \   00000114   0x4361             MULS     R1,R4,R1
   \   00000116   0x9A01             LDR      R2,[SP, #+4]
   \   00000118   0x5050             STR      R0,[R2, R1]
     79                  y[i]+=Ty;
   \   0000011A   0x2004             MOVS     R0,#+4
   \   0000011C   0x4360             MULS     R0,R4,R0
   \   0000011E   0x9900             LDR      R1,[SP, #+0]
   \   00000120   0x5808             LDR      R0,[R1, R0]
   \   00000122   0x19C0             ADDS     R0,R0,R7
   \   00000124   0x2104             MOVS     R1,#+4
   \   00000126   0x4361             MULS     R1,R4,R1
   \   00000128   0x9A00             LDR      R2,[SP, #+0]
   \   0000012A   0x5050             STR      R0,[R2, R1]
     80                }
   \   0000012C   0x0068             LSLS     R0,R5,#+1
   \   0000012E   0x1824             ADDS     R4,R4,R0
   \                     ??FFT_power_10:
   \   00000130   0x9807             LDR      R0,[SP, #+28]
   \   00000132   0x4284             CMP      R4,R0
   \   00000134   0xDBA8             BLT      ??FFT_power_9
   \   00000136   0x9803             LDR      R0,[SP, #+12]
   \   00000138   0x1C40             ADDS     R0,R0,#+1
   \   0000013A   0x9003             STR      R0,[SP, #+12]
   \                     ??FFT_power_8:
   \   0000013C   0x9803             LDR      R0,[SP, #+12]
   \   0000013E   0x42A8             CMP      R0,R5
   \   00000140   0xDA9B             BGE      ??FFT_power_6
   \   00000142   0x2080             MOVS     R0,#+128
   \   00000144   0x0080             LSLS     R0,R0,#+2        ;; #+512
   \   00000146   0x0029             MOVS     R1,R5
   \   00000148   0x.... 0x....      BL       __aeabi_idiv
   \   0000014C   0x9903             LDR      R1,[SP, #+12]
   \   0000014E   0x4348             MULS     R0,R1,R0
   \   00000150   0x2104             MOVS     R1,#+4
   \   00000152   0x4348             MULS     R0,R1,R0
   \   00000154   0x....             LDR      R1,??DataTable2_2
   \   00000156   0x5808             LDR      R0,[R1, R0]
   \   00000158   0x9004             STR      R0,[SP, #+16]
   \   0000015A   0x2080             MOVS     R0,#+128
   \   0000015C   0x0080             LSLS     R0,R0,#+2        ;; #+512
   \   0000015E   0x0029             MOVS     R1,R5
   \   00000160   0x.... 0x....      BL       __aeabi_idiv
   \   00000164   0x9903             LDR      R1,[SP, #+12]
   \   00000166   0x4348             MULS     R0,R1,R0
   \   00000168   0x2104             MOVS     R1,#+4
   \   0000016A   0x4348             MULS     R0,R1,R0
   \   0000016C   0x....             LDR      R1,??DataTable2_3
   \   0000016E   0x5808             LDR      R0,[R1, R0]
   \   00000170   0x9006             STR      R0,[SP, #+24]
   \   00000172   0x9C03             LDR      R4,[SP, #+12]
   \   00000174   0xE7DC             B        ??FFT_power_10
     81              }
     82            
     83            Wx = 0; i1 = 0;
   \                     ??FFT_power_7:
   \   00000176   0x2000             MOVS     R0,#+0
   \   00000178   0x9004             STR      R0,[SP, #+16]
   \   0000017A   0x2000             MOVS     R0,#+0
   \   0000017C   0x9002             STR      R0,[SP, #+8]
     84            for(i=0; i<n; i++) {
   \   0000017E   0x2400             MOVS     R4,#+0
   \   00000180   0xE03A             B        ??FFT_power_11
     85              x[i]/=n2;
   \                     ??FFT_power_12:
   \   00000182   0x2004             MOVS     R0,#+4
   \   00000184   0x4360             MULS     R0,R4,R0
   \   00000186   0x9901             LDR      R1,[SP, #+4]
   \   00000188   0x5808             LDR      R0,[R1, R0]
   \   0000018A   0x9905             LDR      R1,[SP, #+20]
   \   0000018C   0x.... 0x....      BL       __aeabi_idiv
   \   00000190   0x2104             MOVS     R1,#+4
   \   00000192   0x4361             MULS     R1,R4,R1
   \   00000194   0x9A01             LDR      R2,[SP, #+4]
   \   00000196   0x5050             STR      R0,[R2, R1]
     86              y[i]/=n2;
   \   00000198   0x2004             MOVS     R0,#+4
   \   0000019A   0x4360             MULS     R0,R4,R0
   \   0000019C   0x9900             LDR      R1,[SP, #+0]
   \   0000019E   0x5808             LDR      R0,[R1, R0]
   \   000001A0   0x9905             LDR      R1,[SP, #+20]
   \   000001A2   0x.... 0x....      BL       __aeabi_idiv
   \   000001A6   0x2104             MOVS     R1,#+4
   \   000001A8   0x4361             MULS     R1,R4,R1
   \   000001AA   0x9A00             LDR      R2,[SP, #+0]
   \   000001AC   0x5050             STR      R0,[R2, R1]
     87             //     y[i] = sqrt(x[i]*x[i]+y[i]*y[i]); 
     88              y[i] = (x[i]*x[i]+y[i]*y[i]); 
   \   000001AE   0x2004             MOVS     R0,#+4
   \   000001B0   0x4360             MULS     R0,R4,R0
   \   000001B2   0x9901             LDR      R1,[SP, #+4]
   \   000001B4   0x5808             LDR      R0,[R1, R0]
   \   000001B6   0x2104             MOVS     R1,#+4
   \   000001B8   0x4361             MULS     R1,R4,R1
   \   000001BA   0x9A01             LDR      R2,[SP, #+4]
   \   000001BC   0x5851             LDR      R1,[R2, R1]
   \   000001BE   0x4348             MULS     R0,R1,R0
   \   000001C0   0x2104             MOVS     R1,#+4
   \   000001C2   0x4361             MULS     R1,R4,R1
   \   000001C4   0x9A00             LDR      R2,[SP, #+0]
   \   000001C6   0x5851             LDR      R1,[R2, R1]
   \   000001C8   0x2204             MOVS     R2,#+4
   \   000001CA   0x4362             MULS     R2,R4,R2
   \   000001CC   0x9B00             LDR      R3,[SP, #+0]
   \   000001CE   0x589A             LDR      R2,[R3, R2]
   \   000001D0   0x4351             MULS     R1,R2,R1
   \   000001D2   0x1840             ADDS     R0,R0,R1
   \   000001D4   0x2104             MOVS     R1,#+4
   \   000001D6   0x4361             MULS     R1,R4,R1
   \   000001D8   0x9A00             LDR      R2,[SP, #+0]
   \   000001DA   0x5050             STR      R0,[R2, R1]
     89          //    II[i] = ((uint32_t)y[i])>>8;
     90              if (y[i] > Wx) {
   \   000001DC   0x9804             LDR      R0,[SP, #+16]
   \   000001DE   0x2104             MOVS     R1,#+4
   \   000001E0   0x4361             MULS     R1,R4,R1
   \   000001E2   0x9A00             LDR      R2,[SP, #+0]
   \   000001E4   0x5851             LDR      R1,[R2, R1]
   \   000001E6   0x4288             CMP      R0,R1
   \   000001E8   0xDA05             BGE      ??FFT_power_13
     91                Wx = y[i];
   \   000001EA   0x2004             MOVS     R0,#+4
   \   000001EC   0x4360             MULS     R0,R4,R0
   \   000001EE   0x9900             LDR      R1,[SP, #+0]
   \   000001F0   0x5808             LDR      R0,[R1, R0]
   \   000001F2   0x9004             STR      R0,[SP, #+16]
     92                i1 = i;
   \   000001F4   0x9402             STR      R4,[SP, #+8]
     93              }
     94            }
   \                     ??FFT_power_13:
   \   000001F6   0x1C64             ADDS     R4,R4,#+1
   \                     ??FFT_power_11:
   \   000001F8   0x9807             LDR      R0,[SP, #+28]
   \   000001FA   0x4284             CMP      R4,R0
   \   000001FC   0xDBC1             BLT      ??FFT_power_12
     95            return i1;
   \   000001FE   0x9802             LDR      R0,[SP, #+8]
   \   00000200   0xB00A             ADD      SP,SP,#+40
   \   00000202   0xBDF0             POP      {R4-R7,PC}       ;; return
     96          }
     97          //---------------------------------------------------------------------------
     98          //------------------------------------------------------------------------------

   \                                 In section .text, align 2, keep-with-next
     99          int SelfTest(void)
    100          {
   \                     SelfTest:
   \   00000000   0xB530             PUSH     {R4,R5,LR}
   \   00000002   0x....             LDR      R4,??DataTable2_4  ;; 0xffffdffc
   \   00000004   0x44A5             ADD      SP,SP,R4
    101          volatile int* AK = (volatile int *)AK_BASE_ADR;  
   \   00000006   0x....             LDR      R5,??DataTable2  ;; 0x8008e000
    102          int32_t II[1024], QQ[1024];  
    103          uint32_t res;
    104          
    105           // F = (8*B_cnt + A_cnt)*1.242 MHz
    106           // a_b_cnt = 0x9D34;  A=13, B=157 - F = 1576.098 MHz
    107          //int CalibrTonOn(uint32_t a_b_cnt, uint32_t pow)  // b20..b8 = B_cnt, b6..b2 = A_cnt, pow = 0..3 = -14, -11, -8, -5 dB
    108          if(CalibrTonOn((157<<8)|(15<<2), 0)) { // F = 1571.13 MHz  gps, glonas(band1,2,3)
   \   00000008   0x2100             MOVS     R1,#+0
   \   0000000A   0x....             LDR      R0,??DataTable2_5  ;; 0x9d3c
   \   0000000C   0x.... 0x....      BL       CalibrTonOn
   \   00000010   0x2800             CMP      R0,#+0
   \   00000012   0xD003             BEQ      ??SelfTest_0
    109              CalibrTonOff();
   \   00000014   0x.... 0x....      BL       CalibrTonOff
    110              return 0;
   \   00000018   0x2000             MOVS     R0,#+0
   \   0000001A   0xE025             B        ??SelfTest_1
    111            }  
    112          
    113            AK[AK_CONFIG_1] = 0xC0A63A0E;         // host_mode = 3 AK off
   \                     ??SelfTest_0:
   \   0000001C   0x....             LDR      R0,??DataTable2_6  ;; 0xc0a63a0e
   \   0000001E   0x6768             STR      R0,[R5, #+116]
    114            for (int i = 0; i < 4; i++) {
   \   00000020   0x2400             MOVS     R4,#+0
   \   00000022   0xE010             B        ??SelfTest_2
    115              // void ReadRegistratorData(uint32_t chan, uint32_t sel, uint16_t* dat_I, uint16_t* dat_Q)
    116              ReadRegistratorData(i, 0, II, QQ);   // in_data
   \                     ??SelfTest_3:
   \   00000024   0x466B             MOV      R3,SP
   \   00000026   0x2280             MOVS     R2,#+128
   \   00000028   0x0152             LSLS     R2,R2,#+5
   \   0000002A   0x446A             ADD      R2,R2,SP
   \   0000002C   0x2100             MOVS     R1,#+0
   \   0000002E   0x0020             MOVS     R0,R4
   \   00000030   0x.... 0x....      BL       ReadRegistratorData
    117              res = FFT_power(1024, II, QQ);
   \   00000034   0x466A             MOV      R2,SP
   \   00000036   0x2180             MOVS     R1,#+128
   \   00000038   0x0149             LSLS     R1,R1,#+5
   \   0000003A   0x4469             ADD      R1,R1,SP
   \   0000003C   0x2080             MOVS     R0,#+128
   \   0000003E   0x00C0             LSLS     R0,R0,#+3        ;; #+1024
   \   00000040   0x.... 0x....      BL       FFT_power
    118              if (( res < 10) || (res > 15))  
    119                ; //return 0;
    120            }
   \   00000044   0x1C64             ADDS     R4,R4,#+1
   \                     ??SelfTest_2:
   \   00000046   0x2C04             CMP      R4,#+4
   \   00000048   0xDBEC             BLT      ??SelfTest_3
    121            
    122            AK[AK_CONFIG_1] = 0x00A63A0E; // host_mode = 0 AK on
   \   0000004A   0x....             LDR      R0,??DataTable2_7  ;; 0xa63a0e
   \   0000004C   0x6768             STR      R0,[R5, #+116]
    123            
    124            if(CalibrTonOn((157<<8)|(5<<2), 0)) { // F = 1566.162 MHz beidou (band4)
   \   0000004E   0x2100             MOVS     R1,#+0
   \   00000050   0x....             LDR      R0,??DataTable2_8  ;; 0x9d14
   \   00000052   0x.... 0x....      BL       CalibrTonOn
   \   00000056   0x2800             CMP      R0,#+0
   \   00000058   0xD003             BEQ      ??SelfTest_4
    125              CalibrTonOff();
   \   0000005A   0x.... 0x....      BL       CalibrTonOff
    126              return 0;
   \   0000005E   0x2000             MOVS     R0,#+0
   \   00000060   0xE002             B        ??SelfTest_1
    127            }  
    128          
    129           
    130            CalibrTonOff();
   \                     ??SelfTest_4:
   \   00000062   0x.... 0x....      BL       CalibrTonOff
    131            return 1;
   \   00000066   0x2001             MOVS     R0,#+1
   \                     ??SelfTest_1:
   \   00000068   0x....             LDR      R1,??DataTable2_9  ;; 0x2004
   \   0000006A   0x448D             ADD      SP,SP,R1
   \   0000006C   0xBD30             POP      {R4,R5,PC}       ;; return
    132          }

   \                                 In section .text, align 4, keep-with-next
   \                     ??DataTable2:
   \   00000000   0x8008E000         DC32     0x8008e000

   \                                 In section .text, align 4, keep-with-next
   \                     ??DataTable2_1:
   \   00000000   0x400003FE         DC32     0x400003fe

   \                                 In section .text, align 4, keep-with-next
   \                     ??DataTable2_2:
   \   00000000   0x........         DC32     icos

   \                                 In section .text, align 4, keep-with-next
   \                     ??DataTable2_3:
   \   00000000   0x........         DC32     isin

   \                                 In section .text, align 4, keep-with-next
   \                     ??DataTable2_4:
   \   00000000   0xFFFFDFFC         DC32     0xffffdffc

   \                                 In section .text, align 4, keep-with-next
   \                     ??DataTable2_5:
   \   00000000   0x00009D3C         DC32     0x9d3c

   \                                 In section .text, align 4, keep-with-next
   \                     ??DataTable2_6:
   \   00000000   0xC0A63A0E         DC32     0xc0a63a0e

   \                                 In section .text, align 4, keep-with-next
   \                     ??DataTable2_7:
   \   00000000   0x00A63A0E         DC32     0xa63a0e

   \                                 In section .text, align 4, keep-with-next
   \                     ??DataTable2_8:
   \   00000000   0x00009D14         DC32     0x9d14

   \                                 In section .text, align 4, keep-with-next
   \                     ??DataTable2_9:
   \   00000000   0x00002004         DC32     0x2004
    133          
    134          //------------------------------------------------------------------------------
    135          
    136          /******************************************************
    137          **                  End Of File
    138          *******************************************************/

   Maximum stack usage in bytes:

   .cstack Function
   ------- --------
       60  FFT_power
               60 -> __aeabi_idiv
       20  ReadRegistratorData
     8208  SelfTest
             8208 -> CalibrTonOff
             8208 -> CalibrTonOn
             8208 -> FFT_power
             8208 -> ReadRegistratorData


   Section sizes:

   Bytes  Function/Label
   -----  --------------
       4  ??DataTable2
       4  ??DataTable2_1
       4  ??DataTable2_2
       4  ??DataTable2_3
       4  ??DataTable2_4
       4  ??DataTable2_5
       4  ??DataTable2_6
       4  ??DataTable2_7
       4  ??DataTable2_8
       4  ??DataTable2_9
     516  FFT_power
     100  ReadRegistratorData
     110  SelfTest
    2048  icos
    2048  isin

 
 4 096 bytes in section .data
   766 bytes in section .text
 
   766 bytes of CODE memory
 4 096 bytes of DATA memory

Errors: none
Warnings: none
