###############################################################################
#                                                                             #
# IAR ANSI C/C++ Compiler V6.40.2.53884/W32 for ARM     22/Mar/2023  18:48:12 #
# Copyright 1999-2012 IAR Systems AB.                                         #
#                                                                             #
#    Cpu mode     =  thumb                                                    #
#    Endian       =  little                                                   #
#    Source file  =  F:\Project\NT_1069\ajpp_titan_v5_2\ROM.c                 #
#    Command line =  F:\Project\NT_1069\ajpp_titan_v5_2\ROM.c -lCN            #
#                    F:\Project\NT_1069\ajpp_titan_v5_2\Debug\List\ -o        #
#                    F:\Project\NT_1069\ajpp_titan_v5_2\Debug\Obj\ --no_cse   #
#                    --no_unroll --no_inline --no_code_motion --no_tbaa       #
#                    --no_clustering --no_scheduling --debug --endian=little  #
#                    --cpu=Cortex-M0 -e --fpu=None --dlib_config "C:\Program  #
#                    Files (x86)\IAR Systems\Embedded Workbench               #
#                    6.4_2\arm\INC\c\DLib_Config_Normal.h" -Ol                #
#    List file    =  F:\Project\NT_1069\ajpp_titan_v5_2\Debug\List\ROM.lst    #
#    Object file  =  F:\Project\NT_1069\ajpp_titan_v5_2\Debug\Obj\ROM.o       #
#                                                                             #
#                                                                             #
###############################################################################

F:\Project\NT_1069\ajpp_titan_v5_2\ROM.c
      1          #include "MCU32.h"
      2          #include "AK.h"
      3          #include "wake.h"
      4          #include "stdlib.h"
      5          #include "math.h"
      6          #include "rom.h"

   \                                 In section .data, align 4
   \   __absolute int coff_ifa_rom[300]
   \                     coff_ifa_rom:
   \   00000000   0x00000000         DC32 0, 0, 0, 0, 0, 0, 0, 0, 0, 0, 0, 0, 0, 0, 0, 0, 0, 0, 0, 0, 0, 0
   \              0x00000000   
   \              0x00000000   
   \              0x00000000   
   \              0x00000000   
   \              0x00000000   
   \              0x00000000   
   \              0x00000000   
   \              0x00000000   
   \              0x00000000   
   \              0x00000000   
   \              0x00000000   
   \              0x00000000   
   \              0x00000000   
   \              0x00000000   
   \              0x00000000   
   \              0x00000000   
   \              0x00000000   
   \              0x00000000   
   \              0x00000000   
   \              0x00000000   
   \              0x00000000   
   \   00000058   0x00000000         DC32 0, 0, 0, 0, 0, 1, 1, 1, 2, 2, 2, 3, 3, 3, 4, 4, 0, 0, 0, 1, 1, 1
   \              0x00000000   
   \              0x00000000   
   \              0x00000000   
   \              0x00000000   
   \              0x00000001   
   \              0x00000001   
   \              0x00000001   
   \              0x00000002   
   \              0x00000002   
   \              0x00000002   
   \              0x00000003   
   \              0x00000003   
   \              0x00000003   
   \              0x00000004   
   \              0x00000004   
   \              0x00000000   
   \              0x00000000   
   \              0x00000000   
   \              0x00000001   
   \              0x00000001   
   \              0x00000001   
   \   000000B0   0x00000002         DC32 2, 2, 2, 3, 3, 3, 4, 4, 4, 5, 5, 5, 0, 0, 0, 1, 1, 1, 2, 2, 2, 3
   \              0x00000002   
   \              0x00000002   
   \              0x00000003   
   \              0x00000003   
   \              0x00000003   
   \              0x00000004   
   \              0x00000004   
   \              0x00000004   
   \              0x00000005   
   \              0x00000005   
   \              0x00000005   
   \              0x00000000   
   \              0x00000000   
   \              0x00000000   
   \              0x00000001   
   \              0x00000001   
   \              0x00000001   
   \              0x00000002   
   \              0x00000002   
   \              0x00000002   
   \              0x00000003   
   \   00000108   0x00000000         DC32 0, 0, 0, 1, 1, 1, 2, 2, 2, 3, 3, 3, 4, 4, 4, 5, 5, 5, 6, 6, 6, 7
   \              0x00000000   
   \              0x00000000   
   \              0x00000001   
   \              0x00000001   
   \              0x00000001   
   \              0x00000002   
   \              0x00000002   
   \              0x00000002   
   \              0x00000003   
   \              0x00000003   
   \              0x00000003   
   \              0x00000004   
   \              0x00000004   
   \              0x00000004   
   \              0x00000005   
   \              0x00000005   
   \              0x00000005   
   \              0x00000006   
   \              0x00000006   
   \              0x00000006   
   \              0x00000007   
   \   00000160   0x00000007         DC32 7, 8, 8, 8, 9, 9, 9, 10, 10, 10, 11, 11, 11, 12, 12, 12, 13, 13
   \              0x00000008   
   \              0x00000008   
   \              0x00000008   
   \              0x00000009   
   \              0x00000009   
   \              0x00000009   
   \              0x0000000A   
   \              0x0000000A   
   \              0x0000000A   
   \              0x0000000B   
   \              0x0000000B   
   \              0x0000000B   
   \              0x0000000C   
   \              0x0000000C   
   \              0x0000000C   
   \              0x0000000D   
   \              0x0000000D   
   \   000001A8   0x0000000D         DC32 13, 14, 14, 14, 15, 15, 15, 16, 16, 16, 17, 17, 17, 18, 18, 18, 19
   \              0x0000000E   
   \              0x0000000E   
   \              0x0000000E   
   \              0x0000000F   
   \              0x0000000F   
   \              0x0000000F   
   \              0x00000010   
   \              0x00000010   
   \              0x00000010   
   \              0x00000011   
   \              0x00000011   
   \              0x00000011   
   \              0x00000012   
   \              0x00000012   
   \              0x00000012   
   \              0x00000013   
   \   000001EC   0x00000013         DC32 19, 19, 20, 20, 21, 21, 21, 22, 22, 22, 23, 23, 23, 24, 24, 24, 25
   \              0x00000013   
   \              0x00000014   
   \              0x00000014   
   \              0x00000015   
   \              0x00000015   
   \              0x00000015   
   \              0x00000016   
   \              0x00000016   
   \              0x00000016   
   \              0x00000017   
   \              0x00000017   
   \              0x00000017   
   \              0x00000018   
   \              0x00000018   
   \              0x00000018   
   \              0x00000019   
   \   00000230   0x00000019         DC32 25, 25, 26, 26, 26, 27, 27, 27, 28, 28, 28, 29, 29, 29, 30, 30, 30
   \              0x00000019   
   \              0x0000001A   
   \              0x0000001A   
   \              0x0000001A   
   \              0x0000001B   
   \              0x0000001B   
   \              0x0000001B   
   \              0x0000001C   
   \              0x0000001C   
   \              0x0000001C   
   \              0x0000001D   
   \              0x0000001D   
   \              0x0000001D   
   \              0x0000001E   
   \              0x0000001E   
   \              0x0000001E   
   \   00000274   0x0000001F         DC32 31, 31, 31, 32, 32, 33, 33, 33, 34, 34, 34, 35, 35, 35, 36, 36, 36
   \              0x0000001F   
   \              0x0000001F   
   \              0x00000020   
   \              0x00000020   
   \              0x00000021   
   \              0x00000021   
   \              0x00000021   
   \              0x00000022   
   \              0x00000022   
   \              0x00000022   
   \              0x00000023   
   \              0x00000023   
   \              0x00000023   
   \              0x00000024   
   \              0x00000024   
   \              0x00000024   
   \   000002B8   0x00000025         DC32 37, 37, 37, 38, 38, 38, 39, 39, 39, 40, 40, 40, 41, 41, 41, 42, 42
   \              0x00000025   
   \              0x00000025   
   \              0x00000026   
   \              0x00000026   
   \              0x00000026   
   \              0x00000027   
   \              0x00000027   
   \              0x00000027   
   \              0x00000028   
   \              0x00000028   
   \              0x00000028   
   \              0x00000029   
   \              0x00000029   
   \              0x00000029   
   \              0x0000002A   
   \              0x0000002A   
   \   000002FC   0x0000002A         DC32 42, 43, 43, 43, 44, 44, 44, 45, 45, 46, 46, 46, 47, 47, 47, 48, 48
   \              0x0000002B   
   \              0x0000002B   
   \              0x0000002B   
   \              0x0000002C   
   \              0x0000002C   
   \              0x0000002C   
   \              0x0000002D   
   \              0x0000002D   
   \              0x0000002E   
   \              0x0000002E   
   \              0x0000002E   
   \              0x0000002F   
   \              0x0000002F   
   \              0x0000002F   
   \              0x00000030   
   \              0x00000030   
   \   00000340   0x00000030         DC32 48, 49, 49, 49, 50, 50, 50, 51, 51, 51, 52, 52, 52, 53, 53, 53, 54
   \              0x00000031   
   \              0x00000031   
   \              0x00000031   
   \              0x00000032   
   \              0x00000032   
   \              0x00000032   
   \              0x00000033   
   \              0x00000033   
   \              0x00000033   
   \              0x00000034   
   \              0x00000034   
   \              0x00000034   
   \              0x00000035   
   \              0x00000035   
   \              0x00000035   
   \              0x00000036   
   \   00000384   0x00000036         DC32 54, 54, 55, 55, 55, 56, 56, 56, 57, 57, 58, 58, 58, 59, 59, 59, 60
   \              0x00000036   
   \              0x00000037   
   \              0x00000037   
   \              0x00000037   
   \              0x00000038   
   \              0x00000038   
   \              0x00000038   
   \              0x00000039   
   \              0x00000039   
   \              0x0000003A   
   \              0x0000003A   
   \              0x0000003A   
   \              0x0000003B   
   \              0x0000003B   
   \              0x0000003B   
   \              0x0000003C   
   \   000003C8   0x0000003C         DC32 60, 60, 61, 61, 61, 62, 62, 62, 63, 63, 63, 63, 50, 51, 51, 51, 52
   \              0x0000003C   
   \              0x0000003D   
   \              0x0000003D   
   \              0x0000003D   
   \              0x0000003E   
   \              0x0000003E   
   \              0x0000003E   
   \              0x0000003F   
   \              0x0000003F   
   \              0x0000003F   
   \              0x0000003F   
   \              0x00000032   
   \              0x00000033   
   \              0x00000033   
   \              0x00000033   
   \              0x00000034   
   \   0000040C   0x00000034         DC32 52, 52, 53, 53, 53, 54, 54, 54, 55, 55, 55, 56, 56, 56, 57, 57, 58
   \              0x00000034   
   \              0x00000035   
   \              0x00000035   
   \              0x00000035   
   \              0x00000036   
   \              0x00000036   
   \              0x00000036   
   \              0x00000037   
   \              0x00000037   
   \              0x00000037   
   \              0x00000038   
   \              0x00000038   
   \              0x00000038   
   \              0x00000039   
   \              0x00000039   
   \              0x0000003A   
   \   00000450   0x0000003A         DC32 58, 58, 59, 59, 59, 60, 60, 60, 61, 61, 61, 62, 62, 62, 63, 63, 63
   \              0x0000003A   
   \              0x0000003B   
   \              0x0000003B   
   \              0x0000003B   
   \              0x0000003C   
   \              0x0000003C   
   \              0x0000003C   
   \              0x0000003D   
   \              0x0000003D   
   \              0x0000003D   
   \              0x0000003E   
   \              0x0000003E   
   \              0x0000003E   
   \              0x0000003F   
   \              0x0000003F   
   \              0x0000003F   
   \   00000494   0x0000003F         DC32 63, 63, 63, 63, 63, 63, 63
   \              0x0000003F   
   \              0x0000003F   
   \              0x0000003F   
   \              0x0000003F   
   \              0x0000003F   
   \              0x0000003F   
      7          
      8          

   \                                 In section .text, align 2, keep-with-next
      9          uint8_t rf_ifa_rom(int data){
   \                     rf_ifa_rom:
   \   00000000   0xB570             PUSH     {R4-R6,LR}
     10            int coff_ifa;
     11            int coff_rf;
     12          
     13            //coff_ifa = coff_ifa_rom; 
     14            
     15             if (data <= 37) coff_rf=0;
   \   00000002   0x2826             CMP      R0,#+38
   \   00000004   0xDA00             BGE      ??rf_ifa_rom_0
   \   00000006   0x2200             MOVS     R2,#+0
     16             if (data > 37 & data <= 55) coff_rf=1;
   \                     ??rf_ifa_rom_0:
   \   00000008   0x2826             CMP      R0,#+38
   \   0000000A   0xDB05             BLT      ??rf_ifa_rom_1
   \   0000000C   0x2201             MOVS     R2,#+1
   \   0000000E   0x2838             CMP      R0,#+56
   \   00000010   0xDA02             BGE      ??rf_ifa_rom_1
   \   00000012   0x07D2             LSLS     R2,R2,#+31
   \   00000014   0xD500             BPL      ??rf_ifa_rom_1
   \   00000016   0x2201             MOVS     R2,#+1
     17             if (data > 55 & data <= 65) coff_rf=2;
   \                     ??rf_ifa_rom_1:
   \   00000018   0x2838             CMP      R0,#+56
   \   0000001A   0xDB05             BLT      ??rf_ifa_rom_2
   \   0000001C   0x2201             MOVS     R2,#+1
   \   0000001E   0x2842             CMP      R0,#+66
   \   00000020   0xDA02             BGE      ??rf_ifa_rom_2
   \   00000022   0x07D2             LSLS     R2,R2,#+31
   \   00000024   0xD500             BPL      ??rf_ifa_rom_2
   \   00000026   0x2202             MOVS     R2,#+2
     18             if (data > 65) coff_rf=3;
   \                     ??rf_ifa_rom_2:
   \   00000028   0x2842             CMP      R0,#+66
   \   0000002A   0xDB00             BLT      ??rf_ifa_rom_3
   \   0000002C   0x2203             MOVS     R2,#+3
     19             
     20             if (data <= 26) coff_ifa=0;
   \                     ??rf_ifa_rom_3:
   \   0000002E   0x281B             CMP      R0,#+27
   \   00000030   0xDA00             BGE      ??rf_ifa_rom_4
   \   00000032   0x2100             MOVS     R1,#+0
     21             if (data > 27 & data <= 35) coff_ifa=2;
   \                     ??rf_ifa_rom_4:
   \   00000034   0x281C             CMP      R0,#+28
   \   00000036   0xDB05             BLT      ??rf_ifa_rom_5
   \   00000038   0x2201             MOVS     R2,#+1
   \   0000003A   0x2824             CMP      R0,#+36
   \   0000003C   0xDA02             BGE      ??rf_ifa_rom_5
   \   0000003E   0x07D2             LSLS     R2,R2,#+31
   \   00000040   0xD500             BPL      ??rf_ifa_rom_5
   \   00000042   0x2102             MOVS     R1,#+2
     22             if (data > 35 & data <= 52) coff_ifa=4;
   \                     ??rf_ifa_rom_5:
   \   00000044   0x2824             CMP      R0,#+36
   \   00000046   0xDB05             BLT      ??rf_ifa_rom_6
   \   00000048   0x2201             MOVS     R2,#+1
   \   0000004A   0x2835             CMP      R0,#+53
   \   0000004C   0xDA02             BGE      ??rf_ifa_rom_6
   \   0000004E   0x07D2             LSLS     R2,R2,#+31
   \   00000050   0xD500             BPL      ??rf_ifa_rom_6
   \   00000052   0x2104             MOVS     R1,#+4
     23             if (data > 52 & data <= 83) coff_ifa=5;
   \                     ??rf_ifa_rom_6:
   \   00000054   0x2835             CMP      R0,#+53
   \   00000056   0xDB05             BLT      ??rf_ifa_rom_7
   \   00000058   0x2201             MOVS     R2,#+1
   \   0000005A   0x2854             CMP      R0,#+84
   \   0000005C   0xDA02             BGE      ??rf_ifa_rom_7
   \   0000005E   0x07D2             LSLS     R2,R2,#+31
   \   00000060   0xD500             BPL      ??rf_ifa_rom_7
   \   00000062   0x2105             MOVS     R1,#+5
     24             if (data > 83 & data <= 94) coff_ifa=8;
   \                     ??rf_ifa_rom_7:
   \   00000064   0x2854             CMP      R0,#+84
   \   00000066   0xDB05             BLT      ??rf_ifa_rom_8
   \   00000068   0x2201             MOVS     R2,#+1
   \   0000006A   0x285F             CMP      R0,#+95
   \   0000006C   0xDA02             BGE      ??rf_ifa_rom_8
   \   0000006E   0x07D2             LSLS     R2,R2,#+31
   \   00000070   0xD500             BPL      ??rf_ifa_rom_8
   \   00000072   0x2108             MOVS     R1,#+8
     25             if (data > 94 & data <= 109) coff_ifa=12;
   \                     ??rf_ifa_rom_8:
   \   00000074   0x285F             CMP      R0,#+95
   \   00000076   0xDB05             BLT      ??rf_ifa_rom_9
   \   00000078   0x2201             MOVS     R2,#+1
   \   0000007A   0x286E             CMP      R0,#+110
   \   0000007C   0xDA02             BGE      ??rf_ifa_rom_9
   \   0000007E   0x07D2             LSLS     R2,R2,#+31
   \   00000080   0xD500             BPL      ??rf_ifa_rom_9
   \   00000082   0x210C             MOVS     R1,#+12
     26             
     27             if (data > 109 & data <= 124) coff_ifa=16;
   \                     ??rf_ifa_rom_9:
   \   00000084   0x286E             CMP      R0,#+110
   \   00000086   0xDB05             BLT      ??rf_ifa_rom_10
   \   00000088   0x2201             MOVS     R2,#+1
   \   0000008A   0x287D             CMP      R0,#+125
   \   0000008C   0xDA02             BGE      ??rf_ifa_rom_10
   \   0000008E   0x07D2             LSLS     R2,R2,#+31
   \   00000090   0xD500             BPL      ??rf_ifa_rom_10
   \   00000092   0x2110             MOVS     R1,#+16
     28             if (data > 124 & data <= 141) coff_ifa=23;
   \                     ??rf_ifa_rom_10:
   \   00000094   0x287D             CMP      R0,#+125
   \   00000096   0xDB05             BLT      ??rf_ifa_rom_11
   \   00000098   0x2201             MOVS     R2,#+1
   \   0000009A   0x288E             CMP      R0,#+142
   \   0000009C   0xDA02             BGE      ??rf_ifa_rom_11
   \   0000009E   0x07D2             LSLS     R2,R2,#+31
   \   000000A0   0xD500             BPL      ??rf_ifa_rom_11
   \   000000A2   0x2117             MOVS     R1,#+23
     29             if (data > 141 & data <= 156) coff_ifa=27;
   \                     ??rf_ifa_rom_11:
   \   000000A4   0x288E             CMP      R0,#+142
   \   000000A6   0xDB05             BLT      ??rf_ifa_rom_12
   \   000000A8   0x2201             MOVS     R2,#+1
   \   000000AA   0x289D             CMP      R0,#+157
   \   000000AC   0xDA02             BGE      ??rf_ifa_rom_12
   \   000000AE   0x07D2             LSLS     R2,R2,#+31
   \   000000B0   0xD500             BPL      ??rf_ifa_rom_12
   \   000000B2   0x211B             MOVS     R1,#+27
     30             if (data > 156 & data <= 170) coff_ifa=33;
   \                     ??rf_ifa_rom_12:
   \   000000B4   0x289D             CMP      R0,#+157
   \   000000B6   0xDB05             BLT      ??rf_ifa_rom_13
   \   000000B8   0x2201             MOVS     R2,#+1
   \   000000BA   0x28AB             CMP      R0,#+171
   \   000000BC   0xDA02             BGE      ??rf_ifa_rom_13
   \   000000BE   0x07D2             LSLS     R2,R2,#+31
   \   000000C0   0xD500             BPL      ??rf_ifa_rom_13
   \   000000C2   0x2121             MOVS     R1,#+33
     31             if (data > 170 & data <= 182) coff_ifa=37;
   \                     ??rf_ifa_rom_13:
   \   000000C4   0x28AB             CMP      R0,#+171
   \   000000C6   0xDB05             BLT      ??rf_ifa_rom_14
   \   000000C8   0x2201             MOVS     R2,#+1
   \   000000CA   0x28B7             CMP      R0,#+183
   \   000000CC   0xDA02             BGE      ??rf_ifa_rom_14
   \   000000CE   0x07D2             LSLS     R2,R2,#+31
   \   000000D0   0xD500             BPL      ??rf_ifa_rom_14
   \   000000D2   0x2125             MOVS     R1,#+37
     32             if (data > 182 & data <= 199) coff_ifa=43;
   \                     ??rf_ifa_rom_14:
   \   000000D4   0x28B7             CMP      R0,#+183
   \   000000D6   0xDB05             BLT      ??rf_ifa_rom_15
   \   000000D8   0x2201             MOVS     R2,#+1
   \   000000DA   0x28C8             CMP      R0,#+200
   \   000000DC   0xDA02             BGE      ??rf_ifa_rom_15
   \   000000DE   0x07D2             LSLS     R2,R2,#+31
   \   000000E0   0xD500             BPL      ??rf_ifa_rom_15
   \   000000E2   0x212B             MOVS     R1,#+43
     33             if (data > 199 & data <= 214) coff_ifa=47;
   \                     ??rf_ifa_rom_15:
   \   000000E4   0x28C8             CMP      R0,#+200
   \   000000E6   0xDB05             BLT      ??rf_ifa_rom_16
   \   000000E8   0x2201             MOVS     R2,#+1
   \   000000EA   0x28D7             CMP      R0,#+215
   \   000000EC   0xDA02             BGE      ??rf_ifa_rom_16
   \   000000EE   0x07D2             LSLS     R2,R2,#+31
   \   000000F0   0xD500             BPL      ??rf_ifa_rom_16
   \   000000F2   0x212F             MOVS     R1,#+47
     34             if (data > 214 & data <= 229) coff_ifa=53;
   \                     ??rf_ifa_rom_16:
   \   000000F4   0x28D7             CMP      R0,#+215
   \   000000F6   0xDB05             BLT      ??rf_ifa_rom_17
   \   000000F8   0x2201             MOVS     R2,#+1
   \   000000FA   0x28E6             CMP      R0,#+230
   \   000000FC   0xDA02             BGE      ??rf_ifa_rom_17
   \   000000FE   0x07D2             LSLS     R2,R2,#+31
   \   00000100   0xD500             BPL      ??rf_ifa_rom_17
   \   00000102   0x2135             MOVS     R1,#+53
     35             if (data > 229 & data <= 280) coff_ifa=57;
   \                     ??rf_ifa_rom_17:
   \   00000104   0x28E6             CMP      R0,#+230
   \   00000106   0xDB07             BLT      ??rf_ifa_rom_18
   \   00000108   0x2201             MOVS     R2,#+1
   \   0000010A   0x23FF             MOVS     R3,#+255
   \   0000010C   0x331A             ADDS     R3,R3,#+26       ;; #+281
   \   0000010E   0x4298             CMP      R0,R3
   \   00000110   0xDA02             BGE      ??rf_ifa_rom_18
   \   00000112   0x07D2             LSLS     R2,R2,#+31
   \   00000114   0xD500             BPL      ??rf_ifa_rom_18
   \   00000116   0x2139             MOVS     R1,#+57
     36             if (data > 280 & data <= 289) coff_ifa=61;
   \                     ??rf_ifa_rom_18:
   \   00000118   0x22FF             MOVS     R2,#+255
   \   0000011A   0x321A             ADDS     R2,R2,#+26       ;; #+281
   \   0000011C   0x4290             CMP      R0,R2
   \   0000011E   0xDB07             BLT      ??rf_ifa_rom_19
   \   00000120   0x2201             MOVS     R2,#+1
   \   00000122   0x2391             MOVS     R3,#+145
   \   00000124   0x005B             LSLS     R3,R3,#+1        ;; #+290
   \   00000126   0x4298             CMP      R0,R3
   \   00000128   0xDA02             BGE      ??rf_ifa_rom_19
   \   0000012A   0x07D2             LSLS     R2,R2,#+31
   \   0000012C   0xD500             BPL      ??rf_ifa_rom_19
   \   0000012E   0x213D             MOVS     R1,#+61
     37             if (data > 289 & data <= 299) coff_ifa=63;
   \                     ??rf_ifa_rom_19:
   \   00000130   0x2291             MOVS     R2,#+145
   \   00000132   0x0052             LSLS     R2,R2,#+1        ;; #+290
   \   00000134   0x4290             CMP      R0,R2
   \   00000136   0xDB07             BLT      ??rf_ifa_rom_20
   \   00000138   0x2201             MOVS     R2,#+1
   \   0000013A   0x2396             MOVS     R3,#+150
   \   0000013C   0x005B             LSLS     R3,R3,#+1        ;; #+300
   \   0000013E   0x4298             CMP      R0,R3
   \   00000140   0xDA02             BGE      ??rf_ifa_rom_20
   \   00000142   0x07D0             LSLS     R0,R2,#+31
   \   00000144   0xD500             BPL      ??rf_ifa_rom_20
   \   00000146   0x213F             MOVS     R1,#+63
     38          
     39          
     40             
     41            int a6 = coff_ifa & 0x1;
   \                     ??rf_ifa_rom_20:
   \   00000148   0x0008             MOVS     R0,R1
   \   0000014A   0x07C0             LSLS     R0,R0,#+31       ;; ZeroExtS R0,R0,#+31,#+31
   \   0000014C   0x0FC0             LSRS     R0,R0,#+31
     42            int a5 = (coff_ifa & 0x2) >>1;
   \   0000014E   0x000B             MOVS     R3,R1
   \   00000150   0x105B             ASRS     R3,R3,#+1
   \   00000152   0x001A             MOVS     R2,R3
   \   00000154   0x07D2             LSLS     R2,R2,#+31       ;; ZeroExtS R2,R2,#+31,#+31
   \   00000156   0x0FD2             LSRS     R2,R2,#+31
     43            int a4 = (coff_ifa & 0x4) >>2;
   \   00000158   0x000C             MOVS     R4,R1
   \   0000015A   0x10A4             ASRS     R4,R4,#+2
   \   0000015C   0x0023             MOVS     R3,R4
   \   0000015E   0x07DB             LSLS     R3,R3,#+31       ;; ZeroExtS R3,R3,#+31,#+31
   \   00000160   0x0FDB             LSRS     R3,R3,#+31
     44            int a3 = (coff_ifa & 0x8) >>3;
   \   00000162   0x000D             MOVS     R5,R1
   \   00000164   0x10ED             ASRS     R5,R5,#+3
   \   00000166   0x002C             MOVS     R4,R5
   \   00000168   0x07E4             LSLS     R4,R4,#+31       ;; ZeroExtS R4,R4,#+31,#+31
   \   0000016A   0x0FE4             LSRS     R4,R4,#+31
     45            int a2 = (coff_ifa & 0x10) >>4;
   \   0000016C   0x000E             MOVS     R6,R1
   \   0000016E   0x1136             ASRS     R6,R6,#+4
   \   00000170   0x0035             MOVS     R5,R6
   \   00000172   0x07ED             LSLS     R5,R5,#+31       ;; ZeroExtS R5,R5,#+31,#+31
   \   00000174   0x0FED             LSRS     R5,R5,#+31
     46            int a1 = (coff_ifa & 0x20) >>5;
   \   00000176   0x000E             MOVS     R6,R1
   \   00000178   0x1176             ASRS     R6,R6,#+5
   \   0000017A   0x0031             MOVS     R1,R6
   \   0000017C   0x07C9             LSLS     R1,R1,#+31       ;; ZeroExtS R1,R1,#+31,#+31
   \   0000017E   0x0FC9             LSRS     R1,R1,#+31
     47            
     48            int key_ifa = a4 | a5<<1 | a2<<2 | a1<<3 | a3<<4 | a6<<5;  
   \   00000180   0x0052             LSLS     R2,R2,#+1
   \   00000182   0x431A             ORRS     R2,R2,R3
   \   00000184   0x00AB             LSLS     R3,R5,#+2
   \   00000186   0x4313             ORRS     R3,R3,R2
   \   00000188   0x00C9             LSLS     R1,R1,#+3
   \   0000018A   0x4319             ORRS     R1,R1,R3
   \   0000018C   0x0122             LSLS     R2,R4,#+4
   \   0000018E   0x430A             ORRS     R2,R2,R1
   \   00000190   0x0140             LSLS     R0,R0,#+5
   \   00000192   0x4310             ORRS     R0,R0,R2
     49            
     50            
     51            return key_ifa | (0x3&(~coff_rf)<<2);
   \   00000194   0xB2C0             UXTB     R0,R0
   \   00000196   0xBD70             POP      {R4-R6,PC}       ;; return
     52          
     53          }
     54          
     55          
     56          
     57          

   Maximum stack usage in bytes:

   .cstack Function
   ------- --------
       16  rf_ifa_rom


   Section sizes:

   Bytes  Function/Label
   -----  --------------
    1200  coff_ifa_rom
     408  rf_ifa_rom

 
 1 200 bytes in section .data
   408 bytes in section .text
 
   408 bytes of CODE memory
 1 200 bytes of DATA memory

Errors: none
Warnings: none
