###############################################################################
#                                                                             #
# IAR ELF Linker V6.40.2.53884/W32 for ARM              31/Oct/2022  17:13:03 #
# Copyright 2007-2012 IAR Systems AB.                                         #
#                                                                             #
#    Output file  =  F:\Project\Titan_3\ajpp_titan_v3_V2_how_5v4_dop1\Debug\E #
#                    xe\c.out                                                 #
#    Map file     =  F:\Project\Titan_3\ajpp_titan_v3_V2_how_5v4_dop1\Debug\L #
#                    ist\c.map                                                #
#    Command line =  F:\Project\Titan_3\ajpp_titan_v3_V2_how_5v4_dop1\Debug\O #
#                    bj\AK.o F:\Project\Titan_3\ajpp_titan_v3_V2_how_5v4_dop1 #
#                    \Debug\Obj\InitHW.o F:\Project\Titan_3\ajpp_titan_v3_V2_ #
#                    how_5v4_dop1\Debug\Obj\SPI.o                             #
#                    F:\Project\Titan_3\ajpp_titan_v3_V2_how_5v4_dop1\Debug\O #
#                    bj\UART.o F:\Project\Titan_3\ajpp_titan_v3_V2_how_5v4_do #
#                    p1\Debug\Obj\isr.o F:\Project\Titan_3\ajpp_titan_v3_V2_h #
#                    ow_5v4_dop1\Debug\Obj\main.o                             #
#                    F:\Project\Titan_3\ajpp_titan_v3_V2_how_5v4_dop1\Debug\O #
#                    bj\selftest.o F:\Project\Titan_3\ajpp_titan_v3_V2_how_5v #
#                    4_dop1\Debug\Obj\vector_table_M.o -o                     #
#                    F:\Project\Titan_3\ajpp_titan_v3_V2_how_5v4_dop1\Debug\E #
#                    xe\c.out --redirect _Printf=_PrintfFull --redirect       #
#                    _Scanf=_ScanfFull --map F:\Project\Titan_3\ajpp_titan_v3 #
#                    _V2_how_5v4_dop1\Debug\List\c.map --config               #
#                    F:\Project\Titan_3\ajpp_titan_v3_V2_how_5v4\generic.icf  #
#                    --semihosting --entry __iar_program_start --vfe          #
#                                                                             #
#                                                                             #
###############################################################################

*******************************************************************************
*** MESSAGES
***


  place in RAM_region   { readonly, readwrite,
  ^
"F:\Project\Titan_3\ajpp_titan_v3_V2_how_5v4\generic.icf",44  Warning[Lp005]: 
          placement includes a mix of sections with content (example
          "ro data section .data_init in AK.o") and sections without content
          (example "rw data section .data in AK.o")

  place in RAM_region   { readonly, readwrite,
  ^
"F:\Project\Titan_3\ajpp_titan_v3_V2_how_5v4\generic.icf",44  Warning[Lp006]: 
          placement includes a mix of writable sections (example
          "rw data section .data in AK.o") and non-writable sections (example
          "ro data section .data_init in AK.o")


*******************************************************************************
*** RUNTIME MODEL ATTRIBUTES
***

CppFlavor       = *
__SystemLibrary = DLib


*******************************************************************************
*** PLACEMENT SUMMARY
***

"A1":  place at 0x00000000 { ro section .intvec };
"A2":  place at 0x00001000 { ro section .text };
"P1":  place in [from 0x00001000 to 0x0001ffff] {
          ro, rw, block CSTACK, block HEAP };

  Section            Kind        Address    Size  Object
  -------            ----        -------    ----  ------
"A1":                                       0x80
  .intvec            ro code  0x00000000    0x80  vector_table_M.o [1]
                            - 0x00000080    0x80

"A2":                                     0x1b74
  .text              ro code  0x00001000   0x34c  AK.o [1]
  .text              ro code  0x0000134c   0xa60  SPI.o [1]
  .text              ro code  0x00001dac    0xe4  InitHW.o [1]
  .text              ro code  0x00001e90   0x7c8  UART.o [1]
  .text              ro code  0x00002658    0x34  ABImemcpy.o [4]
  .text              ro code  0x0000268c   0x1c0  isr.o [1]
  .text              ro code  0x0000284c   0x224  main.o [1]
  .text              ro code  0x00002a70    0x16  cmain.o [4]
  .text              ro code  0x00002a86     0x4  low_level_init.o [3]
  .text              ro code  0x00002a8a     0x2  vector_table_M.o [1]
  .text              ro code  0x00002a8c    0x28  data_init3.o [4]
  .text              ro code  0x00002ab4     0x8  exit.o [3]
  .text              ro code  0x00002abc     0xa  cexit.o [4]
  .text              ro code  0x00002ac6     0x2  vector_table_M.o [1]
  .text              ro code  0x00002ac8    0x14  exit.o [5]
  .text              ro code  0x00002adc     0x0  vector_table_M.o [1]
  .text              ro code  0x00002adc     0x2  vector_table_M.o [1]
  .text              ro code  0x00002ade     0x2  vector_table_M.o [1]
  .text              ro code  0x00002ae0     0x2  vector_table_M.o [1]
  .text              ro code  0x00002ae2     0x2  vector_table_M.o [1]
  .text              ro code  0x00002ae4     0x2  vector_table_M.o [1]
  .text              ro code  0x00002ae6     0x2  vector_table_M.o [1]
  .text              ro code  0x00002ae8     0x2  vector_table_M.o [1]
  .text              ro code  0x00002aea     0x2  vector_table_M.o [1]
  .text              ro code  0x00002aec     0x2  vector_table_M.o [1]
  .text              ro code  0x00002aee     0x2  vector_table_M.o [1]
  .text              ro code  0x00002af0     0x2  vector_table_M.o [1]
  .text              ro code  0x00002af2     0x2  vector_table_M.o [1]
  .text              ro code  0x00002af4     0x2  vector_table_M.o [1]
  .text              ro code  0x00002af6     0x2  vector_table_M.o [1]
  .text              ro code  0x00002af8     0x2  vector_table_M.o [1]
  .text              ro code  0x00002afa     0x2  vector_table_M.o [1]
  .text              ro code  0x00002afc     0x2  vector_table_M.o [1]
  .text              ro code  0x00002afe     0x2  vector_table_M.o [1]
  .text              ro code  0x00002b00     0x2  vector_table_M.o [1]
  .text              ro code  0x00002b02     0x2  vector_table_M.o [1]
  .text              ro code  0x00002b04     0x2  vector_table_M.o [1]
  .text              ro code  0x00002b06     0x2  vector_table_M.o [1]
  .text              ro code  0x00002b08     0x2  vector_table_M.o [1]
  .text              ro code  0x00002b0a     0x2  vector_table_M.o [1]
  .text              ro code  0x00002b0c     0xc  cstartup_M.o [4]
  .text              ro code  0x00002b18    0x2a  zero_init3.o [4]
  .text              ro code  0x00002b42    0x30  copy_init3.o [4]
                            - 0x00002b72  0x1b72

"P1", part 1 of 2:                         0x394
  .iar.init_table    const    0x00002b74    0x24  - Linker created -
  .rodata            const    0x00002b98    0x10  UART.o [1]
  .rodata            const    0x00002ba8     0x0  zero_init3.o [4]
  .rodata            const    0x00002ba8     0x0  copy_init3.o [4]
  CSTACK                      0x00002ba8   0x200  <Block>
    CSTACK           uninit   0x00002ba8   0x200  <Block tail>
  P1 s0                       0x00002da8    0xb0  <Init block>
    .data            inited   0x00002da8    0x50  SPI.o [1]
    .data            inited   0x00002df8    0x50  SPI.o [1]
    .data            inited   0x00002e48     0xc  SPI.o [1]
    .data            inited   0x00002e54     0x1  AK.o [1]
    .data            inited   0x00002e55     0x1  AK.o [1]
    .data            inited   0x00002e56     0x1  AK.o [1]
  Initializer bytes  ro data  0x00002e58    0xb0  <for P1 s0>
                            - 0x00002f08   0x394

"P1", part 2 of 2:                         0x4fc
  .bss               zero     0x00002f08   0x280  UART.o [1]
  .bss               zero     0x00003188   0x114  UART.o [1]
  .bss               zero     0x0000329c   0x114  UART.o [1]
  .bss               zero     0x000033b0    0x10  UART.o [1]
  .bss               zero     0x000033c0     0x8  AK.o [1]
  .bss               zero     0x000033c8     0x8  AK.o [1]
  .bss               zero     0x000033d0     0x4  AK.o [1]
  .bss               zero     0x000033d4     0x4  AK.o [1]
  .bss               zero     0x000033d8     0x4  AK.o [1]
  .bss               zero     0x000033dc     0x4  UART.o [1]
  .bss               zero     0x000033e0     0x4  UART.o [1]
  .bss               zero     0x000033e4     0x4  UART.o [1]
  .bss               zero     0x000033e8     0x4  main.o [1]
  .bss               zero     0x000033ec     0x4  main.o [1]
  .bss               zero     0x000033f0     0x4  main.o [1]
  .bss               zero     0x000033f4     0x4  main.o [1]
  .bss               zero     0x000033f8     0x4  main.o [1]
  .bss               zero     0x000033fc     0x4  main.o [1]
  .bss               zero     0x00003400     0x2  AK.o [1]
  .bss               zero     0x00003402     0x1  SPI.o [1]
  .bss               zero     0x00003403     0x1  SPI.o [1]
                            - 0x00003404   0x4fc


*******************************************************************************
*** INIT TABLE
***

          Address     Size
          -------     ----
Zero (__iar_zero_init3)
    1 destination range, total size 0x4fc:
          0x00002f08  0x4fc

Copy (__iar_copy_init3)
    1 source range, total size 0xb0 (100% of destination):
          0x00002e58   0xb0
    1 destination range, total size 0xaf:
          0x00002da8   0xaf



*******************************************************************************
*** MODULE SUMMARY
***

    Module            ro code  ro data  rw data
    ------            -------  -------  -------
F:\Project\Titan_3\ajpp_titan_v3_V2_how_5v4_dop1\Debug\Obj: [1]
    AK.o                  844        3       33
    InitHW.o              228
    SPI.o               2 656      172      174
    UART.o              1 992       16    1 220
    isr.o                 448
    main.o                548                24
    vector_table_M.o      180
    -------------------------------------------
    Total:              6 896      191    1 451

command line: [2]
    -------------------------------------------
    Total:

dl6M_tln.a: [3]
    exit.o                  8
    low_level_init.o        4
    -------------------------------------------
    Total:                 12

rt6M_tl.a: [4]
    ABImemcpy.o            52
    cexit.o                10
    cmain.o                22
    copy_init3.o           48
    cstartup_M.o           12
    data_init3.o           40
    zero_init3.o           42
    -------------------------------------------
    Total:                226

shb_l.a: [5]
    exit.o                 20
    -------------------------------------------
    Total:                 20

    Linker created                  37      512
-----------------------------------------------
    Grand Total:        7 154      228    1 963


*******************************************************************************
*** ENTRY LIST
***

Entry                     Address   Size  Type      Object
-----                     -------   ----  ----      ------
?main                  0x00002a71         Code  Gb  cmain.o [4]
AK_off_timer           0x000033fc    0x4  Data  Gb  main.o [1]
ATT_level              0x000033d8    0x4  Data  Gb  AK.o [1]
ATT_level0             0x00002e56    0x1  Data  Gb  AK.o [1]
BusFault_Handler       0x00002adf         Code  Wk  vector_table_M.o [1]
CPU_InitTick           0x00001def   0x14  Code  Gb  InitHW.o [1]
CSTACK$$Base           0x00002ba8          --   Gb  - Linker created -
CSTACK$$Limit          0x00002da8          --   Gb  - Linker created -
CalcRxWakeCRC          0x000025fd   0x5c  Code  Gb  UART.o [1]
CheckRegistratorConst  0x00001073   0xfa  Code  Gb  AK.o [1]
DMA1_Stream0_IRQHandler
                       0x00002aeb         Code  Wk  vector_table_M.o [1]
DMA1_Stream1_IRQHandler
                       0x00002aed         Code  Wk  vector_table_M.o [1]
DebugMon_Handler       0x00002ae5         Code  Wk  vector_table_M.o [1]
EXTI0_IRQHandler       0x00002afd         Code  Wk  vector_table_M.o [1]
EXTI1_IRQHandler       0x00002aff         Code  Wk  vector_table_M.o [1]
EXTI2_IRQHandler       0x00002b01         Code  Wk  vector_table_M.o [1]
EXTI3_IRQHandler       0x00002b03         Code  Wk  vector_table_M.o [1]
EXTI4_IRQHandler       0x00002b05         Code  Wk  vector_table_M.o [1]
EXTI5_IRQHandler       0x00002b07         Code  Wk  vector_table_M.o [1]
EXTI6_IRQHandler       0x00002b09         Code  Wk  vector_table_M.o [1]
EXTI7_IRQHandler       0x00002b0b         Code  Wk  vector_table_M.o [1]
FlashBlock32Erase      0x00001b6d   0x2c  Code  Gb  SPI.o [1]
FlashStatusRegRead     0x00001ad9   0x2a  Code  Gb  SPI.o [1]
FlashUnprotectSector   0x00001ba1   0x2c  Code  Gb  SPI.o [1]
FlashWaitNotBusy       0x00001b19    0xc  Code  Gb  SPI.o [1]
FlashWriteEnable       0x00001b25   0x20  Code  Gb  SPI.o [1]
GetCRCWake             0x00002571   0x30  Code  Gb  UART.o [1]
HSI_Init               0x00001e03   0x2c  Code  Gb  InitHW.o [1]
HW_Init                0x00001dad   0x42  Code  Gb  InitHW.o [1]
HardFault_Handler      0x00002ac7         Code  Wk  vector_table_M.o [1]
IFA_AGC_level          0x00002e55    0x1  Data  Gb  AK.o [1]
InitSPI                0x0000134d   0x20  Code  Gb  SPI.o [1]
InitUART               0x00001e91   0x3e  Code  Gb  UART.o [1]
MemManage_Handler      0x00002add         Code  Wk  vector_table_M.o [1]
NMI_Handler            0x00002a8b         Code  Wk  vector_table_M.o [1]
PendSV_Handler         0x00002ae7         Code  Wk  vector_table_M.o [1]
RESTART                0x00001e41   0x10  Code  Gb  InitHW.o [1]
RF_AGC                 0x00001185  0x196  Code  Gb  AK.o [1]
RF_AGC_level           0x00002e54    0x1  Data  Gb  AK.o [1]
ReadFromADC            0x000014ad   0x38  Code  Gb  SPI.o [1]
ReadFromMIX            0x00001635   0x30  Code  Gb  SPI.o [1]
ReadFromMPLL           0x00001879   0x4e  Code  Gb  SPI.o [1]
ReadFromMPLL_OM        0x00001691   0x70  Code  Gb  SPI.o [1]
Region$$Table$$Base    0x00002b74          --   Gb  - Linker created -
Region$$Table$$Limit   0x00002b98          --   Gb  - Linker created -
RxWakeTimer            0x000033e8    0x4  Data  Gb  main.o [1]
SPI1_IRQHandler        0x00002af9         Code  Wk  vector_table_M.o [1]
SPI2_IRQHandler        0x00002afb         Code  Wk  vector_table_M.o [1]
SVC_Handler            0x00002ae3         Code  Wk  vector_table_M.o [1]
SysTickFlg             0x000033ec    0x4  Data  Gb  main.o [1]
SysTick_Handler        0x00002817    0x8  Code  Gb  isr.o [1]
TIM1_IRQHandler        0x00002aef         Code  Wk  vector_table_M.o [1]
TIM2_IRQHandler        0x00002af1         Code  Wk  vector_table_M.o [1]
USART1_IRQHandler      0x0000268d  0x18a  Code  Gb  isr.o [1]
USART2_IRQHandler      0x00002af5         Code  Wk  vector_table_M.o [1]
USART3_IRQHandler      0x00002af7         Code  Wk  vector_table_M.o [1]
UsageFault_Handler     0x00002ae1         Code  Wk  vector_table_M.o [1]
WakeReadInit           0x000025a1   0x46  Code  Gb  UART.o [1]
WakeTxStart            0x0000241d  0x10e  Code  Gb  UART.o [1]
WriteToADC             0x000014e5   0x4a  Code  Gb  SPI.o [1]
WriteToMIX             0x00001669   0x20  Code  Gb  SPI.o [1]
WriteToMPLL            0x000018c7   0x3c  Code  Gb  SPI.o [1]
WriteToMPLL_OM         0x00001701   0x3a  Code  Gb  SPI.o [1]
__aeabi_memcpy4        0x00002659         Code  Gb  ABImemcpy.o [4]
__aeabi_memcpy8        0x00002659         Code  Gb  ABImemcpy.o [4]
__cmain                0x00002a71         Code  Gb  cmain.o [4]
__exit                 0x00002ac9   0x14  Code  Gb  exit.o [5]
__iar_copy_init3       0x00002b43   0x30  Code  Gb  copy_init3.o [4]
__iar_data_init3       0x00002a8d   0x28  Code  Gb  data_init3.o [4]
__iar_program_start    0x00002b0d         Code  Gb  cstartup_M.o [4]
__iar_zero_init3       0x00002b19   0x2a  Code  Gb  zero_init3.o [4]
__low_level_init       0x00002a87    0x4  Code  Gb  low_level_init.o [3]
__vector_table         0x00000000         Data  Gb  vector_table_M.o [1]
_call_main             0x00002a7d         Code  Gb  cmain.o [4]
_exit                  0x00002abd         Code  Gb  cexit.o [4]
_main                  0x00002a83         Code  Gb  cmain.o [4]
asc_host               0x00001ee1  0x51e  Code  Gb  UART.o [1]
change_main_clock      0x00001e2f   0x12  Code  Gb  InitHW.o [1]
conf_RFIC_L1_GLO_1590  0x00002da8   0x50  Data  Gb  SPI.o [1]
conf_RFIC_L1_GPS_1590  0x00002df8   0x50  Data  Gb  SPI.o [1]
dmix                   0x00002e48    0xc  Data  Gb  SPI.o [1]
exit                   0x00002ab5    0x8  Code  Gb  exit.o [3]
ifa_agc_lev            0x000033c8    0x8  Data  Gb  AK.o [1]
inf_buf                0x000033b0   0x10  Data  Gb  UART.o [1]
initAK                 0x00001001   0x72  Code  Gb  AK.o [1]
initMPLL_open_mode     0x00001749  0x122  Code  Gb  SPI.o [1]
init_ADC               0x00001549   0x68  Code  Gb  SPI.o [1]
init_MPLL              0x0000193d  0x196  Code  Gb  SPI.o [1]
init_RFIC              0x000013d3   0xda  Code  Gb  SPI.o [1]
main                   0x0000284d  0x224  Code  Gb  main.o [1]
prog_cntrl             0x000033f8    0x4  Data  Gb  main.o [1]
prog_status            0x000033f4    0x4  Data  Gb  main.o [1]
rd_RFIC                0x0000139b   0x38  Code  Gb  SPI.o [1]
rf_agc_lev             0x000033c0    0x8  Data  Gb  AK.o [1]
sys_tics               0x000033f0    0x4  Data  Gb  main.o [1]
trim_ADC               0x000015b1   0x84  Code  Gb  SPI.o [1]
trim_adc1              0x00003402    0x1  Data  Gb  SPI.o [1]
trim_adc2              0x00003403    0x1  Data  Gb  SPI.o [1]
trimming_err           0x000033d4    0x4  Data  Gb  AK.o [1]
trimming_pause         0x00003400    0x2  Data  Gb  AK.o [1]
trimming_step          0x000033d0    0x4  Data  Gb  AK.o [1]
uart1_tx_buf           0x00002f08  0x280  Data  Gb  UART.o [1]
uart1_tx_buf_len       0x000033e4    0x4  Data  Gb  UART.o [1]
uart1_tx_buf_rd_ptr    0x000033e0    0x4  Data  Gb  UART.o [1]
uart1_tx_buf_wr_ptr    0x000033dc    0x4  Data  Gb  UART.o [1]
wake_UART_1_rx         0x00003188  0x114  Data  Gb  UART.o [1]
wake_UART_1_tx         0x0000329c  0x114  Data  Gb  UART.o [1]
wake_wr_tx_buf         0x00002531   0x3c  Code  Gb  UART.o [1]
wr_RFIC                0x0000136d   0x2e  Code  Gb  SPI.o [1]
write_flash_image      0x00001be1  0x1a2  Code  Gb  SPI.o [1]


[1] = F:\Project\Titan_3\ajpp_titan_v3_V2_how_5v4_dop1\Debug\Obj
[2] = command line
[3] = dl6M_tln.a
[4] = rt6M_tl.a
[5] = shb_l.a

  7 154 bytes of readonly  code memory
    228 bytes of readonly  data memory
  1 963 bytes of readwrite data memory

Errors: none
Warnings: 2
