###############################################################################
#                                                                             #
# IAR ELF Linker V6.40.2.53884/W32 for ARM              20/Oct/2022  14:15:03 #
# Copyright 2007-2012 IAR Systems AB.                                         #
#                                                                             #
#    Output file  =  F:\Project\Titan_3\ajpp_titan_v3_V2_how_5v4_dop\Debug\Ex #
#                    e\c.out                                                  #
#    Map file     =  F:\Project\Titan_3\ajpp_titan_v3_V2_how_5v4_dop\Debug\Li #
#                    st\c.map                                                 #
#    Command line =  F:\Project\Titan_3\ajpp_titan_v3_V2_how_5v4_dop\Debug\Ob #
#                    j\AK.o F:\Project\Titan_3\ajpp_titan_v3_V2_how_5v4_dop\D #
#                    ebug\Obj\InitHW.o F:\Project\Titan_3\ajpp_titan_v3_V2_ho #
#                    w_5v4_dop\Debug\Obj\SPI.o F:\Project\Titan_3\ajpp_titan_ #
#                    v3_V2_how_5v4_dop\Debug\Obj\UART.o                       #
#                    F:\Project\Titan_3\ajpp_titan_v3_V2_how_5v4_dop\Debug\Ob #
#                    j\isr.o F:\Project\Titan_3\ajpp_titan_v3_V2_how_5v4_dop\ #
#                    Debug\Obj\main.o F:\Project\Titan_3\ajpp_titan_v3_V2_how #
#                    _5v4_dop\Debug\Obj\selftest.o                            #
#                    F:\Project\Titan_3\ajpp_titan_v3_V2_how_5v4_dop\Debug\Ob #
#                    j\vector_table_M.o -o F:\Project\Titan_3\ajpp_titan_v3_V #
#                    2_how_5v4_dop\Debug\Exe\c.out --redirect                 #
#                    _Printf=_PrintfFull --redirect _Scanf=_ScanfFull --map   #
#                    F:\Project\Titan_3\ajpp_titan_v3_V2_how_5v4_dop\Debug\Li #
#                    st\c.map --config F:\Project\Titan_3\ajpp_titan_v3_V2_ho #
#                    w_5v4\generic.icf --semihosting --entry                  #
#                    __iar_program_start --vfe                                #
#                                                                             #
#                                                                             #
###############################################################################

*******************************************************************************
*** MESSAGES
***


  place in RAM_region   { readonly, readwrite,
  ^
"F:\Project\Titan_3\ajpp_titan_v3_V2_how_5v4\generic.icf",44  Warning[Lp005]: 
          placement includes a mix of sections with content (example
          "ro data section .data_init in AK.o") and sections without content
          (example "rw data section .data in AK.o")

  place in RAM_region   { readonly, readwrite,
  ^
"F:\Project\Titan_3\ajpp_titan_v3_V2_how_5v4\generic.icf",44  Warning[Lp006]: 
          placement includes a mix of writable sections (example
          "rw data section .data in AK.o") and non-writable sections (example
          "ro data section .data_init in AK.o")


*******************************************************************************
*** RUNTIME MODEL ATTRIBUTES
***

CppFlavor       = *
__SystemLibrary = DLib


*******************************************************************************
*** PLACEMENT SUMMARY
***

"A1":  place at 0x00000000 { ro section .intvec };
"A2":  place at 0x00001000 { ro section .text };
"P1":  place in [from 0x00001000 to 0x0001ffff] {
          ro, rw, block CSTACK, block HEAP };

  Section            Kind        Address    Size  Object
  -------            ----        -------    ----  ------
"A1":                                       0x80
  .intvec            ro code  0x00000000    0x80  vector_table_M.o [1]
                            - 0x00000080    0x80

"A2":                                     0x1b98
  .text              ro code  0x00001000   0x370  AK.o [1]
  .text              ro code  0x00001370   0xa60  SPI.o [1]
  .text              ro code  0x00001dd0    0xe4  InitHW.o [1]
  .text              ro code  0x00001eb4   0x7c8  UART.o [1]
  .text              ro code  0x0000267c    0x34  ABImemcpy.o [4]
  .text              ro code  0x000026b0   0x1c0  isr.o [1]
  .text              ro code  0x00002870   0x224  main.o [1]
  .text              ro code  0x00002a94    0x16  cmain.o [4]
  .text              ro code  0x00002aaa     0x4  low_level_init.o [3]
  .text              ro code  0x00002aae     0x2  vector_table_M.o [1]
  .text              ro code  0x00002ab0    0x28  data_init3.o [4]
  .text              ro code  0x00002ad8     0x8  exit.o [3]
  .text              ro code  0x00002ae0     0xa  cexit.o [4]
  .text              ro code  0x00002aea     0x2  vector_table_M.o [1]
  .text              ro code  0x00002aec    0x14  exit.o [5]
  .text              ro code  0x00002b00     0x0  vector_table_M.o [1]
  .text              ro code  0x00002b00     0x2  vector_table_M.o [1]
  .text              ro code  0x00002b02     0x2  vector_table_M.o [1]
  .text              ro code  0x00002b04     0x2  vector_table_M.o [1]
  .text              ro code  0x00002b06     0x2  vector_table_M.o [1]
  .text              ro code  0x00002b08     0x2  vector_table_M.o [1]
  .text              ro code  0x00002b0a     0x2  vector_table_M.o [1]
  .text              ro code  0x00002b0c     0x2  vector_table_M.o [1]
  .text              ro code  0x00002b0e     0x2  vector_table_M.o [1]
  .text              ro code  0x00002b10     0x2  vector_table_M.o [1]
  .text              ro code  0x00002b12     0x2  vector_table_M.o [1]
  .text              ro code  0x00002b14     0x2  vector_table_M.o [1]
  .text              ro code  0x00002b16     0x2  vector_table_M.o [1]
  .text              ro code  0x00002b18     0x2  vector_table_M.o [1]
  .text              ro code  0x00002b1a     0x2  vector_table_M.o [1]
  .text              ro code  0x00002b1c     0x2  vector_table_M.o [1]
  .text              ro code  0x00002b1e     0x2  vector_table_M.o [1]
  .text              ro code  0x00002b20     0x2  vector_table_M.o [1]
  .text              ro code  0x00002b22     0x2  vector_table_M.o [1]
  .text              ro code  0x00002b24     0x2  vector_table_M.o [1]
  .text              ro code  0x00002b26     0x2  vector_table_M.o [1]
  .text              ro code  0x00002b28     0x2  vector_table_M.o [1]
  .text              ro code  0x00002b2a     0x2  vector_table_M.o [1]
  .text              ro code  0x00002b2c     0x2  vector_table_M.o [1]
  .text              ro code  0x00002b2e     0x2  vector_table_M.o [1]
  .text              ro code  0x00002b30     0xc  cstartup_M.o [4]
  .text              ro code  0x00002b3c    0x2a  zero_init3.o [4]
  .text              ro code  0x00002b66    0x30  copy_init3.o [4]
                            - 0x00002b96  0x1b96

"P1", part 1 of 2:                         0x398
  .iar.init_table    const    0x00002b98    0x24  - Linker created -
  .rodata            const    0x00002bbc    0x10  UART.o [1]
  .rodata            const    0x00002bcc     0x0  zero_init3.o [4]
  .rodata            const    0x00002bcc     0x0  copy_init3.o [4]
  CSTACK                      0x00002bd0   0x200  <Block>
    CSTACK           uninit   0x00002bd0   0x200  <Block tail>
  P1 s0                       0x00002dd0    0xb0  <Init block>
    .data            inited   0x00002dd0    0x50  SPI.o [1]
    .data            inited   0x00002e20    0x50  SPI.o [1]
    .data            inited   0x00002e70     0xc  SPI.o [1]
    .data            inited   0x00002e7c     0x1  AK.o [1]
    .data            inited   0x00002e7d     0x1  AK.o [1]
    .data            inited   0x00002e7e     0x1  AK.o [1]
  Initializer bytes  ro data  0x00002e80    0xb0  <for P1 s0>
                            - 0x00002f30   0x398

"P1", part 2 of 2:                         0x4fc
  .bss               zero     0x00002f30   0x280  UART.o [1]
  .bss               zero     0x000031b0   0x114  UART.o [1]
  .bss               zero     0x000032c4   0x114  UART.o [1]
  .bss               zero     0x000033d8    0x10  UART.o [1]
  .bss               zero     0x000033e8     0x8  AK.o [1]
  .bss               zero     0x000033f0     0x8  AK.o [1]
  .bss               zero     0x000033f8     0x4  AK.o [1]
  .bss               zero     0x000033fc     0x4  AK.o [1]
  .bss               zero     0x00003400     0x4  AK.o [1]
  .bss               zero     0x00003404     0x4  UART.o [1]
  .bss               zero     0x00003408     0x4  UART.o [1]
  .bss               zero     0x0000340c     0x4  UART.o [1]
  .bss               zero     0x00003410     0x4  main.o [1]
  .bss               zero     0x00003414     0x4  main.o [1]
  .bss               zero     0x00003418     0x4  main.o [1]
  .bss               zero     0x0000341c     0x4  main.o [1]
  .bss               zero     0x00003420     0x4  main.o [1]
  .bss               zero     0x00003424     0x4  main.o [1]
  .bss               zero     0x00003428     0x2  AK.o [1]
  .bss               zero     0x0000342a     0x1  SPI.o [1]
  .bss               zero     0x0000342b     0x1  SPI.o [1]
                            - 0x0000342c   0x4fc


*******************************************************************************
*** INIT TABLE
***

          Address     Size
          -------     ----
Zero (__iar_zero_init3)
    1 destination range, total size 0x4fc:
          0x00002f30  0x4fc

Copy (__iar_copy_init3)
    1 source range, total size 0xb0 (100% of destination):
          0x00002e80   0xb0
    1 destination range, total size 0xaf:
          0x00002dd0   0xaf



*******************************************************************************
*** MODULE SUMMARY
***

    Module            ro code  ro data  rw data
    ------            -------  -------  -------
F:\Project\Titan_3\ajpp_titan_v3_V2_how_5v4_dop\Debug\Obj: [1]
    AK.o                  880        3       33
    InitHW.o              228
    SPI.o               2 656      172      174
    UART.o              1 992       16    1 220
    isr.o                 448
    main.o                548                24
    vector_table_M.o      180
    -------------------------------------------
    Total:              6 932      191    1 451

command line: [2]
    -------------------------------------------
    Total:

dl6M_tln.a: [3]
    exit.o                  8
    low_level_init.o        4
    -------------------------------------------
    Total:                 12

rt6M_tl.a: [4]
    ABImemcpy.o            52
    cexit.o                10
    cmain.o                22
    copy_init3.o           48
    cstartup_M.o           12
    data_init3.o           40
    zero_init3.o           42
    -------------------------------------------
    Total:                226

shb_l.a: [5]
    exit.o                 20
    -------------------------------------------
    Total:                 20

    Linker created                  37      512
-----------------------------------------------
    Grand Total:        7 190      228    1 963


*******************************************************************************
*** ENTRY LIST
***

Entry                     Address   Size  Type      Object
-----                     -------   ----  ----      ------
?main                  0x00002a95         Code  Gb  cmain.o [4]
AK_off_timer           0x00003424    0x4  Data  Gb  main.o [1]
ATT_level              0x00003400    0x4  Data  Gb  AK.o [1]
ATT_level0             0x00002e7e    0x1  Data  Gb  AK.o [1]
BusFault_Handler       0x00002b03         Code  Wk  vector_table_M.o [1]
CPU_InitTick           0x00001e13   0x14  Code  Gb  InitHW.o [1]
CSTACK$$Base           0x00002bd0          --   Gb  - Linker created -
CSTACK$$Limit          0x00002dd0          --   Gb  - Linker created -
CalcRxWakeCRC          0x00002621   0x5c  Code  Gb  UART.o [1]
CheckRegistratorConst  0x00001073   0xfa  Code  Gb  AK.o [1]
DMA1_Stream0_IRQHandler
                       0x00002b0f         Code  Wk  vector_table_M.o [1]
DMA1_Stream1_IRQHandler
                       0x00002b11         Code  Wk  vector_table_M.o [1]
DebugMon_Handler       0x00002b09         Code  Wk  vector_table_M.o [1]
EXTI0_IRQHandler       0x00002b21         Code  Wk  vector_table_M.o [1]
EXTI1_IRQHandler       0x00002b23         Code  Wk  vector_table_M.o [1]
EXTI2_IRQHandler       0x00002b25         Code  Wk  vector_table_M.o [1]
EXTI3_IRQHandler       0x00002b27         Code  Wk  vector_table_M.o [1]
EXTI4_IRQHandler       0x00002b29         Code  Wk  vector_table_M.o [1]
EXTI5_IRQHandler       0x00002b2b         Code  Wk  vector_table_M.o [1]
EXTI6_IRQHandler       0x00002b2d         Code  Wk  vector_table_M.o [1]
EXTI7_IRQHandler       0x00002b2f         Code  Wk  vector_table_M.o [1]
FlashBlock32Erase      0x00001b91   0x2c  Code  Gb  SPI.o [1]
FlashStatusRegRead     0x00001afd   0x2a  Code  Gb  SPI.o [1]
FlashUnprotectSector   0x00001bc5   0x2c  Code  Gb  SPI.o [1]
FlashWaitNotBusy       0x00001b3d    0xc  Code  Gb  SPI.o [1]
FlashWriteEnable       0x00001b49   0x20  Code  Gb  SPI.o [1]
GetCRCWake             0x00002595   0x30  Code  Gb  UART.o [1]
HSI_Init               0x00001e27   0x2c  Code  Gb  InitHW.o [1]
HW_Init                0x00001dd1   0x42  Code  Gb  InitHW.o [1]
HardFault_Handler      0x00002aeb         Code  Wk  vector_table_M.o [1]
IFA_AGC_level          0x00002e7d    0x1  Data  Gb  AK.o [1]
InitSPI                0x00001371   0x20  Code  Gb  SPI.o [1]
InitUART               0x00001eb5   0x3e  Code  Gb  UART.o [1]
MemManage_Handler      0x00002b01         Code  Wk  vector_table_M.o [1]
NMI_Handler            0x00002aaf         Code  Wk  vector_table_M.o [1]
PendSV_Handler         0x00002b0b         Code  Wk  vector_table_M.o [1]
RESTART                0x00001e65   0x10  Code  Gb  InitHW.o [1]
RF_AGC                 0x0000118d  0x1ba  Code  Gb  AK.o [1]
RF_AGC_level           0x00002e7c    0x1  Data  Gb  AK.o [1]
ReadFromADC            0x000014d1   0x38  Code  Gb  SPI.o [1]
ReadFromMIX            0x00001659   0x30  Code  Gb  SPI.o [1]
ReadFromMPLL           0x0000189d   0x4e  Code  Gb  SPI.o [1]
ReadFromMPLL_OM        0x000016b5   0x70  Code  Gb  SPI.o [1]
Region$$Table$$Base    0x00002b98          --   Gb  - Linker created -
Region$$Table$$Limit   0x00002bbc          --   Gb  - Linker created -
RxWakeTimer            0x00003410    0x4  Data  Gb  main.o [1]
SPI1_IRQHandler        0x00002b1d         Code  Wk  vector_table_M.o [1]
SPI2_IRQHandler        0x00002b1f         Code  Wk  vector_table_M.o [1]
SVC_Handler            0x00002b07         Code  Wk  vector_table_M.o [1]
SysTickFlg             0x00003414    0x4  Data  Gb  main.o [1]
SysTick_Handler        0x0000283b    0x8  Code  Gb  isr.o [1]
TIM1_IRQHandler        0x00002b13         Code  Wk  vector_table_M.o [1]
TIM2_IRQHandler        0x00002b15         Code  Wk  vector_table_M.o [1]
USART1_IRQHandler      0x000026b1  0x18a  Code  Gb  isr.o [1]
USART2_IRQHandler      0x00002b19         Code  Wk  vector_table_M.o [1]
USART3_IRQHandler      0x00002b1b         Code  Wk  vector_table_M.o [1]
UsageFault_Handler     0x00002b05         Code  Wk  vector_table_M.o [1]
WakeReadInit           0x000025c5   0x46  Code  Gb  UART.o [1]
WakeTxStart            0x00002441  0x10e  Code  Gb  UART.o [1]
WriteToADC             0x00001509   0x4a  Code  Gb  SPI.o [1]
WriteToMIX             0x0000168d   0x20  Code  Gb  SPI.o [1]
WriteToMPLL            0x000018eb   0x3c  Code  Gb  SPI.o [1]
WriteToMPLL_OM         0x00001725   0x3a  Code  Gb  SPI.o [1]
__aeabi_memcpy4        0x0000267d         Code  Gb  ABImemcpy.o [4]
__aeabi_memcpy8        0x0000267d         Code  Gb  ABImemcpy.o [4]
__cmain                0x00002a95         Code  Gb  cmain.o [4]
__exit                 0x00002aed   0x14  Code  Gb  exit.o [5]
__iar_copy_init3       0x00002b67   0x30  Code  Gb  copy_init3.o [4]
__iar_data_init3       0x00002ab1   0x28  Code  Gb  data_init3.o [4]
__iar_program_start    0x00002b31         Code  Gb  cstartup_M.o [4]
__iar_zero_init3       0x00002b3d   0x2a  Code  Gb  zero_init3.o [4]
__low_level_init       0x00002aab    0x4  Code  Gb  low_level_init.o [3]
__vector_table         0x00000000         Data  Gb  vector_table_M.o [1]
_call_main             0x00002aa1         Code  Gb  cmain.o [4]
_exit                  0x00002ae1         Code  Gb  cexit.o [4]
_main                  0x00002aa7         Code  Gb  cmain.o [4]
asc_host               0x00001f05  0x51e  Code  Gb  UART.o [1]
change_main_clock      0x00001e53   0x12  Code  Gb  InitHW.o [1]
conf_RFIC_L1_GLO_1590  0x00002dd0   0x50  Data  Gb  SPI.o [1]
conf_RFIC_L1_GPS_1590  0x00002e20   0x50  Data  Gb  SPI.o [1]
dmix                   0x00002e70    0xc  Data  Gb  SPI.o [1]
exit                   0x00002ad9    0x8  Code  Gb  exit.o [3]
ifa_agc_lev            0x000033f0    0x8  Data  Gb  AK.o [1]
inf_buf                0x000033d8   0x10  Data  Gb  UART.o [1]
initAK                 0x00001001   0x72  Code  Gb  AK.o [1]
initMPLL_open_mode     0x0000176d  0x122  Code  Gb  SPI.o [1]
init_ADC               0x0000156d   0x68  Code  Gb  SPI.o [1]
init_MPLL              0x00001961  0x196  Code  Gb  SPI.o [1]
init_RFIC              0x000013f7   0xda  Code  Gb  SPI.o [1]
main                   0x00002871  0x224  Code  Gb  main.o [1]
prog_cntrl             0x00003420    0x4  Data  Gb  main.o [1]
prog_status            0x0000341c    0x4  Data  Gb  main.o [1]
rd_RFIC                0x000013bf   0x38  Code  Gb  SPI.o [1]
rf_agc_lev             0x000033e8    0x8  Data  Gb  AK.o [1]
sys_tics               0x00003418    0x4  Data  Gb  main.o [1]
trim_ADC               0x000015d5   0x84  Code  Gb  SPI.o [1]
trim_adc1              0x0000342a    0x1  Data  Gb  SPI.o [1]
trim_adc2              0x0000342b    0x1  Data  Gb  SPI.o [1]
trimming_err           0x000033fc    0x4  Data  Gb  AK.o [1]
trimming_pause         0x00003428    0x2  Data  Gb  AK.o [1]
trimming_step          0x000033f8    0x4  Data  Gb  AK.o [1]
uart1_tx_buf           0x00002f30  0x280  Data  Gb  UART.o [1]
uart1_tx_buf_len       0x0000340c    0x4  Data  Gb  UART.o [1]
uart1_tx_buf_rd_ptr    0x00003408    0x4  Data  Gb  UART.o [1]
uart1_tx_buf_wr_ptr    0x00003404    0x4  Data  Gb  UART.o [1]
wake_UART_1_rx         0x000031b0  0x114  Data  Gb  UART.o [1]
wake_UART_1_tx         0x000032c4  0x114  Data  Gb  UART.o [1]
wake_wr_tx_buf         0x00002555   0x3c  Code  Gb  UART.o [1]
wr_RFIC                0x00001391   0x2e  Code  Gb  SPI.o [1]
write_flash_image      0x00001c05  0x1a2  Code  Gb  SPI.o [1]


[1] = F:\Project\Titan_3\ajpp_titan_v3_V2_how_5v4_dop\Debug\Obj
[2] = command line
[3] = dl6M_tln.a
[4] = rt6M_tl.a
[5] = shb_l.a

  7 190 bytes of readonly  code memory
    228 bytes of readonly  data memory
  1 963 bytes of readwrite data memory

Errors: none
Warnings: 2
