###############################################################################
#                                                                             #
# IAR ANSI C/C++ Compiler V6.40.2.53884/W32 for ARM     17/May/2023  09:53:21 #
# Copyright 1999-2012 IAR Systems AB.                                         #
#                                                                             #
#    Cpu mode     =  thumb                                                    #
#    Endian       =  little                                                   #
#    Source file  =  F:\Project\NT_1069\ajpp_1069_v2_100MHz\host.c            #
#    Command line =  F:\Project\NT_1069\ajpp_1069_v2_100MHz\host.c -lCN       #
#                    F:\Project\NT_1069\ajpp_1069_v2_100MHz\Debug\List\ -o    #
#                    F:\Project\NT_1069\ajpp_1069_v2_100MHz\Debug\Obj\        #
#                    --no_cse --no_unroll --no_inline --no_code_motion        #
#                    --no_tbaa --no_clustering --no_scheduling --debug        #
#                    --endian=little --cpu=Cortex-M0 -e --fpu=None            #
#                    --dlib_config "C:\Program Files (x86)\IAR                #
#                    Systems\Embedded Workbench 6.4\arm\INC\c\DLib_Config_Nor #
#                    mal.h" -Ol                                               #
#    List file    =  F:\Project\NT_1069\ajpp_1069_v2_100MHz\Debug\List\host.l #
#                    st                                                       #
#    Object file  =  F:\Project\NT_1069\ajpp_1069_v2_100MHz\Debug\Obj\host.o  #
#                                                                             #
#                                                                             #
###############################################################################

F:\Project\NT_1069\ajpp_1069_v2_100MHz\host.c
      1          #include "MCU32.h"
      2          #include "AK.h"
      3          #include "wake.h"
      4          #include "stdlib.h"
      5          #include "math.h"
      6          
      7          

   \                                 In section .text, align 2, keep-with-next
      8          int Host(uint16_t data, int temp){
   \                     Host:
   \   00000000   0xB538             PUSH     {R3-R5,LR}
   \   00000002   0x000C             MOVS     R4,R1
      9            //uint16_t whole = (data>>3) & 0x1FF;
     10            //uint16_t ref = 360;        //90dB * 4 = 360 
     11            //uint16_t det =(uint16_t) (unsigned) data;  
     12            //uint16_t mism =(uint16_t) ((signed) ref - (signed) det);
     13            //uint16_t mism_magn =(uint16_t) abs((signed) mism)>>2;
     14            
     15              
     16            int ref = 800;        //90dB * 4 = 360
   \   00000004   0x21C8             MOVS     R1,#+200
   \   00000006   0x0089             LSLS     R1,R1,#+2        ;; #+800
     17            //int ref = 500;        //90dB * 4 = 360
     18            //int ref = 360;        //90dB * 4 = 360 
     19            //int ref = 90;        //90dB * 4 = 360
     20            int det = data;  
   \   00000008   0xB280             UXTH     R0,R0
     21            int mism = ref -  det;
   \   0000000A   0x1A0D             SUBS     R5,R1,R0
     22            int mism_magn =(uint16_t) abs(mism)>>2;  
   \   0000000C   0x0028             MOVS     R0,R5
   \   0000000E   0x.... 0x....      BL       abs
   \   00000012   0xB280             UXTH     R0,R0
   \   00000014   0x0880             LSRS     R0,R0,#+2
   \   00000016   0xB280             UXTH     R0,R0
     23            uint16_t mism_sing = (mism>>13) & 0x1;
   \   00000018   0x002A             MOVS     R2,R5
   \   0000001A   0x1352             ASRS     R2,R2,#+13
   \   0000001C   0x0011             MOVS     R1,R2
   \   0000001E   0x07C9             LSLS     R1,R1,#+31       ;; ZeroExtS R1,R1,#+31,#+31
   \   00000020   0x0FC9             LSRS     R1,R1,#+31
     24            
     25            uint16_t mism_dz, mism_dz_limit;
     26            uint16_t dz= 70;
   \   00000022   0x2246             MOVS     R2,#+70
     27            //uint16_t dz= 65;
     28            //uint16_t dz= 90;
     29            //uint16_t dz= 10;
     30            int max_step = 10;     //10dB * 4       
   \   00000024   0x230A             MOVS     R3,#+10
     31          
     32          //////STAGE 1
     33            
     34            if (mism_magn > dz)
   \   00000026   0xB292             UXTH     R2,R2
   \   00000028   0x4282             CMP      R2,R0
   \   0000002A   0xDA01             BGE      ??Host_0
     35              mism_dz = mism_magn - dz;
   \   0000002C   0x1A80             SUBS     R0,R0,R2
   \   0000002E   0xE000             B        ??Host_1
     36            else
     37              mism_dz = 0;
   \                     ??Host_0:
   \   00000030   0x2000             MOVS     R0,#+0
     38            
     39            if(mism_dz > max_step)
   \                     ??Host_1:
   \   00000032   0xB280             UXTH     R0,R0
   \   00000034   0x4283             CMP      R3,R0
   \   00000036   0xDA01             BGE      ??Host_2
     40              mism_dz_limit = max_step;
   \   00000038   0x0018             MOVS     R0,R3
   \   0000003A   0xE7FF             B        ??Host_3
     41            else
     42              mism_dz_limit = mism_dz;
     43            
     44          //////STAGE 2
     45            //uint16_t step;
     46            
     47            //if(mism_sing == 0x1)
     48            //  step = - mism_dz_limit;
     49            //else
     50            //  step = mism_dz_limit;
     51            
     52            if(mism_sing == 0x1)
   \                     ??Host_2:
   \                     ??Host_3:
   \   0000003C   0xB289             UXTH     R1,R1
   \   0000003E   0x2901             CMP      R1,#+1
   \   00000040   0xD102             BNE      ??Host_4
     53             temp = temp - mism_dz_limit;
   \   00000042   0xB280             UXTH     R0,R0
   \   00000044   0x1A24             SUBS     R4,R4,R0
   \   00000046   0xE001             B        ??Host_5
     54            else
     55             temp = temp + mism_dz_limit;
   \                     ??Host_4:
   \   00000048   0xB280             UXTH     R0,R0
   \   0000004A   0x1824             ADDS     R4,R4,R0
     56          
     57          //////STAGE 3  
     58           
     59            //int gain_control;
     60            int max_control =300;
   \                     ??Host_5:
   \   0000004C   0x2096             MOVS     R0,#+150
   \   0000004E   0x0040             LSLS     R0,R0,#+1        ;; #+300
     61          
     62            //temp = temp + step;
     63            
     64            if(temp<0)
   \   00000050   0x2C00             CMP      R4,#+0
   \   00000052   0xD500             BPL      ??Host_6
     65              temp = 0;
   \   00000054   0x2400             MOVS     R4,#+0
     66            if(temp>max_control-1)
   \                     ??Host_6:
   \   00000056   0x1E41             SUBS     R1,R0,#+1
   \   00000058   0x42A1             CMP      R1,R4
   \   0000005A   0xDA01             BGE      ??Host_7
     67              temp = max_control-1;
   \   0000005C   0x0004             MOVS     R4,R0
   \   0000005E   0x1E64             SUBS     R4,R4,#+1
     68            
     69            //gain_control = (int)temp;
     70            
     71            return temp;
   \                     ??Host_7:
   \   00000060   0x0020             MOVS     R0,R4
   \   00000062   0xBD32             POP      {R1,R4,R5,PC}    ;; return
     72           }
     73          
     74          

   Maximum stack usage in bytes:

   .cstack Function
   ------- --------
       16  Host
             16 -> abs


   Section sizes:

   Bytes  Function/Label
   -----  --------------
     100  Host

 
 100 bytes in section .text
 
 100 bytes of CODE memory

Errors: none
Warnings: none
