:10000000E82A000049280000C72700000328000054
:10001000192800001B2800001D2800000000000017
:100020000000000000000000000000001F28000089
:10003000212800000000000023280000BB2400004D
:1000400027280000292800002B2800002D28000068
:100050004923000031280000352800003328000023
:10006000392800003B2800003D2800003F28000000
:1000700041280000432800004528000047280000D0
:10100000A548A64900220A60B62109028161002193
:10101000C1610021C162A24941670021816780212D
:101020000022425084210022425088210022425056
:101030009C4981629021BA4A42509421B94A425057
:101040009821002242509C21B74A4250A021B44A24
:101050004250A421B34A4250A821B44A4250AC2184
:10106000B14A4250C82100224250CC30B049016000
:10107000704710B5884900228A67842209238B5063
:10108000882200238B508822AA4B8B5088228A58B2
:1010900080231B06134388228B5088228A58920093
:1010A000FBD50022002300E05B1C8024E400A34267
:1010B0000FDA80240A51083280240C5980B244404F
:1010C0002405240D002CEFD088310020086000207A
:1010D0004BE00122002300E05B1C8024E400A342DB
:1010E0000FDA80240A51083280240C5980B244401F
:1010F0002405240D002CEFD088310020086000204A
:1011000033E00222002300E05B1C8024E400A342C1
:101110000FDA80240A51083280240C5980B24440EE
:101120002405240D002CEFD0883100200860002019
:101130001BE00322002300E05B1C8024E400A342A8
:101140000FDA80240A51083280240C5980B24440BE
:101150002405240D002CEFD08831002008600020E9
:1011600003E0883100200860012010BDF8B5724FFF
:1011700000240AE00921042020408010C0B200F0C1
:101180000CF900016D490855641C082C6DDA20002B
:101190000001302202400521042020408010C0B20E
:1011A00000F0E4F80A21042020408010C0B200F0D2
:1011B000F4F8060062480655A507AD0F0720454321
:1011C00011352900C9B2042020408010C0B200F0BF
:1011D000E4F80200F02010401207120F5949096884
:1011E0004902C7D558490978FF290CD1F02010438E
:1011F0000200D2B22900C9B2042020408010C0B23F
:1012000000F0B4F826E050490978F6B28E420ED2CA
:10121000C0B2002800D010380243D2B22900C9B2AF
:10122000042020408010C0B200F0A0F812E046492F
:101230000978F6B2B1420DD2C0B2F02800D0103019
:101240000243D2B22900C9B2042020408010C0B2AB
:1012500000F08CF80921042020408010C0B200F07A
:101260009CF80001354908558EE7364800680002B1
:1012700011D53348C079032804D2386A40004008A9
:10128000386208E02E48C0790C2804D3386A8021DF
:10129000090601433962F1BD00E008800431000015
:1012A0000E3AA6201F00110070B5002435E0200082
:1012B0000001302202400521042020408010C0B2ED
:1012C00000F054F80A21042020408010C0B200F041
:1012D00064F81B490855A507AD0F07204543113594
:1012E0002900C9B2042020408010C0B200F055F897
:1012F0000200F02616401207120F13480078000172
:101300000243D2B22900C9B2042020408010C0B2EA
:1013100000F02CF809480655641C082CC7DB70BD8A
:10132000A426182FD96A93B92BFB1C4223808C8CDE
:101330006F659F43FE03004000F00880F03000001E
:10134000F830000024310000942B00007849794ADD
:1013500079487A4B0B607A4B4B607A4911600821CF
:101360005160C349016008214160704710B5714B5D
:10137000744C1C60DC682407FCD4C0B20400E40791
:10138000E40FA0019124E40000195860C9B2480696
:10139000400E9860D2B29A6010BD00B5654A694BA4
:1013A0001360D3681B07FCD4C0B20300DB07DB0F5C
:1013B000980188305060C9B28020084390600020B6
:1013C0009060D0680007FCD4906891680800C0B2B3
:1013D00000BDF8B50500EDB2002D01D1B04E00E022
:1013E000B04E00212800C0B2FFF7D7FF212801D05E
:1013F00001205AE001212800C0B2FFF7CEFF4A28A1
:1014000001D0012051E0002407E030194278315D1D
:101410002800C0B2FFF7AAFFA41C4E2CF5D300246D
:1014200000E0A41C4E2C10D230194778305D2B28D8
:1014300001D168460770315D2800C0B2FFF7ADFFEB
:10144000FFB2B842EDD001202FE0684600780122BB
:101450000243D2B22B212800C0B2FFF787FF00243D
:1014600000E0641C0A2C1FDA2C212800C0B2FFF710
:1014700094FFC007F5D5012204212800C0B2FFF770
:1014800075FF002400E0641CAA4884420ADA0421A3
:101490002800C0B2FFF781FF8007800F0228F2D139
:1014A000002002E0012000E00120F2BD00B5214A49
:1014B000D3681B07FCD4A04B1360C0B20300DB074A
:1014C000DB0F980108305060C9B28020084390605B
:1014D00000209060D0680007FCD4906891680800F4
:1014E000C0B200BD30B5134BDC682407FCD4924C6D
:1014F0001C60C0B20400E407E40FA4018F4D64191E
:101500005C60C9B24906490E9960D2B29A60D96846
:10151000C907FCD5D9680907FCD4C0B20100C907C6
:10152000C90F88018121C9004018586030BD0000F2
:101530000010028000200280003002801F0900009D
:10154000882400000F02000010B504008022002152
:101550002000C0B2FFF7C6FF202201212000C0B248
:10156000FFF7C0FFE22202212000C0B2FFF7BAFF5E
:10157000AA2203212000C0B2FFF7B4FF9422042165
:101580002000C0B2FFF7AEFF03212000C0B2FFF77A
:101590008DFFAA2801D0012009E002212000C0B25D
:1015A000FFF784FFE22801D0012000E0002010BDF9
:1015B000F8B506000124624DAF69002E04D08020EA
:1015C00040003843A86102E05E483840A861AA2282
:1015D00003213000C0B2FFF785FF942204213000C0
:1015E000C0B2FFF77FFF3100C9B2A748FFF741FD46
:1015F000002800D10024002C13D0952203213000B4
:10160000C0B2FFF76FFF682204213000C0B2FFF7BD
:1016100069FF3100C9B29D48FFF72BFD002800D1BA
:101620000024002203213000C0B2FFF75BFFAF614E
:101630000120F2BD00B59649CA681207FCD4C0B2B9
:101640000200521040231A40082313434B60C0B2DB
:101650008006800E4000012202438A6000208860DC
:10166000C8680007FCD4886889680800C0B200BD5B
:101670000F04000010B5864AD3681B07FCD4C0B223
:1016800003005B10402423408124E4001C43546089
:10169000C0B28006800E40009060C9B2916010BD5B
:1016A000E82A0000382B000000B57949CA68120703
:1016B000FCD48E4A4A60C0B28006800E4000802270
:1016C00002438A60002088600020886000208860D3
:1016D000C8680007FCD4886802028868C0B210435A
:1016E00002028868C0B2104302028868C0B2104388
:1016F0000002000A00BD80B5654A0902090A4900D6
:10170000C0B28006800E4006084300906846D1684B
:101710000907FCD477495160002107E0D368DB0753
:10172000FCD54B42C318DB789360491C0429F5DBD8
:1017300001BD0000102700000F0900000844000050
:1017400000E00880FFFEFFFF70B5514C684DE06877
:101750000007FCD46848206066486060686B2721F9
:1017600001436963A86A24218843A8620020FFF727
:101770009BFF6249884201D0012083E020210020A4
:10178000FFF7B9FF01210220FFF7B5FF5C490920EF
:10179000FFF7B1FF5B490B20FFF7ADFF5A4905206A
:1017A000FFF7A9FF64490520FFF7A5FF634905205E
:1017B000FFF7A1FF62490520FFF79DFF6149052062
:1017C000FFF799FF00210520FFF795FF5E490A20EA
:1017D000FFF791FF5D490620FFF78DFF9F21032052
:1017E000FFF789FF00210420FFF785FF0320FFF7A3
:1017F0005BFF9F2801D0012044E0FA26B6001220AA
:10180000FFF752FF761E810701D4002EF7D1800723
:1018100001D4012036E0A86A20210143A962686B47
:1018200020218843686355482060686B1821014374
:10183000696308218820FFF71DFF8020FFF7FAFE6B
:101840003E2801D001201DE0002407E04C48015D46
:1018500020008038C0B2FFF70DFF641C092CF5DBB7
:10186000002400E0641C092C0BDA20008038C0B290
:10187000FFF7E0FE4249095DC0B28842F2D0012084
:1018800000E0002070BD0000A50A00005A0500001D
:101890000010028000B53B49C8680007FCD4A1488D
:1018A0000860082048600520886000208860C868BB
:1018B0000007FCD4886800028968401800BD80B524
:1018C000FFF7E8FFC007FBD401BD00B52D48C16894
:1018D0000907FCD42C4901608121C900416006211F
:1018E0008160C1680907FCD400BD000088200000A9
:1018F00000F00880882400001F09000075790A00A4
:10190000FF7F5400E1C00F00880F000038B50400CD
:101910001C4DFFF7DAFF1D4828605220A860200008
:10192000000CC0B2A8602000000AC0B2A860E4B2F7
:10193000AC60FFF7C4FF31BD90A00000982A000002
:10194000A060000028160000462000004A0B20007E
:1019500038B504000B4DFFF7B8FF0C48286039205C
:10196000A8602000000CC0B2A8602000000AC0B22D
:10197000A860E4B2AC60FFF7A2FF31BD0F09000020
:10198000882B000000300280070200001F020000C8
:10199000F0B585B0644C6548002103910025802195
:1019A000C90100910099090AC9B2009AD2B28E18F1
:1019B0000027002102915E49096820220A435C4900
:1019C0000A605C4909685C4A0A405A490A60CC309E
:1019D00000685A49884200D0A2E00020FFF7B8FF13
:1019E0000020FFF793FFFFF770FF5548606002206B
:1019F000A0600020A0600020A0600020A060E0683F
:101A0000C006FCD50098C0B2A0600098000AC0B221
:101A1000A0600020A0600020A06004200AE0E1682F
:101A2000C906FCD50399495D6D1CC9B27618C9B2C7
:101A3000A160401CFF28F2DDE0680007FCD4812093
:101A4000C0006060FFF73BFF0120019017E0E168F4
:101A5000C906FCD50399495D6D1CC9B27618C9B297
:101A6000A160401CFF28F2DDE0680007FCD4812063
:101A7000C0006060FFF723FF0198401C01900198AF
:101A80000099090A88420DD2FFF71FFF2C486060B9
:101A90000220A0600020A0600198A0600020A0604B
:101AA0000020DFE7E0680007FCD4264820602648D5
:101AB00060600320A0600020A0600020A0600020E3
:101AC000A060E0680007FCD4E068400701D5A0688A
:101AD000FAE7002000E0401C00998908884214D2EF
:101AE0000021A1600021A1600021A1600021A1606E
:101AF000E1680907FCD4E1684907ECD5A168C9B2DF
:101B00007F180299491C0291F5E78120C0006060AE
:101B1000BE4205D106480068202188430449086078
:101B200005B0F0BD0F0200000030028000E0088028
:101B30002031000024310000FFFFFEFF5A5AA5A506
:101B400008440000070200000840000080B5284853
:101B500028490A68284B13400B60284941632849EB
:101B6000C16304218163016A264A0A400262016A54
:101B7000802212060A430262816A234A0A43826271
:101B8000FFF7E4FB00F054F800F001F801BD1F4836
:101B90001F49204A0260072008601F480021016099
:101BA00070471E48002181621D4981619021890092
:101BB0001C4A425091218900002242509221890002
:101BC0000022425093218900012242507047094966
:101BD0000A68094B13400002184308600868704700
:101BE00010B5114C0020FFF7F2FF1048206010BD27
:101BF00000F0088040100080FFFCFFFF377F0F03DC
:101C0000D9FFFFFCDBFFFFFE2400008114E000E0B1
:101C100010E000E0940502001831000000E00880A8
:101C2000FF0000804400005F0CED00E00400FA05B6
:101C30000F4800214160182181601C210A00121206
:101C4000C260C9B201610121416100210162FF212D
:101C5000C161016A02220A43026206480021016052
:101C6000054800210160054800210160704700001F
:101C7000001008800C310000083100001031000015
:101C8000F0B585B00500AE4E01A8AE490D2200F0BA
:101C900041FB88204000285C50210140002910D0E1
:101CA000A94801214170A8480121416088204000D5
:101CB000285C50210140A4480172A34800F00CFAAE
:101CC000FCE188204000285C800700D4DEE1882009
:101CD00040002C58280000F0EFFA204388214900EA
:101CE000685088204000285CC00700D4CEE16878A6
:101CF00000281AD0012822D0022824D0032837D067
:101D000004284CD0052800D1C5E0062800D12EE1DA
:101D1000092800D160E10A2800D171E10E2800D124
:101D200083E10F2800D194E1A8E1874800214170A8
:101D3000854801214160844800F0CEF9A6E182483F
:101D400000F0CAF9A2E18048022141707E4869682A
:101D50004160002005E02918097A7B4A12181172A7
:101D6000401C69688842F6DB774800F0B5F98DE1E0
:101D700075480321417074480D214160002005E041
:101D80007149091801AA125C0A72401C0C28F7DB81
:101D90006D48002101756C4800F09EF976E16A48B3
:101DA00004214170684804214160287A372808D10D
:101DB000C3480068000C0004C24909688CB204439F
:101DC00056E0287A382821D1BF480078C0B20009EF
:101DD000C0B2BD4949780143BB488078000108433F
:101DE000B949C9780C020443B74800790003B649E1
:101DF000497909040143B448807902050A43B2488D
:101E0000C079000610432043040031E0287A3928C5
:101E10000ED1AE4840780002AC4909780143AB4886
:101E2000807800040843A949C9780C0604431FE0E0
:101E3000287A3A280ED1A54840790002A3490979A9
:101E40000143A248807900040843A049C9790C06DF
:101E500004430DE0287A3C2806D19D480078000212
:101E60009C490C78044303E0287A04214843345801
:101E70003548210001722000000A334948722000D1
:101E8000000C314988722000000E2F49C8722E487C
:101E900000F022F9FAE06C7AA87A00022418E87AB5
:101EA00000042418287B00062418287A372831D10A
:101EB000834800686040400227D5684610210170C1
:101EC000600202D568460021017000271BE0BE07B2
:101ED000B60F072046430F363100C9B20420384000
:101EE0008010C0B2FFF759FAEF210140684602782E
:101EF0000A43D2B23100C9B2042038408010C0B2C7
:101F0000FFF734FA7F1C082FE1DB200C00046C493A
:101F100008601FE0287A382818D1CC363068C149CB
:101F2000884217D12000000CC0B24107490FBE4AB9
:101F3000230053542100C9B2C0B2FFF79BFB09E054
:101F400000E00880D4280000DC2F0000287A04215B
:101F500048433450D34805214170D24801214160A3
:101F6000D04800210172CF4800F0B6F88EE0CD488D
:101F700006214170CB48802149004160697A4902BD
:101F80000800297A0143002020E08022B150083166
:101F90008022B45804224243C24B9A182300137281
:101FA00004224243BF4B9A1823001B0A5372042297
:101FB0004243BC4B9A1823001B0C937204224243E9
:101FC000B84B9A1823001B0ED372401C4028DCDB50
:101FD000B44800F081F859E0AA7A697A287A800733
:101FE000800FFFF7C3F9AF4809214170AD480121C7
:101FF0004160AC4800210172AA4800F06DF845E04C
:10200000A8480A214170A74802214160A548697A81
:102010000172697A287A8007800FFFF7BEF9A1491B
:102020004872A04800F058F830E0AA7A697A287A15
:102030008007800FFFF756FA9A480E2141709948A1
:1020400001214160974800210172964800F044F850
:102050001CE094480F214170924802214160914850
:10206000697A0172697A287A8007800FFFF71EFA71
:102070008C4948728B4800F02FF807E08820400018
:102080002858202101438820400029508820400002
:10209000285C28210140002910D0824869784170CD
:1020A00080480121416088204000285C28210140AF
:1020B0007C4801727B4800F00FF8FFE705B0F0BDE7
:1020C0002431000020310000F0300000F830000022
:1020D0002F3100002E310000F8B506007248009044
:1020E00072480121016084204000DE213154032424
:1020F000E44317E03019057A6C4807682900C9B233
:102100006A48006800F06FF83818684908602900CC
:10211000C9B284204000305C00F088F88421490076
:102120007054641C7068844243DA0220C0438442C5
:1021300004D13078002801D10124E4432000032198
:10214000C943401A06D0401E09D0401E17D0401E79
:1021500022D0CFE7C0255648C0210170D7E730789C
:1021600045066D0E5148076880212943C9B24F4882
:10217000006800F038F838184C490860C7E77578EF
:102180004A4807682900C9B24848006800F02BF89F
:10219000381846490860BAE7756844480768290056
:1021A000C9B24248006800F01EF838183F4908607C
:1021B000ADE784204000315C3C48006800F013F833
:1021C0003A49096808183949086088204000002108
:1021D00031503848002101600098006A0121014314
:1021E00000980162F1BD00B5C9B20A00C02A02D050
:1021F000DB2A09D011E02E49DB220A542C490818A9
:10220000DC21417002200BE02949DB220A542849D5
:102210000818DD214170022002E0254A11540120F6
:1022200000BD0000FF5AA5A5882B000000B50022C4
:1022300004E0C0B24008C9B24908521C082A0BDAAF
:10224000C9B2C0B203004B40DB07F2D50300DBB2DA
:102250005B088C205840EEE7C0B200BD00B51249C3
:102260008422520000238354FF220A320023835425
:10227000862252000323DB43835000220270002297
:10228000427000224260882252000023835000E006
:1022900008688869C006FBD5086A022202430A6200
:1022A00000BD0000DC2F000000100880103100008D
:1022B000482C00000C31000038B50400C021DE209D
:1022C000FFF7B4FF2178090602D50021217003E051
:1022D0002178C0B2FFF7AAFF6178C0B2FFF7A6FF6E
:1022E0006168C9B2C0B2FFF7A1FF002505E061191E
:1022F000097AC0B2FFF79AFF6D1C61688D42F6DB68
:1023000084214900615CC0B2884201D1012000E013
:10231000082032BD70B4103A03D378C9103A78C09F
:10232000FBD2530701D318C918C001D508C908C08A
:10233000D20704D30B880380891C801C002A01D596
:102340000B78037070BC704700B55E48C169C9075F
:1023500026D55D490968002904D1016A012291430B
:1023600001621DE059490968594A515C01605749A9
:102370000968491C554A116053490968491E524A67
:102380001160C169C90703D54F4909680029E9D11E
:102390004D490968002903D1016A01229143016274
:1023A000C169890716D501684A4A12680323DB43CD
:1023B0009A4210D1C9B2C02909D1474900220A70F6
:1023C00044490222D2430A60444932220A60C16968
:1023D0008907E8D400BDC9B2DB2903D13E490122F7
:1023E0000A70F4E73C4A1278002A10D03A4A0023D7
:1023F0001370C9B20A00DC2A02D0DD2A02D003E041
:10240000C02104E0DB2102E0354A10231360314A89
:1024100012680223DB43D21A04D0521E17D0521E78
:1024200022D028E00A0608D54906490E2D4A117027
:1024300028490122D2430A6008E02A4A8023137007
:10244000284A517023490022D2430A60BFE70A0696
:1024500003D5234910220A6005E0224A51701D4924
:102460000022D2430A60B2E71E4AC9B2516019493C
:1024700000220A60ABE7174A12681A4B5B689A425F
:102480000BD0144A1278D2B2164B9A181172114915
:102490000968491C0F4A116099E7134A11701049E5
:1024A000096802220A430E490A60016A0222914326
:1024B00001620A48002101608CE70C48012101609B
:1024C0007047000000100880103100000C3100003F
:1024D000482C0000D42F0000D12F00001431000040
:1024E000D82F0000C82E0000D02F000018310000A7
:1024F00082B0072405259B4800909B4F9B4E9C482B
:1025000001909C48002101609B48002101609B488C
:10251000C021890001609A4882210904016099481C
:1025200000210160984800210180FFF70FFBE007C0
:1025300007D50020FEF74DFF00280ED1012084436F
:102540000BE0A00702D50220844306E00020FEF73E
:10255000FBFF002801D1042084436D1E002C01D014
:10256000002DE4D1600700D5FEE7FFF71AFB02203B
:10257000FFF72DFBFEF744FD052500E06D1E012051
:10258000FEF727FF002801D0002DF7D1002D06D13E
:102590007A4800688021C900014378480160052518
:1025A00000E06D1E0120FEF7CFFF002801D0002DB6
:1025B000F7D1002D06D1714800688021090101433F
:1025C0006E4801600020FEF7F3FF002805D06B483D
:1025D00000686E490140694801600120FEF7E8FF8C
:1025E000002805D0654800686949014063480160DA
:1025F0006848FFF733FE0120306010203860FFF795
:10260000A3F8002806D05D480068802149010143F5
:102610005A480160584800680028FBD056480021FD
:102620000160554800680028FBD053480021016034
:102630000098406B80214904014300984163009851
:10264000806A554901400098816246E04B48006825
:1026500080218900014349480160494800684F4989
:1026600001404748016046480068800201D5FFF7F5
:10267000B7FA404800780007000F002805D140480D
:102680000068C00301D5FFF783F9454800680028BA
:1026900017D043480068401E414908604048006820
:1026A00001280EDA3F480068402101433D4801609F
:1026B0000198006A02218843019908623848002184
:1026C00001603848007842210140002905D0314896
:1026D000FFF7D6FA2F48FFF7C1FD2748006800280A
:1026E000EFD025480021016022480068401C2149A4
:1026F00008602D480068002804D02B480068401E60
:10270000294908601E480068800302D5FEF72EFDA7
:1027100007E018480078C006C00E002801D1FEF777
:10272000C3FD17480068C0029DD50020FEF740FF9A
:10273000002806D011480068144901400F48016084
:1027400003E00E488021490001600120FEF730FFC0
:10275000002800D17AE7094800680D490140074880
:1027600001607AE700F0088000E100E004E400E0A6
:10277000001008801C3100001831000020310000DA
:1027800024310000003100002C310000FFFEFFFF6B
:10279000FFFDFFFFC82E0000FFFFFFFEFFFFEFFF62
:1027A00014310000D82F00002831000000F009F893
:1027B000002801D000F008F80020FFF799FE00F093
:1027C00017F801207047FEE710B507497944183122
:1027D000064C7C44163404E0081D0A6889188847B2
:1027E0000100A142F8D110BDC8000000E8000000BF
:1027F00080B500F001F801BD0746384600F002F848
:10280000FBE7FEE7C046C046024A11001820ABBEF7
:10281000FBE700BF26000200FEE7FEE7FEE7FEE75B
:10282000FEE7FEE749E6FEE7FEE7FEE7FEE78BE5AB
:10283000FEE7FEE7FEE7FEE7FEE7FEE7FEE7FEE770
:10284000FEE7FEE7FEE7FEE7C046C046C046C046DC
:10285000FFF7ACFF38B4012100220368001D002BF4
:102860000BD00468001D0C4202D04D466D1E641949
:102870002260241D1B1FF0D0FAE732BC704738B429
:1028800001210268001D002A0FD00368C3184468A4
:1028900008300C4202D04D466D1E64191D6825603B
:1028A0001B1D241D121FECD0F8E732BC704700003E
:1028B000A5FFFFFFE8040000482C00000000000016
:1028C000BFFFFFFFB0000000D0020000E82A0000B8
:1028D000000000004E54313035372076302E313034
:1028E00000000000000000000000000000000000E8
:1028F00000000000000000000000000000000000D8
:1029000000000000000000000000000000000000C7
:1029100000000000000000000000000000000000B7
:102B900000000000000000000203030005000B0F0E
:102BA0000C180D010E270F7A103411F112EA1306DA
:102BB00014011527167A173418F119EA1A061B01A1
:102BC0001C271D7A1E341FF120EA2106220123272B
:102BD000247A253426F127EA280629032A4F2B8058
:102BE0002D022E4F2F8000000203030005000B0F63
:102BF0000C180D030E3C0F7A103411F112EA130673
:102C00001403153C167A173418F119EA1A061B0337
:102C10001C3C1D7A1E341FF120EA21062203233CAE
:102C2000247A253426F127EA280629032A4F2B8007
:102C30002D022E4F2F0800004D80808080105006FE
:082C4000000000000600000086
:040000050000284986
:00000001FF
