###############################################################################
#                                                                             #
# IAR ELF Linker V6.40.2.53884/W32 for ARM              20/Jun/2023  15:30:41 #
# Copyright 2007-2012 IAR Systems AB.                                         #
#                                                                             #
#    Output file  =  F:\Project\NT_1069\ajpp_titan_v4_big_gain_100MHz\Debug\E #
#                    xe\c.out                                                 #
#    Map file     =  F:\Project\NT_1069\ajpp_titan_v4_big_gain_100MHz\Debug\L #
#                    ist\c.map                                                #
#    Command line =  F:\Project\NT_1069\ajpp_titan_v4_big_gain_100MHz\Debug\O #
#                    bj\AK.o F:\Project\NT_1069\ajpp_titan_v4_big_gain_100MHz #
#                    \Debug\Obj\Detector.o F:\Project\NT_1069\ajpp_titan_v4_b #
#                    ig_gain_100MHz\Debug\Obj\InitHW.o                        #
#                    F:\Project\NT_1069\ajpp_titan_v4_big_gain_100MHz\Debug\O #
#                    bj\ROM.o F:\Project\NT_1069\ajpp_titan_v4_big_gain_100MH #
#                    z\Debug\Obj\SPI.o F:\Project\NT_1069\ajpp_titan_v4_big_g #
#                    ain_100MHz\Debug\Obj\UART.o                              #
#                    F:\Project\NT_1069\ajpp_titan_v4_big_gain_100MHz\Debug\O #
#                    bj\decibel.o F:\Project\NT_1069\ajpp_titan_v4_big_gain_1 #
#                    00MHz\Debug\Obj\host.o F:\Project\NT_1069\ajpp_titan_v4_ #
#                    big_gain_100MHz\Debug\Obj\isr.o                          #
#                    F:\Project\NT_1069\ajpp_titan_v4_big_gain_100MHz\Debug\O #
#                    bj\main.o F:\Project\NT_1069\ajpp_titan_v4_big_gain_100M #
#                    Hz\Debug\Obj\selftest.o F:\Project\NT_1069\ajpp_titan_v4 #
#                    _big_gain_100MHz\Debug\Obj\vector_table_M.o -o           #
#                    F:\Project\NT_1069\ajpp_titan_v4_big_gain_100MHz\Debug\E #
#                    xe\c.out --redirect _Printf=_PrintfFull --redirect       #
#                    _Scanf=_ScanfFull --map F:\Project\NT_1069\ajpp_titan_v4 #
#                    _big_gain_100MHz\Debug\List\c.map --config               #
#                    C:\Users\yalovik\Desktop\ajpp_titan_v5_2\generic.icf     #
#                    --semihosting --entry __iar_program_start --vfe          #
#                                                                             #
#                                                                             #
###############################################################################

*******************************************************************************
*** MESSAGES
***


  place in RAM_region   { readonly, readwrite,
  ^
"C:\Users\yalovik\Desktop\ajpp_titan_v5_2\generic.icf",44  Warning[Lp005]: 
          placement includes a mix of sections with content (example
          "ro data section .data_init in AK.o") and sections without content
          (example "rw data section .data in AK.o")

  place in RAM_region   { readonly, readwrite,
  ^
"C:\Users\yalovik\Desktop\ajpp_titan_v5_2\generic.icf",44  Warning[Lp006]: 
          placement includes a mix of writable sections (example
          "rw data section .data in AK.o") and non-writable sections (example
          "ro data section .data_init in AK.o")


*******************************************************************************
*** RUNTIME MODEL ATTRIBUTES
***

CppFlavor       = *
__SystemLibrary = DLib


*******************************************************************************
*** PLACEMENT SUMMARY
***

"A1":  place at 0x00000000 { ro section .intvec };
"A2":  place at 0x00001000 { ro section .text };
"P1":  place in [from 0x00001000 to 0x0001ffff] {
          ro, rw, block CSTACK, block HEAP };

  Section            Kind        Address    Size  Object
  -------            ----        -------    ----  ------
"A1":                                       0x80
  .intvec            ro code  0x00000000    0x80  vector_table_M.o [1]
                            - 0x00000080    0x80

"A2":                                     0x2b60
  .text              ro code  0x00001000   0x898  pow.o [4]
  .text              ro code  0x00001898    0x48  xdnorm.o [4]
  .text              ro code  0x000018e0    0x8c  xdint.o [4]
  .text              ro code  0x0000196c    0x24  DblCmpEq.o [4]
  .text              ro code  0x00001990    0x10  errno.o [3]
  .text              ro code  0x000019a0    0x32  DblCmpGe.o [4]
  .text              ro code  0x000019d2    0x32  DblCmpLe.o [4]
  .text              ro code  0x00001a04   0x184  DblMul.o [4]
  .text              ro code  0x00001b88   0x1b4  DblAddSub.o [4]
  .text              ro code  0x00001d3c    0x4e  DblToI32.o [4]
  .text              ro code  0x00001d8a     0x2  vector_table_M.o [1]
  .text              ro code  0x00001d8c    0x30  I32ToDbl.o [4]
  .text              ro code  0x00001dbc    0xc2  DblDiv.o [4]
  .text              ro code  0x00001e7e     0x2  vector_table_M.o [1]
  .text              ro code  0x00001e80    0xa4  xlog.o [4]
  .text              ro code  0x00001f24   0x308  xexp.o [4]
  .text              ro code  0x0000222c     0x2  xtls.o [3]
  .text              ro code  0x0000222e     0x2  vector_table_M.o [1]
  .text              ro code  0x00002230   0x11c  xdscale.o [4]
  .text              ro code  0x0000234c   0x2ac  AK.o [1]
  .text              ro code  0x000025f8    0xfc  Detector.o [1]
  .text              ro code  0x000026f4   0x100  decibel.o [1]
  .text              ro code  0x000027f4    0x68  host.o [1]
  .text              ro code  0x0000285c   0x198  ROM.o [1]
  .text              ro code  0x000029f4   0x424  SPI.o [1]
  .text              ro code  0x00002e18     0x8  abs.o [3]
  .text              ro code  0x00002e20    0xec  InitHW.o [1]
  .text              ro code  0x00002f0c   0x7c8  UART.o [1]
  .text              ro code  0x000036d4    0x34  ABImemcpy.o [5]
  .text              ro code  0x00003708   0x1c0  isr.o [1]
  .text              ro code  0x000038c8   0x19c  main.o [1]
  .text              ro code  0x00003a64    0x16  cmain.o [5]
  .text              ro code  0x00003a7a     0x4  low_level_init.o [3]
  .text              ro code  0x00003a7e     0x2  vector_table_M.o [1]
  .text              ro code  0x00003a80    0x28  data_init3.o [5]
  .text              ro code  0x00003aa8     0x8  exit.o [3]
  .text              ro code  0x00003ab0     0xa  cexit.o [5]
  .text              ro code  0x00003aba     0x2  vector_table_M.o [1]
  .text              ro code  0x00003abc    0x14  exit.o [6]
  .text              ro code  0x00003ad0     0x0  vector_table_M.o [1]
  .text              ro code  0x00003ad0     0x2  vector_table_M.o [1]
  .text              ro code  0x00003ad2     0x2  vector_table_M.o [1]
  .text              ro code  0x00003ad4     0x2  vector_table_M.o [1]
  .text              ro code  0x00003ad6     0x2  vector_table_M.o [1]
  .text              ro code  0x00003ad8     0x2  vector_table_M.o [1]
  .text              ro code  0x00003ada     0x2  vector_table_M.o [1]
  .text              ro code  0x00003adc     0x2  vector_table_M.o [1]
  .text              ro code  0x00003ade     0x2  vector_table_M.o [1]
  .text              ro code  0x00003ae0     0x2  vector_table_M.o [1]
  .text              ro code  0x00003ae2     0x2  vector_table_M.o [1]
  .text              ro code  0x00003ae4     0x2  vector_table_M.o [1]
  .text              ro code  0x00003ae6     0x2  vector_table_M.o [1]
  .text              ro code  0x00003ae8     0x2  vector_table_M.o [1]
  .text              ro code  0x00003aea     0x2  vector_table_M.o [1]
  .text              ro code  0x00003aec     0x2  vector_table_M.o [1]
  .text              ro code  0x00003aee     0x2  vector_table_M.o [1]
  .text              ro code  0x00003af0     0x2  vector_table_M.o [1]
  .text              ro code  0x00003af2     0x2  vector_table_M.o [1]
  .text              ro code  0x00003af4     0x2  vector_table_M.o [1]
  .text              ro code  0x00003af6     0x2  vector_table_M.o [1]
  .text              ro code  0x00003af8     0x2  vector_table_M.o [1]
  .text              ro code  0x00003afa     0xc  cstartup_M.o [5]
  .text              ro code  0x00003b06    0x2a  zero_init3.o [5]
  .text              ro code  0x00003b30    0x30  copy_init3.o [5]
                            - 0x00003b60  0x2b60

"P1", part 1 of 2:                         0x278
  .iar.init_table    const    0x00003b60    0x24  - Linker created -
  .rodata            const    0x00003b84    0x10  UART.o [1]
  .rodata            const    0x00003b94     0x0  zero_init3.o [5]
  .rodata            const    0x00003b94     0x0  copy_init3.o [5]
  CSTACK                      0x00003b98   0x200  <Block>
    CSTACK           uninit   0x00003b98   0x200  <Block tail>
  P1 s0                       0x00003d98    0x20  <Init block>
    .data            inited   0x00003d98     0xc  SPI.o [1]
    .data            inited   0x00003da4     0x4  AK.o [1]
    .data            inited   0x00003da8     0x4  decibel.o [1]
    .data            inited   0x00003dac     0x4  decibel.o [1]
    .data            inited   0x00003db0     0x1  AK.o [1]
    .data            inited   0x00003db1     0x1  AK.o [1]
    .data            inited   0x00003db2     0x1  AK.o [1]
    .data            inited   0x00003db3     0x1  AK.o [1]
    .data            inited   0x00003db4     0x1  AK.o [1]
  Initializer bytes  ro data  0x00003db8    0x20  <for P1 s0>
                            - 0x00003dd8   0x278

"P1", part 2 of 2:                         0x5c0
  .bss               zero     0x00003dd8   0x280  UART.o [1]
  .bss               zero     0x00004058   0x114  UART.o [1]
  .bss               zero     0x0000416c   0x114  UART.o [1]
  .bss               zero     0x00004280    0x7c  Detector.o [1]
  .bss               zero     0x000042fc    0x28  decibel.o [1]
  .bss               zero     0x00004324    0x10  UART.o [1]
  .bss               zero     0x00004334     0x8  AK.o [1]
  .bss               zero     0x0000433c     0x8  AK.o [1]
  .bss               zero     0x00004344     0x4  AK.o [1]
  .bss               zero     0x00004348     0x4  AK.o [1]
  .bss               zero     0x0000434c     0x4  AK.o [1]
  .bss               zero     0x00004350     0x4  Detector.o [1]
  .bss               zero     0x00004354     0x4  Detector.o [1]
  .bss               zero     0x00004358     0x4  UART.o [1]
  .bss               zero     0x0000435c     0x4  UART.o [1]
  .bss               zero     0x00004360     0x4  UART.o [1]
  .bss               zero     0x00004364     0x4  decibel.o [1]
  .bss               zero     0x00004368     0x4  main.o [1]
  .bss               zero     0x0000436c     0x4  main.o [1]
  .bss               zero     0x00004370     0x4  main.o [1]
  .bss               zero     0x00004374     0x4  main.o [1]
  .bss               zero     0x00004378     0x4  main.o [1]
  .bss               zero     0x0000437c     0x4  main.o [1]
  __DLIB_PERTHREAD   zero     0x00004380     0x4  errno.o [3]
  .bss               zero     0x00004384     0x2  AK.o [1]
  .bss               zero     0x00004386     0x2  AK.o [1]
  .bss               zero     0x00004388     0x2  AK.o [1]
  .bss               zero     0x0000438a     0x2  AK.o [1]
  .bss               zero     0x0000438c     0x2  AK.o [1]
  .bss               zero     0x0000438e     0x2  AK.o [1]
  .bss               zero     0x00004390     0x2  AK.o [1]
  .bss               zero     0x00004392     0x2  AK.o [1]
  .bss               zero     0x00004394     0x1  SPI.o [1]
  .bss               zero     0x00004395     0x1  SPI.o [1]
                            - 0x00004396   0x5be


*******************************************************************************
*** INIT TABLE
***

          Address     Size
          -------     ----
Zero (__iar_zero_init3)
    1 destination range, total size 0x5be:
          0x00003dd8  0x5be

Copy (__iar_copy_init3)
    1 source range, total size 0x20 (110% of destination):
          0x00003db8   0x20
    1 destination range, total size 0x1d:
          0x00003d98   0x1d



*******************************************************************************
*** MODULE SUMMARY
***

    Module            ro code  ro data  rw data
    ------            -------  -------  -------
F:\Project\NT_1069\ajpp_titan_v4_big_gain_100MHz\Debug\Obj: [1]
    AK.o                  684        9       53
    Detector.o            252               132
    InitHW.o              236
    ROM.o                 408
    SPI.o               1 060       12       14
    UART.o              1 992       16    1 220
    decibel.o             256        8       52
    host.o                104
    isr.o                 448
    main.o                412                24
    vector_table_M.o      180
    -------------------------------------------
    Total:              6 032       45    1 495

command line: [2]
    -------------------------------------------
    Total:

dl6M_tln.a: [3]
    abs.o                   8
    errno.o                16                 4
    exit.o                  8
    low_level_init.o        4
    xtls.o                  2
    -------------------------------------------
    Total:                 38                 4

m6M_tl.a: [4]
    DblAddSub.o           436
    DblCmpEq.o             36
    DblCmpGe.o             50
    DblCmpLe.o             50
    DblDiv.o              194
    DblMul.o              388
    DblToI32.o             78
    I32ToDbl.o             48
    pow.o               2 200
    xdint.o               140
    xdnorm.o               72
    xdscale.o             284
    xexp.o                776
    xlog.o                164
    -------------------------------------------
    Total:              4 916

rt6M_tl.a: [5]
    ABImemcpy.o            52
    cexit.o                10
    cmain.o                22
    copy_init3.o           48
    cstartup_M.o           12
    data_init3.o           40
    zero_init3.o           42
    -------------------------------------------
    Total:                226

shb_l.a: [6]
    exit.o                 20
    -------------------------------------------
    Total:                 20

    Linker created                  39      512
-----------------------------------------------
    Grand Total:       11 232       84    2 011


*******************************************************************************
*** ENTRY LIST
***

Entry                    Address   Size  Type      Object
-----                    -------   ----  ----      ------
?main                 0x00003a65         Code  Gb  cmain.o [5]
AK_off_timer          0x0000437c    0x4  Data  Gb  main.o [1]
ATT_level             0x0000434c    0x4  Data  Gb  AK.o [1]
ATT_level0            0x00003db4    0x1  Data  Gb  AK.o [1]
BusFault_Handler      0x00003a7f         Code  Wk  vector_table_M.o [1]
CPU_InitTick          0x00002e6b   0x14  Code  Gb  InitHW.o [1]
CSTACK$$Base          0x00003b98          --   Gb  - Linker created -
CSTACK$$Limit         0x00003d98          --   Gb  - Linker created -
CWIDTH_FR             0x00003dac    0x4  Data  Gb  decibel.o [1]
CalcRxWakeCRC         0x00003679   0x5c  Code  Gb  UART.o [1]
CheckRegistratorData  0x000023bf  0x1ec  Code  Gb  AK.o [1]
DMA1_Stream0_IRQHandler
                      0x00003ad9         Code  Wk  vector_table_M.o [1]
DMA1_Stream1_IRQHandler
                      0x00003adb         Code  Wk  vector_table_M.o [1]
DWIDTH_FR             0x00003da8    0x4  Data  Gb  decibel.o [1]
DebugMon_Handler      0x00003ad3         Code  Wk  vector_table_M.o [1]
EXTI0_IRQHandler      0x00003aeb         Code  Wk  vector_table_M.o [1]
EXTI1_IRQHandler      0x00003aed         Code  Wk  vector_table_M.o [1]
EXTI2_IRQHandler      0x00003aef         Code  Wk  vector_table_M.o [1]
EXTI3_IRQHandler      0x00003af1         Code  Wk  vector_table_M.o [1]
EXTI4_IRQHandler      0x00003af3         Code  Wk  vector_table_M.o [1]
EXTI5_IRQHandler      0x00003af5         Code  Wk  vector_table_M.o [1]
EXTI6_IRQHandler      0x00003af7         Code  Wk  vector_table_M.o [1]
EXTI7_IRQHandler      0x00003af9         Code  Wk  vector_table_M.o [1]
FlashBlock32Erase     0x00002be9   0x2c  Code  Gb  SPI.o [1]
FlashStatusRegRead    0x00002b91   0x2a  Code  Gb  SPI.o [1]
FlashUnprotectSector  0x00002c15   0x2c  Code  Gb  SPI.o [1]
FlashWaitNotBusy      0x00002bbd    0xc  Code  Gb  SPI.o [1]
FlashWriteEnable      0x00002bc9   0x20  Code  Gb  SPI.o [1]
GetCRCWake            0x000035ed   0x30  Code  Gb  UART.o [1]
HSI_Init              0x00002e7f   0x2c  Code  Gb  InitHW.o [1]
HW_Init               0x00002e21   0x4a  Code  Gb  InitHW.o [1]
HardFault_Handler     0x00001e7f         Code  Wk  vector_table_M.o [1]
Host                  0x000027f5   0x68  Code  Gb  host.o [1]
IFA_AGC_level         0x00003db1    0x1  Data  Gb  AK.o [1]
Init1                 0x000026f5   0x2a  Code  Gb  decibel.o [1]
InitSPI               0x000029f5   0x20  Code  Gb  SPI.o [1]
InitUART              0x00002f0d   0x3e  Code  Gb  UART.o [1]
Init_coeff_vector     0x0000271f   0x7c  Code  Gb  decibel.o [1]
Init_data_vector      0x000025f9   0x44  Code  Gb  Detector.o [1]
Machine               0x0000279b   0x3c  Code  Gb  decibel.o [1]
MemManage_Handler     0x0000222f         Code  Wk  vector_table_M.o [1]
NMI_Handler           0x00001d8b         Code  Wk  vector_table_M.o [1]
PendSV_Handler        0x00003ad5         Code  Wk  vector_table_M.o [1]
Pic                   0x0000263d   0xa4  Code  Gb  Detector.o [1]
RESTART               0x00002ebd   0x10  Code  Gb  InitHW.o [1]
RF_AGC_level          0x00003db0    0x1  Data  Gb  AK.o [1]
ReadFromADC           0x00002a7b   0x38  Code  Gb  SPI.o [1]
Region$$Table$$Base   0x00003b60          --   Gb  - Linker created -
Region$$Table$$Limit  0x00003b84          --   Gb  - Linker created -
RxWakeTimer           0x00004368    0x4  Data  Gb  main.o [1]
SPI1_IRQHandler       0x00003ae7         Code  Wk  vector_table_M.o [1]
SPI2_IRQHandler       0x00003ae9         Code  Wk  vector_table_M.o [1]
SVC_Handler           0x00003ad1         Code  Wk  vector_table_M.o [1]
SysTickFlg            0x0000436c    0x4  Data  Gb  main.o [1]
SysTick_Handler       0x00003893    0x8  Code  Gb  isr.o [1]
TIM1_IRQHandler       0x00003add         Code  Wk  vector_table_M.o [1]
TIM2_IRQHandler       0x00003adf         Code  Wk  vector_table_M.o [1]
USART1_IRQHandler     0x00003709  0x18a  Code  Gb  isr.o [1]
USART2_IRQHandler     0x00003ae3         Code  Wk  vector_table_M.o [1]
USART3_IRQHandler     0x00003ae5         Code  Wk  vector_table_M.o [1]
UsageFault_Handler    0x00003abb         Code  Wk  vector_table_M.o [1]
WakeReadInit          0x0000361d   0x46  Code  Gb  UART.o [1]
WakeTxStart           0x00003499  0x10e  Code  Gb  UART.o [1]
WriteToADC            0x00002af3   0x4a  Code  Gb  SPI.o [1]
WriteToMIX            0x00002b41   0x2c  Code  Gb  SPI.o [1]
WriteToMax14662       0x00002ab3   0x40  Code  Gb  SPI.o [1]
__aeabi_cdcmpeq       0x0000196d         Code  Gb  DblCmpEq.o [4]
__aeabi_cdcmple       0x000019d3         Code  Gb  DblCmpLe.o [4]
__aeabi_cdrcmple      0x000019a1         Code  Gb  DblCmpGe.o [4]
__aeabi_d2iz          0x00001d3d         Code  Gb  DblToI32.o [4]
__aeabi_dadd          0x00001b89         Code  Gb  DblAddSub.o [4]
__aeabi_ddiv          0x00001dbd         Code  Gb  DblDiv.o [4]
__aeabi_dmul          0x00001a05         Code  Gb  DblMul.o [4]
__aeabi_dsub          0x00001c4f         Code  Gb  DblAddSub.o [4]
__aeabi_errno_addr    0x00001991    0xa  Code  Gb  errno.o [3]
__aeabi_i2d           0x00001d8d         Code  Gb  I32ToDbl.o [4]
__aeabi_memcpy4       0x000036d5         Code  Gb  ABImemcpy.o [5]
__aeabi_memcpy8       0x000036d5         Code  Gb  ABImemcpy.o [5]
__cmain               0x00003a65         Code  Gb  cmain.o [5]
__exit                0x00003abd   0x14  Code  Gb  exit.o [6]
__iar_Dint            0x000018e1   0x8c  Code  Gb  xdint.o [4]
__iar_Dnorm           0x00001899   0x48  Code  Gb  xdnorm.o [4]
__iar_Dscale          0x00002231  0x11c  Code  Gb  xdscale.o [4]
__iar_Errno           0x00004380    0x4  Data  Gb  errno.o [3]
__iar_Exp             0x00001f25  0x308  Code  Gb  xexp.o [4]
__iar_Logpoly         0x00001e81   0x6c  Code  Gb  xlog.o [4]
__iar_copy_init3      0x00003b31   0x30  Code  Gb  copy_init3.o [5]
__iar_d2uiz           0x00001d61         Code  Gb  DblToI32.o [4]
__iar_data_init3      0x00003a81   0x28  Code  Gb  data_init3.o [5]
__iar_dlib_perthread_access
                      0x0000222d    0x2  Code  Gb  xtls.o [3]
__iar_program_start   0x00003afb         Code  Gb  cstartup_M.o [5]
__iar_ui2d            0x00001da1         Code  Gb  I32ToDbl.o [4]
__iar_zero_init3      0x00003b07   0x2a  Code  Gb  zero_init3.o [5]
__low_level_init      0x00003a7b    0x4  Code  Gb  low_level_init.o [3]
__vector_table        0x00000000         Data  Gb  vector_table_M.o [1]
_call_main            0x00003a71         Code  Gb  cmain.o [5]
_exit                 0x00003ab1         Code  Gb  cexit.o [5]
_main                 0x00003a77         Code  Gb  cmain.o [5]
abs                   0x00002e19    0x8  Code  Gb  abs.o [3]
asc_host              0x00002f5d  0x51e  Code  Gb  UART.o [1]
change_main_clock     0x00002eab   0x12  Code  Gb  InitHW.o [1]
coeff_vector          0x000042fc   0x28  Data  Gb  decibel.o [1]
control               0x00003da4    0x4  Data  Gb  AK.o [1]
counter               0x00004354    0x4  Data  Gb  Detector.o [1]
decibel_data          0x00004392    0x2  Data  Gb  AK.o [1]
decibel_data_A        0x00004390    0x2  Data  Gb  AK.o [1]
decrement             0x00004280   0x7c  Data  Gb  Detector.o [1]
dmix                  0x00003d98    0xc  Data  Gb  SPI.o [1]
exit                  0x00003aa9    0x8  Code  Gb  exit.o [3]
ifa_agc_lev           0x0000433c    0x8  Data  Gb  AK.o [1]
inf_buf               0x00004324   0x10  Data  Gb  UART.o [1]
initAK                0x0000234d   0x72  Code  Gb  AK.o [1]
internal_Pow          0x00001001  0x43a  Code  Lc  pow.o [4]
lev_rf_ifa            0x00003db2    0x1  Data  Gb  AK.o [1]
lev_rf_ifa_bk         0x00003db3    0x1  Data  Gb  AK.o [1]
lnbias                0x00001478  0x420  Data  Lc  pow.o [4]
main                  0x000038c9  0x19c  Code  Gb  main.o [1]
pick_data             0x00004386    0x2  Data  Gb  AK.o [1]
pick_data_A           0x00004388    0x2  Data  Gb  AK.o [1]
pick_data_B           0x0000438a    0x2  Data  Gb  AK.o [1]
pick_data_C           0x0000438c    0x2  Data  Gb  AK.o [1]
pick_data_D           0x0000438e    0x2  Data  Gb  AK.o [1]
pow                   0x00001469    0xe  Code  Gb  pow.o [4]
prog_cntrl            0x00004378    0x4  Data  Gb  main.o [1]
prog_status           0x00004374    0x4  Data  Gb  main.o [1]
rd_RFIC               0x00002a43   0x38  Code  Gb  SPI.o [1]
rf_agc_lev            0x00004334    0x8  Data  Gb  AK.o [1]
rf_ifa_rom            0x0000285d  0x198  Code  Gb  ROM.o [1]
state                 0x00004364    0x4  Data  Gb  decibel.o [1]
sys_tics              0x00004370    0x4  Data  Gb  main.o [1]
timer                 0x00004350    0x4  Data  Gb  Detector.o [1]
trim_adc1             0x00004394    0x1  Data  Gb  SPI.o [1]
trim_adc2             0x00004395    0x1  Data  Gb  SPI.o [1]
trimming_err          0x00004348    0x4  Data  Gb  AK.o [1]
trimming_pause        0x00004384    0x2  Data  Gb  AK.o [1]
trimming_step         0x00004344    0x4  Data  Gb  AK.o [1]
uart1_tx_buf          0x00003dd8  0x280  Data  Gb  UART.o [1]
uart1_tx_buf_len      0x00004360    0x4  Data  Gb  UART.o [1]
uart1_tx_buf_rd_ptr   0x0000435c    0x4  Data  Gb  UART.o [1]
uart1_tx_buf_wr_ptr   0x00004358    0x4  Data  Gb  UART.o [1]
wake_UART_1_rx        0x00004058  0x114  Data  Gb  UART.o [1]
wake_UART_1_tx        0x0000416c  0x114  Data  Gb  UART.o [1]
wake_wr_tx_buf        0x000035ad   0x3c  Code  Gb  UART.o [1]
wr_RFIC               0x00002a15   0x2e  Code  Gb  SPI.o [1]
write_flash_image     0x00002c4d  0x1a2  Code  Gb  SPI.o [1]


[1] = F:\Project\NT_1069\ajpp_titan_v4_big_gain_100MHz\Debug\Obj
[2] = command line
[3] = dl6M_tln.a
[4] = m6M_tl.a
[5] = rt6M_tl.a
[6] = shb_l.a

  11 232 bytes of readonly  code memory
      84 bytes of readonly  data memory
   2 011 bytes of readwrite data memory

Errors: none
Warnings: 2
